{
  "contractName": "Card",
  "abi": [
    {
      "inputs": [],
      "stateMutability": "nonpayable",
      "type": "constructor"
    },
    {
      "inputs": [],
      "name": "AuctionAlreadyEnded",
      "type": "error"
    },
    {
      "inputs": [],
      "name": "AuctionEndAlreadyCalled",
      "type": "error"
    },
    {
      "inputs": [],
      "name": "AuctionNotYetEnded",
      "type": "error"
    },
    {
      "inputs": [
        {
          "internalType": "uint256",
          "name": "highestBid",
          "type": "uint256"
        }
      ],
      "name": "BidNotHighEnough",
      "type": "error"
    },
    {
      "anonymous": false,
      "inputs": [
        {
          "indexed": true,
          "internalType": "address",
          "name": "owner",
          "type": "address"
        },
        {
          "indexed": true,
          "internalType": "address",
          "name": "approved",
          "type": "address"
        },
        {
          "indexed": true,
          "internalType": "uint256",
          "name": "tokenId",
          "type": "uint256"
        }
      ],
      "name": "Approval",
      "type": "event"
    },
    {
      "anonymous": false,
      "inputs": [
        {
          "indexed": true,
          "internalType": "address",
          "name": "owner",
          "type": "address"
        },
        {
          "indexed": true,
          "internalType": "address",
          "name": "operator",
          "type": "address"
        },
        {
          "indexed": false,
          "internalType": "bool",
          "name": "approved",
          "type": "bool"
        }
      ],
      "name": "ApprovalForAll",
      "type": "event"
    },
    {
      "anonymous": false,
      "inputs": [
        {
          "indexed": false,
          "internalType": "address",
          "name": "winner",
          "type": "address"
        },
        {
          "indexed": false,
          "internalType": "uint256",
          "name": "amount",
          "type": "uint256"
        }
      ],
      "name": "AuctionEnded",
      "type": "event"
    },
    {
      "anonymous": false,
      "inputs": [
        {
          "indexed": false,
          "internalType": "address",
          "name": "bidder",
          "type": "address"
        },
        {
          "indexed": false,
          "internalType": "uint256",
          "name": "amount",
          "type": "uint256"
        },
        {
          "indexed": false,
          "internalType": "uint256",
          "name": "id",
          "type": "uint256"
        },
        {
          "indexed": false,
          "internalType": "uint256",
          "name": "endTime",
          "type": "uint256"
        }
      ],
      "name": "HighestBidIncreased",
      "type": "event"
    },
    {
      "anonymous": false,
      "inputs": [
        {
          "indexed": true,
          "internalType": "address",
          "name": "from",
          "type": "address"
        },
        {
          "indexed": true,
          "internalType": "address",
          "name": "to",
          "type": "address"
        },
        {
          "indexed": true,
          "internalType": "uint256",
          "name": "tokenId",
          "type": "uint256"
        }
      ],
      "name": "Transfer",
      "type": "event"
    },
    {
      "anonymous": false,
      "inputs": [
        {
          "indexed": false,
          "internalType": "uint256",
          "name": "id",
          "type": "uint256"
        },
        {
          "indexed": false,
          "internalType": "address",
          "name": "from",
          "type": "address"
        },
        {
          "indexed": false,
          "internalType": "address",
          "name": "to",
          "type": "address"
        },
        {
          "indexed": false,
          "internalType": "uint256",
          "name": "time",
          "type": "uint256"
        },
        {
          "indexed": false,
          "internalType": "uint256",
          "name": "eve",
          "type": "uint256"
        }
      ],
      "name": "transfers",
      "type": "event"
    },
    {
      "inputs": [
        {
          "internalType": "address",
          "name": "to",
          "type": "address"
        },
        {
          "internalType": "uint256",
          "name": "tokenId",
          "type": "uint256"
        }
      ],
      "name": "approve",
      "outputs": [],
      "stateMutability": "nonpayable",
      "type": "function"
    },
    {
      "inputs": [
        {
          "internalType": "uint256",
          "name": "",
          "type": "uint256"
        }
      ],
      "name": "auction",
      "outputs": [
        {
          "internalType": "address payable",
          "name": "beneficiary",
          "type": "address"
        },
        {
          "internalType": "uint256",
          "name": "auctionEndTime",
          "type": "uint256"
        },
        {
          "internalType": "address payable",
          "name": "highestBidder",
          "type": "address"
        },
        {
          "internalType": "uint256",
          "name": "highestBid",
          "type": "uint256"
        },
        {
          "internalType": "bool",
          "name": "ended",
          "type": "bool"
        }
      ],
      "stateMutability": "view",
      "type": "function",
      "constant": true
    },
    {
      "inputs": [
        {
          "internalType": "address",
          "name": "owner",
          "type": "address"
        }
      ],
      "name": "balanceOf",
      "outputs": [
        {
          "internalType": "uint256",
          "name": "",
          "type": "uint256"
        }
      ],
      "stateMutability": "view",
      "type": "function",
      "constant": true
    },
    {
      "inputs": [
        {
          "internalType": "uint256",
          "name": "",
          "type": "uint256"
        }
      ],
      "name": "cards",
      "outputs": [
        {
          "internalType": "uint256",
          "name": "id",
          "type": "uint256"
        },
        {
          "internalType": "uint256",
          "name": "price",
          "type": "uint256"
        },
        {
          "internalType": "string",
          "name": "card",
          "type": "string"
        },
        {
          "internalType": "bool",
          "name": "listed",
          "type": "bool"
        },
        {
          "internalType": "bool",
          "name": "onAuction",
          "type": "bool"
        }
      ],
      "stateMutability": "view",
      "type": "function",
      "constant": true
    },
    {
      "inputs": [
        {
          "internalType": "uint256",
          "name": "tokenId",
          "type": "uint256"
        }
      ],
      "name": "getApproved",
      "outputs": [
        {
          "internalType": "address",
          "name": "",
          "type": "address"
        }
      ],
      "stateMutability": "view",
      "type": "function",
      "constant": true
    },
    {
      "inputs": [
        {
          "internalType": "address",
          "name": "owner",
          "type": "address"
        },
        {
          "internalType": "address",
          "name": "operator",
          "type": "address"
        }
      ],
      "name": "isApprovedForAll",
      "outputs": [
        {
          "internalType": "bool",
          "name": "",
          "type": "bool"
        }
      ],
      "stateMutability": "view",
      "type": "function",
      "constant": true
    },
    {
      "inputs": [],
      "name": "name",
      "outputs": [
        {
          "internalType": "string",
          "name": "",
          "type": "string"
        }
      ],
      "stateMutability": "view",
      "type": "function",
      "constant": true
    },
    {
      "inputs": [
        {
          "internalType": "uint256",
          "name": "tokenId",
          "type": "uint256"
        }
      ],
      "name": "ownerOf",
      "outputs": [
        {
          "internalType": "address",
          "name": "",
          "type": "address"
        }
      ],
      "stateMutability": "view",
      "type": "function",
      "constant": true
    },
    {
      "inputs": [
        {
          "internalType": "address",
          "name": "from",
          "type": "address"
        },
        {
          "internalType": "address",
          "name": "to",
          "type": "address"
        },
        {
          "internalType": "uint256",
          "name": "tokenId",
          "type": "uint256"
        }
      ],
      "name": "safeTransferFrom",
      "outputs": [],
      "stateMutability": "nonpayable",
      "type": "function"
    },
    {
      "inputs": [
        {
          "internalType": "address",
          "name": "from",
          "type": "address"
        },
        {
          "internalType": "address",
          "name": "to",
          "type": "address"
        },
        {
          "internalType": "uint256",
          "name": "tokenId",
          "type": "uint256"
        },
        {
          "internalType": "bytes",
          "name": "_data",
          "type": "bytes"
        }
      ],
      "name": "safeTransferFrom",
      "outputs": [],
      "stateMutability": "nonpayable",
      "type": "function"
    },
    {
      "inputs": [
        {
          "internalType": "address",
          "name": "operator",
          "type": "address"
        },
        {
          "internalType": "bool",
          "name": "approved",
          "type": "bool"
        }
      ],
      "name": "setApprovalForAll",
      "outputs": [],
      "stateMutability": "nonpayable",
      "type": "function"
    },
    {
      "inputs": [
        {
          "internalType": "bytes4",
          "name": "interfaceId",
          "type": "bytes4"
        }
      ],
      "name": "supportsInterface",
      "outputs": [
        {
          "internalType": "bool",
          "name": "",
          "type": "bool"
        }
      ],
      "stateMutability": "view",
      "type": "function",
      "constant": true
    },
    {
      "inputs": [],
      "name": "symbol",
      "outputs": [
        {
          "internalType": "string",
          "name": "",
          "type": "string"
        }
      ],
      "stateMutability": "view",
      "type": "function",
      "constant": true
    },
    {
      "inputs": [
        {
          "internalType": "uint256",
          "name": "index",
          "type": "uint256"
        }
      ],
      "name": "tokenByIndex",
      "outputs": [
        {
          "internalType": "uint256",
          "name": "",
          "type": "uint256"
        }
      ],
      "stateMutability": "view",
      "type": "function",
      "constant": true
    },
    {
      "inputs": [
        {
          "internalType": "address",
          "name": "owner",
          "type": "address"
        },
        {
          "internalType": "uint256",
          "name": "index",
          "type": "uint256"
        }
      ],
      "name": "tokenOfOwnerByIndex",
      "outputs": [
        {
          "internalType": "uint256",
          "name": "",
          "type": "uint256"
        }
      ],
      "stateMutability": "view",
      "type": "function",
      "constant": true
    },
    {
      "inputs": [
        {
          "internalType": "uint256",
          "name": "tokenId",
          "type": "uint256"
        }
      ],
      "name": "tokenURI",
      "outputs": [
        {
          "internalType": "string",
          "name": "",
          "type": "string"
        }
      ],
      "stateMutability": "view",
      "type": "function",
      "constant": true
    },
    {
      "inputs": [],
      "name": "totalSupply",
      "outputs": [
        {
          "internalType": "uint256",
          "name": "",
          "type": "uint256"
        }
      ],
      "stateMutability": "view",
      "type": "function",
      "constant": true
    },
    {
      "inputs": [
        {
          "internalType": "address",
          "name": "from",
          "type": "address"
        },
        {
          "internalType": "address",
          "name": "to",
          "type": "address"
        },
        {
          "internalType": "uint256",
          "name": "tokenId",
          "type": "uint256"
        }
      ],
      "name": "transferFrom",
      "outputs": [],
      "stateMutability": "nonpayable",
      "type": "function"
    },
    {
      "inputs": [
        {
          "internalType": "string",
          "name": "_card",
          "type": "string"
        }
      ],
      "name": "mint",
      "outputs": [],
      "stateMutability": "nonpayable",
      "type": "function"
    },
    {
      "inputs": [
        {
          "internalType": "uint256",
          "name": "_id",
          "type": "uint256"
        }
      ],
      "name": "buy",
      "outputs": [],
      "stateMutability": "payable",
      "type": "function",
      "payable": true
    },
    {
      "inputs": [
        {
          "internalType": "address",
          "name": "_from",
          "type": "address"
        },
        {
          "internalType": "address",
          "name": "_to",
          "type": "address"
        },
        {
          "internalType": "uint256",
          "name": "_id",
          "type": "uint256"
        }
      ],
      "name": "gift",
      "outputs": [],
      "stateMutability": "nonpayable",
      "type": "function"
    },
    {
      "inputs": [
        {
          "internalType": "uint256",
          "name": "_id",
          "type": "uint256"
        },
        {
          "internalType": "uint256",
          "name": "timestamp",
          "type": "uint256"
        }
      ],
      "name": "putOnAuction",
      "outputs": [],
      "stateMutability": "nonpayable",
      "type": "function"
    },
    {
      "inputs": [
        {
          "internalType": "uint256",
          "name": "_id",
          "type": "uint256"
        },
        {
          "internalType": "uint256",
          "name": "price",
          "type": "uint256"
        }
      ],
      "name": "list",
      "outputs": [],
      "stateMutability": "nonpayable",
      "type": "function"
    },
    {
      "inputs": [
        {
          "internalType": "uint256",
          "name": "_id",
          "type": "uint256"
        }
      ],
      "name": "delist",
      "outputs": [],
      "stateMutability": "nonpayable",
      "type": "function"
    },
    {
      "inputs": [
        {
          "internalType": "uint256",
          "name": "_id",
          "type": "uint256"
        }
      ],
      "name": "bid",
      "outputs": [],
      "stateMutability": "payable",
      "type": "function",
      "payable": true
    },
    {
      "inputs": [
        {
          "internalType": "uint256",
          "name": "_id",
          "type": "uint256"
        }
      ],
      "name": "auctionEnd",
      "outputs": [],
      "stateMutability": "nonpayable",
      "type": "function"
    }
  ],
  "bytecode": "0x60806040523480156200001157600080fd5b506040518060400160405280600481526020017f43617264000000000000000000000000000000000000000000000000000000008152506040518060400160405280600481526020017f4341524400000000000000000000000000000000000000000000000000000000815250816000908051906020019062000096929190620000b8565b508060019080519060200190620000af929190620000b8565b505050620001cd565b828054620000c69062000168565b90600052602060002090601f016020900481019282620000ea576000855562000136565b82601f106200010557805160ff191683800117855562000136565b8280016001018555821562000136579182015b828111156200013557825182559160200191906001019062000118565b5b50905062000145919062000149565b5090565b5b80821115620001645760008160009055506001016200014a565b5090565b600060028204905060018216806200018157607f821691505b602082108114156200019857620001976200019e565b5b50919050565b7f4e487b7100000000000000000000000000000000000000000000000000000000600052602260045260246000fd5b6148a380620001dd6000396000f3fe6080604052600436106101815760003560e01c80636352211e116100d15780639d1267011161008a578063c87b56dd11610064578063c87b56dd146105ad578063d85d3d27146105ea578063d96a094a14610613578063e985e9c51461062f57610181565b80639d12670114610532578063a22cb4651461055b578063b88d4fde1461058457610181565b80636352211e146103fa57806370a08231146104375780638dc107681461047457806395d89b41146104b557806395dbee2d146104e0578063964bc33f1461050957610181565b806323b872dd1161013e57806342842e0e1161011857806342842e0e1461034f578063454a2ab3146103785780634f6ccce71461039457806350fd7367146103d157610181565b806323b872dd146102c05780632f745c59146102e957806332246e9f1461032657610181565b806301ffc9a71461018657806306fdde03146101c3578063081812fc146101ee578063095ea7b31461022b5780631200617f1461025457806318160ddd14610295575b600080fd5b34801561019257600080fd5b506101ad60048036038101906101a8919061358c565b61066c565b6040516101ba9190613b32565b60405180910390f35b3480156101cf57600080fd5b506101d86106e6565b6040516101e59190613b4d565b60405180910390f35b3480156101fa57600080fd5b506102156004803603810190610210919061361f565b610778565b6040516102229190613a0a565b60405180910390f35b34801561023757600080fd5b50610252600480360381019061024d9190613550565b6107fd565b005b34801561026057600080fd5b5061027b6004803603810190610276919061361f565b610915565b60405161028c959493929190613a4e565b60405180910390f35b3480156102a157600080fd5b506102aa610998565b6040516102b79190613d6f565b60405180910390f35b3480156102cc57600080fd5b506102e760048036038101906102e2919061344a565b6109a5565b005b3480156102f557600080fd5b50610310600480360381019061030b9190613550565b610a05565b60405161031d9190613d6f565b60405180910390f35b34801561033257600080fd5b5061034d6004803603810190610348919061361f565b610aaa565b005b34801561035b57600080fd5b506103766004803603810190610371919061344a565b610f53565b005b610392600480360381019061038d919061361f565b610f73565b005b3480156103a057600080fd5b506103bb60048036038101906103b6919061361f565b6111ab565b6040516103c89190613d6f565b60405180910390f35b3480156103dd57600080fd5b506103f860048036038101906103f39190613648565b611242565b005b34801561040657600080fd5b50610421600480360381019061041c919061361f565b6113f2565b60405161042e9190613a0a565b60405180910390f35b34801561044357600080fd5b5061045e600480360381019061045991906133e5565b6114a4565b60405161046b9190613d6f565b60405180910390f35b34801561048057600080fd5b5061049b6004803603810190610496919061361f565b61155c565b6040516104ac959493929190613ed6565b60405180910390f35b3480156104c157600080fd5b506104ca611634565b6040516104d79190613b4d565b60405180910390f35b3480156104ec57600080fd5b506105076004803603810190610502919061344a565b6116c6565b005b34801561051557600080fd5b50610530600480360381019061052b919061361f565b611832565b005b34801561053e57600080fd5b5061055960048036038101906105549190613648565b6119c5565b005b34801561056757600080fd5b50610582600480360381019061057d9190613514565b611b95565b005b34801561059057600080fd5b506105ab60048036038101906105a69190613499565b611d16565b005b3480156105b957600080fd5b506105d460048036038101906105cf919061361f565b611d78565b6040516105e19190613b4d565b60405180910390f35b3480156105f657600080fd5b50610611600480360381019061060c91906135de565b611e1f565b005b61062d6004803603810190610628919061361f565b611f9c565b005b34801561063b57600080fd5b506106566004803603810190610651919061340e565b612199565b6040516106639190613b32565b60405180910390f35b60007f780e9d63000000000000000000000000000000000000000000000000000000007bffffffffffffffffffffffffffffffffffffffffffffffffffffffff1916827bffffffffffffffffffffffffffffffffffffffffffffffffffffffff191614806106df57506106de8261222d565b5b9050919050565b6060600080546106f5906141e9565b80601f0160208091040260200160405190810160405280929190818152602001828054610721906141e9565b801561076e5780601f106107435761010080835404028352916020019161076e565b820191906000526020600020905b81548152906001019060200180831161075157829003601f168201915b5050505050905090565b60006107838261230f565b6107c2576040517f08c379a00000000000000000000000000000000000000000000000000000000081526004016107b990613caf565b60405180910390fd5b6004600083815260200190815260200160002060009054906101000a900473ffffffffffffffffffffffffffffffffffffffff169050919050565b6000610808826113f2565b90508073ffffffffffffffffffffffffffffffffffffffff168373ffffffffffffffffffffffffffffffffffffffff161415610879576040517f08c379a000000000000000000000000000000000000000000000000000000000815260040161087090613d0f565b60405180910390fd5b8073ffffffffffffffffffffffffffffffffffffffff1661089861237b565b73ffffffffffffffffffffffffffffffffffffffff1614806108c757506108c6816108c161237b565b612199565b5b610906576040517f08c379a00000000000000000000000000000000000000000000000000000000081526004016108fd90613c2f565b60405180910390fd5b6109108383612383565b505050565b600c6020528060005260406000206000915090508060000160009054906101000a900473ffffffffffffffffffffffffffffffffffffffff16908060010154908060020160009054906101000a900473ffffffffffffffffffffffffffffffffffffffff16908060030154908060040160009054906101000a900460ff16905085565b6000600880549050905090565b6109b66109b061237b565b8261243c565b6109f5576040517f08c379a00000000000000000000000000000000000000000000000000000000081526004016109ec90613d2f565b60405180910390fd5b610a0083838361251a565b505050565b6000610a10836114a4565b8210610a51576040517f08c379a0000000000000000000000000000000000000000000000000000000008152600401610a4890613b6f565b60405180910390fd5b600660008473ffffffffffffffffffffffffffffffffffffffff1673ffffffffffffffffffffffffffffffffffffffff168152602001908152602001600020600083815260200190815260200160002054905092915050565b600c600082815260200190815260200160002060010154421015610afa576040517f44cee29000000000000000000000000000000000000000000000000000000000815260040160405180910390fd5b600c600082815260200190815260200160002060040160009054906101000a900460ff1615610b55576040517f61cfdcf800000000000000000000000000000000000000000000000000000000815260040160405180910390fd5b600c600082815260200190815260200160002060000160009054906101000a900473ffffffffffffffffffffffffffffffffffffffff1673ffffffffffffffffffffffffffffffffffffffff163373ffffffffffffffffffffffffffffffffffffffff161480610c265750600c600082815260200190815260200160002060020160009054906101000a900473ffffffffffffffffffffffffffffffffffffffff1673ffffffffffffffffffffffffffffffffffffffff163373ffffffffffffffffffffffffffffffffffffffff16145b610c2f57600080fd5b6001600c600083815260200190815260200160002060040160006101000a81548160ff0219169083151502179055507fdaec4582d5d9595688c8c98545fdd1c696d41c6aeaeb636737e84ed2f5c00eda600c600083815260200190815260200160002060020160009054906101000a900473ffffffffffffffffffffffffffffffffffffffff16600c600084815260200190815260200160002060030154604051610cdb929190613a25565b60405180910390a1600c600082815260200190815260200160002060000160009054906101000a900473ffffffffffffffffffffffffffffffffffffffff1673ffffffffffffffffffffffffffffffffffffffff166108fc600c6000848152602001908152602001600020600301549081150290604051600060405180830381858888f19350505050158015610d75573d6000803e3d6000fd5b50610ded600c600083815260200190815260200160002060000160009054906101000a900473ffffffffffffffffffffffffffffffffffffffff16600c600084815260200190815260200160002060020160009054906101000a900473ffffffffffffffffffffffffffffffffffffffff168361251a565b7fd3e75245cee150d6210fa6a1e69d22044a9bbea479f05e98f2a44b2726739a9181600c600084815260200190815260200160002060000160009054906101000a900473ffffffffffffffffffffffffffffffffffffffff16600c600085815260200190815260200160002060020160009054906101000a900473ffffffffffffffffffffffffffffffffffffffff16426001604051610e91959493929190613d8a565b60405180910390a16000600a600083815260200190815260200160002060030160016101000a81548160ff021916908315150217905550600c6000828152602001908152602001600020600080820160006101000a81549073ffffffffffffffffffffffffffffffffffffffff021916905560018201600090556002820160006101000a81549073ffffffffffffffffffffffffffffffffffffffff021916905560038201600090556004820160006101000a81549060ff0219169055505050565b610f6e83838360405180602001604052806000815250611d16565b505050565b600c600082815260200190815260200160002060010154421115610fc3576040517fd02e774d00000000000000000000000000000000000000000000000000000000815260040160405180910390fd5b600c600082815260200190815260200160002060030154341161103357600c6000828152602001908152602001600020600301546040517f4e12c1bb00000000000000000000000000000000000000000000000000000000815260040161102a9190613d6f565b60405180910390fd5b6000600c600083815260200190815260200160002060030154146110e557600c600082815260200190815260200160002060020160009054906101000a900473ffffffffffffffffffffffffffffffffffffffff1673ffffffffffffffffffffffffffffffffffffffff166108fc600c6000848152602001908152602001600020600301549081150290604051600060405180830381858888f193505050501580156110e3573d6000803e3d6000fd5b505b33600c600083815260200190815260200160002060020160006101000a81548173ffffffffffffffffffffffffffffffffffffffff021916908373ffffffffffffffffffffffffffffffffffffffff16021790555034600c6000838152602001908152602001600020600301819055507f3d6cfbcf4e2da00c4fb84f4a866f8817880609fc65411a5441a0dd16240ffb5d333483600c6000868152602001908152602001600020600101546040516111a09493929190613aed565b60405180910390a150565b60006111b5610998565b82106111f6576040517f08c379a00000000000000000000000000000000000000000000000000000000081526004016111ed90613d4f565b60405180910390fd5b60088281548110611230577f4e487b7100000000000000000000000000000000000000000000000000000000600052603260045260246000fd5b90600052602060002001549050919050565b6000600a60008481526020019081526020016000206040518060a00160405290816000820154815260200160018201548152602001600282018054611286906141e9565b80601f01602080910402602001604051908101604052809291908181526020018280546112b2906141e9565b80156112ff5780601f106112d4576101008083540402835291602001916112ff565b820191906000526020600020905b8154815290600101906020018083116112e257829003601f168201915b505050505081526020016003820160009054906101000a900460ff161515151581526020016003820160019054906101000a900460ff1615151515815250509050600061134b846113f2565b90503373ffffffffffffffffffffffffffffffffffffffff168173ffffffffffffffffffffffffffffffffffffffff161461138557600080fd5b816060015115801561139957508160800151155b6113a257600080fd5b6001600a600086815260200190815260200160002060030160006101000a81548160ff02191690831515021790555082600a60008681526020019081526020016000206001018190555050505050565b6000806002600084815260200190815260200160002060009054906101000a900473ffffffffffffffffffffffffffffffffffffffff169050600073ffffffffffffffffffffffffffffffffffffffff168173ffffffffffffffffffffffffffffffffffffffff16141561149b576040517f08c379a000000000000000000000000000000000000000000000000000000000815260040161149290613c6f565b60405180910390fd5b80915050919050565b60008073ffffffffffffffffffffffffffffffffffffffff168273ffffffffffffffffffffffffffffffffffffffff161415611515576040517f08c379a000000000000000000000000000000000000000000000000000000000815260040161150c90613c4f565b60405180910390fd5b600360008373ffffffffffffffffffffffffffffffffffffffff1673ffffffffffffffffffffffffffffffffffffffff168152602001908152602001600020549050919050565b600a60205280600052604060002060009150905080600001549080600101549080600201805461158b906141e9565b80601f01602080910402602001604051908101604052809291908181526020018280546115b7906141e9565b80156116045780601f106115d957610100808354040283529160200191611604565b820191906000526020600020905b8154815290600101906020018083116115e757829003601f168201915b5050505050908060030160009054906101000a900460ff16908060030160019054906101000a900460ff16905085565b606060018054611643906141e9565b80601f016020809104026020016040519081016040528092919081815260200182805461166f906141e9565b80156116bc5780601f10611691576101008083540402835291602001916116bc565b820191906000526020600020905b81548152906001019060200180831161169f57829003601f168201915b5050505050905090565b6000600a60008381526020019081526020016000206040518060a0016040529081600082015481526020016001820154815260200160028201805461170a906141e9565b80601f0160208091040260200160405190810160405280929190818152602001828054611736906141e9565b80156117835780601f1061175857610100808354040283529160200191611783565b820191906000526020600020905b81548152906001019060200180831161176657829003601f168201915b505050505081526020016003820160009054906101000a900460ff161515151581526020016003820160019054906101000a900460ff161515151581525050905080606001511580156117d857508060800151155b6117e157600080fd5b6117ec84848461251a565b7fd3e75245cee150d6210fa6a1e69d22044a9bbea479f05e98f2a44b2726739a91828585426002604051611824959493929190613e83565b60405180910390a150505050565b6000600a60008381526020019081526020016000206040518060a00160405290816000820154815260200160018201548152602001600282018054611876906141e9565b80601f01602080910402602001604051908101604052809291908181526020018280546118a2906141e9565b80156118ef5780601f106118c4576101008083540402835291602001916118ef565b820191906000526020600020905b8154815290600101906020018083116118d257829003601f168201915b505050505081526020016003820160009054906101000a900460ff161515151581526020016003820160019054906101000a900460ff16151515158152505090508060600151801561194357508060800151155b61194c57600080fd5b6000611957836113f2565b90503373ffffffffffffffffffffffffffffffffffffffff168173ffffffffffffffffffffffffffffffffffffffff161461199157600080fd5b6000600a600085815260200190815260200160002060030160006101000a81548160ff021916908315150217905550505050565b3373ffffffffffffffffffffffffffffffffffffffff166119e5836113f2565b73ffffffffffffffffffffffffffffffffffffffff1614611a0557600080fd5b600a600083815260200190815260200160002060030160009054906101000a900460ff1615611a3357600080fd5b6001600a600084815260200190815260200160002060030160016101000a81548160ff0219169083151502179055506040518060a001604052803373ffffffffffffffffffffffffffffffffffffffff1681526020018281526020013373ffffffffffffffffffffffffffffffffffffffff1681526020016000815260200160001515815250600c600084815260200190815260200160002060008201518160000160006101000a81548173ffffffffffffffffffffffffffffffffffffffff021916908373ffffffffffffffffffffffffffffffffffffffff1602179055506020820151816001015560408201518160020160006101000a81548173ffffffffffffffffffffffffffffffffffffffff021916908373ffffffffffffffffffffffffffffffffffffffff1602179055506060820151816003015560808201518160040160006101000a81548160ff0219169083151502179055509050505050565b611b9d61237b565b73ffffffffffffffffffffffffffffffffffffffff168273ffffffffffffffffffffffffffffffffffffffff161415611c0b576040517f08c379a0000000000000000000000000000000000000000000000000000000008152600401611c0290613bef565b60405180910390fd5b8060056000611c1861237b565b73ffffffffffffffffffffffffffffffffffffffff1673ffffffffffffffffffffffffffffffffffffffff16815260200190815260200160002060008473ffffffffffffffffffffffffffffffffffffffff1673ffffffffffffffffffffffffffffffffffffffff16815260200190815260200160002060006101000a81548160ff0219169083151502179055508173ffffffffffffffffffffffffffffffffffffffff16611cc561237b565b73ffffffffffffffffffffffffffffffffffffffff167f17307eab39ab6107e8899845ad3d59bd9653f200f220920489ca2b5937696c3183604051611d0a9190613b32565b60405180910390a35050565b611d27611d2161237b565b8361243c565b611d66576040517f08c379a0000000000000000000000000000000000000000000000000000000008152600401611d5d90613d2f565b60405180910390fd5b611d7284848484612776565b50505050565b6060611d838261230f565b611dc2576040517f08c379a0000000000000000000000000000000000000000000000000000000008152600401611db990613cef565b60405180910390fd5b6000611dcc6127d2565b90506000815111611dec5760405180602001604052806000815250611e17565b80611df6846127e9565b604051602001611e079291906139e6565b6040516020818303038152906040525b915050919050565b600b81604051611e2f91906139cf565b908152602001604051809103902060009054906101000a900460ff1615611e5557600080fd5b6000611e5f610998565b90506040518060a001604052808281526020016000815260200183815260200160001515815260200160001515815250600a600083815260200190815260200160002060008201518160000155602082015181600101556040820151816002019080519060200190611ed2929190613209565b5060608201518160030160006101000a81548160ff02191690831515021790555060808201518160030160016101000a81548160ff021916908315150217905550905050611f203382612996565b7fd3e75245cee150d6210fa6a1e69d22044a9bbea479f05e98f2a44b2726739a9181600033426000604051611f59959493929190613e30565b60405180910390a16001600b83604051611f7391906139cf565b908152602001604051809103902060006101000a81548160ff0219169083151502179055505050565b6000600a60008381526020019081526020016000206040518060a00160405290816000820154815260200160018201548152602001600282018054611fe0906141e9565b80601f016020809104026020016040519081016040528092919081815260200182805461200c906141e9565b80156120595780601f1061202e57610100808354040283529160200191612059565b820191906000526020600020905b81548152906001019060200180831161203c57829003601f168201915b505050505081526020016003820160009054906101000a900460ff161515151581526020016003820160019054906101000a900460ff1615151515815250509050806060015180156120ad57508060800151155b6120b657600080fd5b806020015134146120c657600080fd5b60006120d1836113f2565b90508073ffffffffffffffffffffffffffffffffffffffff166108fc349081150290604051600060405180830381858888f19350505050158015612119573d6000803e3d6000fd5b506000600a600085815260200190815260200160002060030160006101000a81548160ff02191690831515021790555061215481338561251a565b7fd3e75245cee150d6210fa6a1e69d22044a9bbea479f05e98f2a44b2726739a9183823342600160405161218c959493929190613ddd565b60405180910390a1505050565b6000600560008473ffffffffffffffffffffffffffffffffffffffff1673ffffffffffffffffffffffffffffffffffffffff16815260200190815260200160002060008373ffffffffffffffffffffffffffffffffffffffff1673ffffffffffffffffffffffffffffffffffffffff16815260200190815260200160002060009054906101000a900460ff16905092915050565b60007f80ac58cd000000000000000000000000000000000000000000000000000000007bffffffffffffffffffffffffffffffffffffffffffffffffffffffff1916827bffffffffffffffffffffffffffffffffffffffffffffffffffffffff191614806122f857507f5b5e139f000000000000000000000000000000000000000000000000000000007bffffffffffffffffffffffffffffffffffffffffffffffffffffffff1916827bffffffffffffffffffffffffffffffffffffffffffffffffffffffff1916145b80612308575061230782612b64565b5b9050919050565b60008073ffffffffffffffffffffffffffffffffffffffff166002600084815260200190815260200160002060009054906101000a900473ffffffffffffffffffffffffffffffffffffffff1673ffffffffffffffffffffffffffffffffffffffff1614159050919050565b600033905090565b816004600083815260200190815260200160002060006101000a81548173ffffffffffffffffffffffffffffffffffffffff021916908373ffffffffffffffffffffffffffffffffffffffff160217905550808273ffffffffffffffffffffffffffffffffffffffff166123f6836113f2565b73ffffffffffffffffffffffffffffffffffffffff167f8c5be1e5ebec7d5bd14f71427d1e84f3dd0314c0f7b2291e5b200ac8c7c3b92560405160405180910390a45050565b60006124478261230f565b612486576040517f08c379a000000000000000000000000000000000000000000000000000000000815260040161247d90613c0f565b60405180910390fd5b6000612491836113f2565b90508073ffffffffffffffffffffffffffffffffffffffff168473ffffffffffffffffffffffffffffffffffffffff16148061250057508373ffffffffffffffffffffffffffffffffffffffff166124e884610778565b73ffffffffffffffffffffffffffffffffffffffff16145b8061251157506125108185612199565b5b91505092915050565b8273ffffffffffffffffffffffffffffffffffffffff1661253a826113f2565b73ffffffffffffffffffffffffffffffffffffffff1614612590576040517f08c379a000000000000000000000000000000000000000000000000000000000815260040161258790613ccf565b60405180910390fd5b600073ffffffffffffffffffffffffffffffffffffffff168273ffffffffffffffffffffffffffffffffffffffff161415612600576040517f08c379a00000000000000000000000000000000000000000000000000000000081526004016125f790613bcf565b60405180910390fd5b61260b838383612bce565b612616600082612383565b6001600360008573ffffffffffffffffffffffffffffffffffffffff1673ffffffffffffffffffffffffffffffffffffffff16815260200190815260200160002060008282546126669190614081565b925050819055506001600360008473ffffffffffffffffffffffffffffffffffffffff1673ffffffffffffffffffffffffffffffffffffffff16815260200190815260200160002060008282546126bd9190613ffa565b92505081905550816002600083815260200190815260200160002060006101000a81548173ffffffffffffffffffffffffffffffffffffffff021916908373ffffffffffffffffffffffffffffffffffffffff160217905550808273ffffffffffffffffffffffffffffffffffffffff168473ffffffffffffffffffffffffffffffffffffffff167fddf252ad1be2c89b69c2b068fc378daa952ba7f163c4a11628f55a4df523b3ef60405160405180910390a4505050565b61278184848461251a565b61278d84848484612ce2565b6127cc576040517f08c379a00000000000000000000000000000000000000000000000000000000081526004016127c390613b8f565b60405180910390fd5b50505050565b606060405180602001604052806000815250905090565b60606000821415612831576040518060400160405280600181526020017f30000000000000000000000000000000000000000000000000000000000000008152509050612991565b600082905060005b6000821461286357808061284c9061424c565b915050600a8261285c9190614050565b9150612839565b60008167ffffffffffffffff8111156128a5577f4e487b7100000000000000000000000000000000000000000000000000000000600052604160045260246000fd5b6040519080825280601f01601f1916602001820160405280156128d75781602001600182028036833780820191505090505b5090505b6000851461298a576001826128f09190614081565b9150600a856128ff9190614295565b603061290b9190613ffa565b60f81b818381518110612947577f4e487b7100000000000000000000000000000000000000000000000000000000600052603260045260246000fd5b60200101907effffffffffffffffffffffffffffffffffffffffffffffffffffffffffffff1916908160001a905350600a856129839190614050565b94506128db565b8093505050505b919050565b600073ffffffffffffffffffffffffffffffffffffffff168273ffffffffffffffffffffffffffffffffffffffff161415612a06576040517f08c379a00000000000000000000000000000000000000000000000000000000081526004016129fd90613c8f565b60405180910390fd5b612a0f8161230f565b15612a4f576040517f08c379a0000000000000000000000000000000000000000000000000000000008152600401612a4690613baf565b60405180910390fd5b612a5b60008383612bce565b6001600360008473ffffffffffffffffffffffffffffffffffffffff1673ffffffffffffffffffffffffffffffffffffffff1681526020019081526020016000206000828254612aab9190613ffa565b92505081905550816002600083815260200190815260200160002060006101000a81548173ffffffffffffffffffffffffffffffffffffffff021916908373ffffffffffffffffffffffffffffffffffffffff160217905550808273ffffffffffffffffffffffffffffffffffffffff16600073ffffffffffffffffffffffffffffffffffffffff167fddf252ad1be2c89b69c2b068fc378daa952ba7f163c4a11628f55a4df523b3ef60405160405180910390a45050565b60007f01ffc9a7000000000000000000000000000000000000000000000000000000007bffffffffffffffffffffffffffffffffffffffffffffffffffffffff1916827bffffffffffffffffffffffffffffffffffffffffffffffffffffffff1916149050919050565b612bd9838383612e79565b600073ffffffffffffffffffffffffffffffffffffffff168373ffffffffffffffffffffffffffffffffffffffff161415612c1c57612c1781612e7e565b612c5b565b8173ffffffffffffffffffffffffffffffffffffffff168373ffffffffffffffffffffffffffffffffffffffff1614612c5a57612c598382612ec7565b5b5b600073ffffffffffffffffffffffffffffffffffffffff168273ffffffffffffffffffffffffffffffffffffffff161415612c9e57612c9981613034565b612cdd565b8273ffffffffffffffffffffffffffffffffffffffff168273ffffffffffffffffffffffffffffffffffffffff1614612cdc57612cdb8282613177565b5b5b505050565b6000612d038473ffffffffffffffffffffffffffffffffffffffff166131f6565b15612e6c578373ffffffffffffffffffffffffffffffffffffffff1663150b7a02612d2c61237b565b8786866040518563ffffffff1660e01b8152600401612d4e9493929190613aa1565b602060405180830381600087803b158015612d6857600080fd5b505af1925050508015612d9957506040513d601f19601f82011682018060405250810190612d9691906135b5565b60015b612e1c573d8060008114612dc9576040519150601f19603f3d011682016040523d82523d6000602084013e612dce565b606091505b50600081511415612e14576040517f08c379a0000000000000000000000000000000000000000000000000000000008152600401612e0b90613b8f565b60405180910390fd5b805181602001fd5b63150b7a0260e01b7bffffffffffffffffffffffffffffffffffffffffffffffffffffffff1916817bffffffffffffffffffffffffffffffffffffffffffffffffffffffff191614915050612e71565b600190505b949350505050565b505050565b6008805490506009600083815260200190815260200160002081905550600881908060018154018082558091505060019003906000526020600020016000909190919091505550565b60006001612ed4846114a4565b612ede9190614081565b9050600060076000848152602001908152602001600020549050818114612fc3576000600660008673ffffffffffffffffffffffffffffffffffffffff1673ffffffffffffffffffffffffffffffffffffffff168152602001908152602001600020600084815260200190815260200160002054905080600660008773ffffffffffffffffffffffffffffffffffffffff1673ffffffffffffffffffffffffffffffffffffffff168152602001908152602001600020600084815260200190815260200160002081905550816007600083815260200190815260200160002081905550505b6007600084815260200190815260200160002060009055600660008573ffffffffffffffffffffffffffffffffffffffff1673ffffffffffffffffffffffffffffffffffffffff16815260200190815260200160002060008381526020019081526020016000206000905550505050565b600060016008805490506130489190614081565b905060006009600084815260200190815260200160002054905060006008838154811061309e577f4e487b7100000000000000000000000000000000000000000000000000000000600052603260045260246000fd5b9060005260206000200154905080600883815481106130e6577f4e487b7100000000000000000000000000000000000000000000000000000000600052603260045260246000fd5b90600052602060002001819055508160096000838152602001908152602001600020819055506009600085815260200190815260200160002060009055600880548061315b577f4e487b7100000000000000000000000000000000000000000000000000000000600052603160045260246000fd5b6001900381819060005260206000200160009055905550505050565b6000613182836114a4565b905081600660008573ffffffffffffffffffffffffffffffffffffffff1673ffffffffffffffffffffffffffffffffffffffff168152602001908152602001600020600083815260200190815260200160002081905550806007600084815260200190815260200160002081905550505050565b600080823b905060008111915050919050565b828054613215906141e9565b90600052602060002090601f016020900481019282613237576000855561327e565b82601f1061325057805160ff191683800117855561327e565b8280016001018555821561327e579182015b8281111561327d578251825591602001919060010190613262565b5b50905061328b919061328f565b5090565b5b808211156132a8576000816000905550600101613290565b5090565b60006132bf6132ba84613f55565b613f30565b9050828152602081018484840111156132d757600080fd5b6132e28482856141a7565b509392505050565b60006132fd6132f884613f86565b613f30565b90508281526020810184848401111561331557600080fd5b6133208482856141a7565b509392505050565b60008135905061333781614811565b92915050565b60008135905061334c81614828565b92915050565b6000813590506133618161483f565b92915050565b6000815190506133768161483f565b92915050565b600082601f83011261338d57600080fd5b813561339d8482602086016132ac565b91505092915050565b600082601f8301126133b757600080fd5b81356133c78482602086016132ea565b91505092915050565b6000813590506133df81614856565b92915050565b6000602082840312156133f757600080fd5b600061340584828501613328565b91505092915050565b6000806040838503121561342157600080fd5b600061342f85828601613328565b925050602061344085828601613328565b9150509250929050565b60008060006060848603121561345f57600080fd5b600061346d86828701613328565b935050602061347e86828701613328565b925050604061348f868287016133d0565b9150509250925092565b600080600080608085870312156134af57600080fd5b60006134bd87828801613328565b94505060206134ce87828801613328565b93505060406134df878288016133d0565b925050606085013567ffffffffffffffff8111156134fc57600080fd5b6135088782880161337c565b91505092959194509250565b6000806040838503121561352757600080fd5b600061353585828601613328565b92505060206135468582860161333d565b9150509250929050565b6000806040838503121561356357600080fd5b600061357185828601613328565b9250506020613582858286016133d0565b9150509250929050565b60006020828403121561359e57600080fd5b60006135ac84828501613352565b91505092915050565b6000602082840312156135c757600080fd5b60006135d584828501613367565b91505092915050565b6000602082840312156135f057600080fd5b600082013567ffffffffffffffff81111561360a57600080fd5b613616848285016133a6565b91505092915050565b60006020828403121561363157600080fd5b600061363f848285016133d0565b91505092915050565b6000806040838503121561365b57600080fd5b6000613669858286016133d0565b925050602061367a858286016133d0565b9150509250929050565b61368d8161413b565b82525050565b61369c816140c7565b82525050565b6136ab816140b5565b82525050565b6136ba816140d9565b82525050565b60006136cb82613fb7565b6136d58185613fcd565b93506136e58185602086016141b6565b6136ee81614382565b840191505092915050565b6137028161414d565b82525050565b6137118161415f565b82525050565b61372081614171565b82525050565b600061373182613fc2565b61373b8185613fde565b935061374b8185602086016141b6565b61375481614382565b840191505092915050565b600061376a82613fc2565b6137748185613fef565b93506137848185602086016141b6565b80840191505092915050565b600061379d602b83613fde565b91506137a882614393565b604082019050919050565b60006137c0603283613fde565b91506137cb826143e2565b604082019050919050565b60006137e3601c83613fde565b91506137ee82614431565b602082019050919050565b6000613806602483613fde565b91506138118261445a565b604082019050919050565b6000613829601983613fde565b9150613834826144a9565b602082019050919050565b600061384c602c83613fde565b9150613857826144d2565b604082019050919050565b600061386f603883613fde565b915061387a82614521565b604082019050919050565b6000613892602a83613fde565b915061389d82614570565b604082019050919050565b60006138b5602983613fde565b91506138c0826145bf565b604082019050919050565b60006138d8602083613fde565b91506138e38261460e565b602082019050919050565b60006138fb602c83613fde565b915061390682614637565b604082019050919050565b600061391e602983613fde565b915061392982614686565b604082019050919050565b6000613941602f83613fde565b915061394c826146d5565b604082019050919050565b6000613964602183613fde565b915061396f82614724565b604082019050919050565b6000613987603183613fde565b915061399282614773565b604082019050919050565b60006139aa602c83613fde565b91506139b5826147c2565b604082019050919050565b6139c981614131565b82525050565b60006139db828461375f565b915081905092915050565b60006139f2828561375f565b91506139fe828461375f565b91508190509392505050565b6000602082019050613a1f60008301846136a2565b92915050565b6000604082019050613a3a6000830185613684565b613a4760208301846139c0565b9392505050565b600060a082019050613a636000830188613693565b613a7060208301876139c0565b613a7d6040830186613693565b613a8a60608301856139c0565b613a9760808301846136b1565b9695505050505050565b6000608082019050613ab660008301876136a2565b613ac360208301866136a2565b613ad060408301856139c0565b8181036060830152613ae281846136c0565b905095945050505050565b6000608082019050613b0260008301876136a2565b613b0f60208301866139c0565b613b1c60408301856139c0565b613b2960608301846139c0565b95945050505050565b6000602082019050613b4760008301846136b1565b92915050565b60006020820190508181036000830152613b678184613726565b905092915050565b60006020820190508181036000830152613b8881613790565b9050919050565b60006020820190508181036000830152613ba8816137b3565b9050919050565b60006020820190508181036000830152613bc8816137d6565b9050919050565b60006020820190508181036000830152613be8816137f9565b9050919050565b60006020820190508181036000830152613c088161381c565b9050919050565b60006020820190508181036000830152613c288161383f565b9050919050565b60006020820190508181036000830152613c4881613862565b9050919050565b60006020820190508181036000830152613c6881613885565b9050919050565b60006020820190508181036000830152613c88816138a8565b9050919050565b60006020820190508181036000830152613ca8816138cb565b9050919050565b60006020820190508181036000830152613cc8816138ee565b9050919050565b60006020820190508181036000830152613ce881613911565b9050919050565b60006020820190508181036000830152613d0881613934565b9050919050565b60006020820190508181036000830152613d2881613957565b9050919050565b60006020820190508181036000830152613d488161397a565b9050919050565b60006020820190508181036000830152613d688161399d565b9050919050565b6000602082019050613d8460008301846139c0565b92915050565b600060a082019050613d9f60008301886139c0565b613dac6020830187613684565b613db96040830186613684565b613dc660608301856139c0565b613dd36080830184613708565b9695505050505050565b600060a082019050613df260008301886139c0565b613dff6020830187613684565b613e0c60408301866136a2565b613e1960608301856139c0565b613e266080830184613708565b9695505050505050565b600060a082019050613e4560008301886139c0565b613e5260208301876136a2565b613e5f60408301866136a2565b613e6c60608301856139c0565b613e7960808301846136f9565b9695505050505050565b600060a082019050613e9860008301886139c0565b613ea560208301876136a2565b613eb260408301866136a2565b613ebf60608301856139c0565b613ecc6080830184613717565b9695505050505050565b600060a082019050613eeb60008301886139c0565b613ef860208301876139c0565b8181036040830152613f0a8186613726565b9050613f1960608301856136b1565b613f2660808301846136b1565b9695505050505050565b6000613f3a613f4b565b9050613f46828261421b565b919050565b6000604051905090565b600067ffffffffffffffff821115613f7057613f6f614353565b5b613f7982614382565b9050602081019050919050565b600067ffffffffffffffff821115613fa157613fa0614353565b5b613faa82614382565b9050602081019050919050565b600081519050919050565b600081519050919050565b600082825260208201905092915050565b600082825260208201905092915050565b600081905092915050565b600061400582614131565b915061401083614131565b9250827fffffffffffffffffffffffffffffffffffffffffffffffffffffffffffffffff03821115614045576140446142c6565b5b828201905092915050565b600061405b82614131565b915061406683614131565b925082614076576140756142f5565b5b828204905092915050565b600061408c82614131565b915061409783614131565b9250828210156140aa576140a96142c6565b5b828203905092915050565b60006140c082614111565b9050919050565b60006140d282614111565b9050919050565b60008115159050919050565b60007fffffffff0000000000000000000000000000000000000000000000000000000082169050919050565b600073ffffffffffffffffffffffffffffffffffffffff82169050919050565b6000819050919050565b600061414682614183565b9050919050565b600061415882614131565b9050919050565b600061416a82614131565b9050919050565b600061417c82614131565b9050919050565b600061418e82614195565b9050919050565b60006141a082614111565b9050919050565b82818337600083830152505050565b60005b838110156141d45780820151818401526020810190506141b9565b838111156141e3576000848401525b50505050565b6000600282049050600182168061420157607f821691505b6020821081141561421557614214614324565b5b50919050565b61422482614382565b810181811067ffffffffffffffff8211171561424357614242614353565b5b80604052505050565b600061425782614131565b91507fffffffffffffffffffffffffffffffffffffffffffffffffffffffffffffffff82141561428a576142896142c6565b5b600182019050919050565b60006142a082614131565b91506142ab83614131565b9250826142bb576142ba6142f5565b5b828206905092915050565b7f4e487b7100000000000000000000000000000000000000000000000000000000600052601160045260246000fd5b7f4e487b7100000000000000000000000000000000000000000000000000000000600052601260045260246000fd5b7f4e487b7100000000000000000000000000000000000000000000000000000000600052602260045260246000fd5b7f4e487b7100000000000000000000000000000000000000000000000000000000600052604160045260246000fd5b6000601f19601f8301169050919050565b7f455243373231456e756d657261626c653a206f776e657220696e646578206f7560008201527f74206f6620626f756e6473000000000000000000000000000000000000000000602082015250565b7f4552433732313a207472616e7366657220746f206e6f6e20455243373231526560008201527f63656976657220696d706c656d656e7465720000000000000000000000000000602082015250565b7f4552433732313a20746f6b656e20616c7265616479206d696e74656400000000600082015250565b7f4552433732313a207472616e7366657220746f20746865207a65726f2061646460008201527f7265737300000000000000000000000000000000000000000000000000000000602082015250565b7f4552433732313a20617070726f766520746f2063616c6c657200000000000000600082015250565b7f4552433732313a206f70657261746f7220717565727920666f72206e6f6e657860008201527f697374656e7420746f6b656e0000000000000000000000000000000000000000602082015250565b7f4552433732313a20617070726f76652063616c6c6572206973206e6f74206f7760008201527f6e6572206e6f7220617070726f76656420666f7220616c6c0000000000000000602082015250565b7f4552433732313a2062616c616e636520717565727920666f7220746865207a6560008201527f726f206164647265737300000000000000000000000000000000000000000000602082015250565b7f4552433732313a206f776e657220717565727920666f72206e6f6e657869737460008201527f656e7420746f6b656e0000000000000000000000000000000000000000000000602082015250565b7f4552433732313a206d696e7420746f20746865207a65726f2061646472657373600082015250565b7f4552433732313a20617070726f76656420717565727920666f72206e6f6e657860008201527f697374656e7420746f6b656e0000000000000000000000000000000000000000602082015250565b7f4552433732313a207472616e73666572206f6620746f6b656e2074686174206960008201527f73206e6f74206f776e0000000000000000000000000000000000000000000000602082015250565b7f4552433732314d657461646174613a2055524920717565727920666f72206e6f60008201527f6e6578697374656e7420746f6b656e0000000000000000000000000000000000602082015250565b7f4552433732313a20617070726f76616c20746f2063757272656e74206f776e6560008201527f7200000000000000000000000000000000000000000000000000000000000000602082015250565b7f4552433732313a207472616e736665722063616c6c6572206973206e6f74206f60008201527f776e6572206e6f7220617070726f766564000000000000000000000000000000602082015250565b7f455243373231456e756d657261626c653a20676c6f62616c20696e646578206f60008201527f7574206f6620626f756e64730000000000000000000000000000000000000000602082015250565b61481a816140b5565b811461482557600080fd5b50565b614831816140d9565b811461483c57600080fd5b50565b614848816140e5565b811461485357600080fd5b50565b61485f81614131565b811461486a57600080fd5b5056fea2646970667358221220089b8c483907cf34df69cd414285e6f86c8a7a1667ba111eaa337c0e9db4b52b64736f6c63430008040033",
  "immutableReferences": {},
  "source": "pragma solidity ^0.8.0;\r\n\r\nimport \"../../node_modules/@openzeppelin/contracts/token/ERC721/ERC721.sol\";\r\nimport \"../../node_modules/@openzeppelin/contracts//token/ERC721/extensions/ERC721Enumerable.sol\";\r\n\r\ncontract Card is ERC721Enumerable {\r\n    struct Token {\r\n        uint256 id;\r\n        uint256 price;\r\n        string card;\r\n        bool listed;\r\n        bool onAuction;\r\n    }\r\n\r\n    struct Auction {\r\n        address payable beneficiary;\r\n        uint256 auctionEndTime;\r\n        address payable highestBidder;\r\n        uint256 highestBid;\r\n        bool ended;\r\n    }\r\n\r\n    mapping(uint256 => Token) public cards;\r\n    mapping(string => bool) _cardExists;\r\n    mapping(uint256 => Auction) public auction;\r\n\r\n    constructor() ERC721(\"Card\", \"CARD\") {}\r\n\r\n    event transfers(\r\n        uint256 id,\r\n        address from,\r\n        address to,\r\n        uint256 time,\r\n        uint256 eve\r\n    );\r\n\r\n    event HighestBidIncreased(\r\n        address bidder,\r\n        uint256 amount,\r\n        uint256 id,\r\n        uint256 endTime\r\n    );\r\n    event AuctionEnded(address winner, uint256 amount);\r\n\r\n    error AuctionAlreadyEnded();\r\n    error BidNotHighEnough(uint256 highestBid);\r\n    error AuctionNotYetEnded();\r\n    error AuctionEndAlreadyCalled();\r\n\r\n    function mint(string memory _card) public {\r\n        require(!_cardExists[_card]);\r\n        uint256 _id = totalSupply();\r\n        cards[_id] = Token(_id, 0, _card, false, false);\r\n        _mint(msg.sender, _id);\r\n        emit transfers(_id, address(0), msg.sender, block.timestamp, 0);\r\n        _cardExists[_card] = true;\r\n    }\r\n\r\n    function buy(uint256 _id) public payable {\r\n        Token memory _token = cards[_id];\r\n        require(_token.listed && !_token.onAuction);\r\n        require(msg.value == _token.price);\r\n        address payable _owner = payable(ownerOf(_id));\r\n        _owner.transfer(msg.value);\r\n        cards[_id].listed = false;\r\n        _transfer(_owner, msg.sender, _id);\r\n        emit transfers(_id, _owner, msg.sender, block.timestamp, 1);\r\n    }\r\n\r\n    function gift(\r\n        address _from,\r\n        address _to,\r\n        uint256 _id\r\n    ) public {\r\n        Token memory _token = cards[_id];\r\n        require(!_token.listed && !_token.onAuction);\r\n        _transfer(_from, _to, _id);\r\n        emit transfers(_id, _from, _to, block.timestamp, 2);\r\n    }\r\n\r\n    function putOnAuction(uint256 _id, uint256 timestamp) public {\r\n        require(ownerOf(_id) == msg.sender);\r\n        require(!cards[_id].listed);\r\n        cards[_id].onAuction = true;\r\n        auction[_id] = Auction(\r\n            payable(msg.sender),\r\n            timestamp,\r\n            payable(msg.sender),\r\n            0,\r\n            false\r\n        );\r\n    }\r\n\r\n    function list(uint256 _id, uint256 price) public {\r\n        Token memory _token = cards[_id];\r\n        address _owner = ownerOf(_id);\r\n        require(_owner == msg.sender);\r\n        require(!_token.listed && !_token.onAuction);\r\n        cards[_id].listed = true;\r\n        cards[_id].price = price;\r\n    }\r\n\r\n    function delist(uint256 _id) public {\r\n        Token memory _token = cards[_id];\r\n        require(_token.listed && !_token.onAuction);\r\n        address _owner = ownerOf(_id);\r\n        require(_owner == msg.sender);\r\n        cards[_id].listed = false;\r\n    }\r\n\r\n    function bid(uint256 _id) public payable {\r\n        if (block.timestamp > auction[_id].auctionEndTime)\r\n            revert AuctionAlreadyEnded();\r\n\r\n        if (msg.value <= auction[_id].highestBid)\r\n            revert BidNotHighEnough(auction[_id].highestBid);\r\n\r\n        if (auction[_id].highestBid != 0) {\r\n            auction[_id].highestBidder.transfer(auction[_id].highestBid);\r\n        }\r\n        auction[_id].highestBidder = payable(msg.sender);\r\n        auction[_id].highestBid = msg.value;\r\n        emit HighestBidIncreased(\r\n            msg.sender,\r\n            msg.value,\r\n            _id,\r\n            auction[_id].auctionEndTime\r\n        );\r\n    }\r\n\r\n    function auctionEnd(uint256 _id) public {\r\n        if (block.timestamp < auction[_id].auctionEndTime)\r\n            revert AuctionNotYetEnded();\r\n        if (auction[_id].ended) revert AuctionEndAlreadyCalled();\r\n        require(\r\n            msg.sender == auction[_id].beneficiary ||\r\n                msg.sender == auction[_id].highestBidder\r\n        );\r\n\r\n        auction[_id].ended = true;\r\n        emit AuctionEnded(auction[_id].highestBidder, auction[_id].highestBid);\r\n\r\n        auction[_id].beneficiary.transfer(auction[_id].highestBid);\r\n        _transfer(auction[_id].beneficiary, auction[_id].highestBidder, _id);\r\n        emit transfers(\r\n            _id,\r\n            auction[_id].beneficiary,\r\n            auction[_id].highestBidder,\r\n            block.timestamp,\r\n            1\r\n        );\r\n        cards[_id].onAuction = false;\r\n        delete auction[_id];\r\n    }\r\n}\r\n",
  "sourcePath": "C:/Users/Sachin/Desktop/nft/src/contracts/Card.sol",
  "compiler": {
    "name": "solc",
    "version": "0.8.4+commit.c7e474f2.Emscripten.clang"
  },
  "schemaVersion": "3.4.1",
  "updatedAt": "2021-07-14T06:52:47.213Z",
  "networkType": "ethereum",
  "devdoc": {
    "kind": "dev",
    "methods": {
      "approve(address,uint256)": {
        "details": "See {IERC721-approve}."
      },
      "balanceOf(address)": {
        "details": "See {IERC721-balanceOf}."
      },
      "getApproved(uint256)": {
        "details": "See {IERC721-getApproved}."
      },
      "isApprovedForAll(address,address)": {
        "details": "See {IERC721-isApprovedForAll}."
      },
      "name()": {
        "details": "See {IERC721Metadata-name}."
      },
      "ownerOf(uint256)": {
        "details": "See {IERC721-ownerOf}."
      },
      "safeTransferFrom(address,address,uint256)": {
        "details": "See {IERC721-safeTransferFrom}."
      },
      "safeTransferFrom(address,address,uint256,bytes)": {
        "details": "See {IERC721-safeTransferFrom}."
      },
      "setApprovalForAll(address,bool)": {
        "details": "See {IERC721-setApprovalForAll}."
      },
      "supportsInterface(bytes4)": {
        "details": "See {IERC165-supportsInterface}."
      },
      "symbol()": {
        "details": "See {IERC721Metadata-symbol}."
      },
      "tokenByIndex(uint256)": {
        "details": "See {IERC721Enumerable-tokenByIndex}."
      },
      "tokenOfOwnerByIndex(address,uint256)": {
        "details": "See {IERC721Enumerable-tokenOfOwnerByIndex}."
      },
      "tokenURI(uint256)": {
        "details": "See {IERC721Metadata-tokenURI}."
      },
      "totalSupply()": {
        "details": "See {IERC721Enumerable-totalSupply}."
      },
      "transferFrom(address,address,uint256)": {
        "details": "See {IERC721-transferFrom}."
      }
    },
    "version": 1
  },
  "userdoc": {
    "kind": "user",
    "methods": {},
    "version": 1
  }
}