{
  "contractName": "Card",
  "abi": [
    {
      "inputs": [],
      "stateMutability": "nonpayable",
      "type": "constructor"
    },
    {
      "anonymous": false,
      "inputs": [
        {
          "indexed": true,
          "internalType": "address",
          "name": "owner",
          "type": "address"
        },
        {
          "indexed": true,
          "internalType": "address",
          "name": "approved",
          "type": "address"
        },
        {
          "indexed": true,
          "internalType": "uint256",
          "name": "tokenId",
          "type": "uint256"
        }
      ],
      "name": "Approval",
      "type": "event"
    },
    {
      "anonymous": false,
      "inputs": [
        {
          "indexed": true,
          "internalType": "address",
          "name": "owner",
          "type": "address"
        },
        {
          "indexed": true,
          "internalType": "address",
          "name": "operator",
          "type": "address"
        },
        {
          "indexed": false,
          "internalType": "bool",
          "name": "approved",
          "type": "bool"
        }
      ],
      "name": "ApprovalForAll",
      "type": "event"
    },
    {
      "anonymous": false,
      "inputs": [
        {
          "indexed": true,
          "internalType": "address",
          "name": "from",
          "type": "address"
        },
        {
          "indexed": true,
          "internalType": "address",
          "name": "to",
          "type": "address"
        },
        {
          "indexed": true,
          "internalType": "uint256",
          "name": "tokenId",
          "type": "uint256"
        }
      ],
      "name": "Transfer",
      "type": "event"
    },
    {
      "anonymous": false,
      "inputs": [
        {
          "indexed": false,
          "internalType": "uint256",
          "name": "id",
          "type": "uint256"
        },
        {
          "indexed": false,
          "internalType": "address",
          "name": "from",
          "type": "address"
        },
        {
          "indexed": false,
          "internalType": "address",
          "name": "to",
          "type": "address"
        },
        {
          "indexed": false,
          "internalType": "uint256",
          "name": "time",
          "type": "uint256"
        },
        {
          "indexed": false,
          "internalType": "uint256",
          "name": "eve",
          "type": "uint256"
        }
      ],
      "name": "transfer",
      "type": "event"
    },
    {
      "inputs": [
        {
          "internalType": "address",
          "name": "to",
          "type": "address"
        },
        {
          "internalType": "uint256",
          "name": "tokenId",
          "type": "uint256"
        }
      ],
      "name": "approve",
      "outputs": [],
      "stateMutability": "nonpayable",
      "type": "function"
    },
    {
      "inputs": [
        {
          "internalType": "address",
          "name": "owner",
          "type": "address"
        }
      ],
      "name": "balanceOf",
      "outputs": [
        {
          "internalType": "uint256",
          "name": "",
          "type": "uint256"
        }
      ],
      "stateMutability": "view",
      "type": "function",
      "constant": true
    },
    {
      "inputs": [
        {
          "internalType": "uint256",
          "name": "",
          "type": "uint256"
        }
      ],
      "name": "cards",
      "outputs": [
        {
          "internalType": "uint256",
          "name": "id",
          "type": "uint256"
        },
        {
          "internalType": "uint256",
          "name": "price",
          "type": "uint256"
        },
        {
          "internalType": "string",
          "name": "card",
          "type": "string"
        },
        {
          "internalType": "bool",
          "name": "listed",
          "type": "bool"
        }
      ],
      "stateMutability": "view",
      "type": "function",
      "constant": true
    },
    {
      "inputs": [
        {
          "internalType": "uint256",
          "name": "tokenId",
          "type": "uint256"
        }
      ],
      "name": "getApproved",
      "outputs": [
        {
          "internalType": "address",
          "name": "",
          "type": "address"
        }
      ],
      "stateMutability": "view",
      "type": "function",
      "constant": true
    },
    {
      "inputs": [
        {
          "internalType": "address",
          "name": "owner",
          "type": "address"
        },
        {
          "internalType": "address",
          "name": "operator",
          "type": "address"
        }
      ],
      "name": "isApprovedForAll",
      "outputs": [
        {
          "internalType": "bool",
          "name": "",
          "type": "bool"
        }
      ],
      "stateMutability": "view",
      "type": "function",
      "constant": true
    },
    {
      "inputs": [],
      "name": "name",
      "outputs": [
        {
          "internalType": "string",
          "name": "",
          "type": "string"
        }
      ],
      "stateMutability": "view",
      "type": "function",
      "constant": true
    },
    {
      "inputs": [
        {
          "internalType": "uint256",
          "name": "tokenId",
          "type": "uint256"
        }
      ],
      "name": "ownerOf",
      "outputs": [
        {
          "internalType": "address",
          "name": "",
          "type": "address"
        }
      ],
      "stateMutability": "view",
      "type": "function",
      "constant": true
    },
    {
      "inputs": [
        {
          "internalType": "address",
          "name": "from",
          "type": "address"
        },
        {
          "internalType": "address",
          "name": "to",
          "type": "address"
        },
        {
          "internalType": "uint256",
          "name": "tokenId",
          "type": "uint256"
        }
      ],
      "name": "safeTransferFrom",
      "outputs": [],
      "stateMutability": "nonpayable",
      "type": "function"
    },
    {
      "inputs": [
        {
          "internalType": "address",
          "name": "from",
          "type": "address"
        },
        {
          "internalType": "address",
          "name": "to",
          "type": "address"
        },
        {
          "internalType": "uint256",
          "name": "tokenId",
          "type": "uint256"
        },
        {
          "internalType": "bytes",
          "name": "_data",
          "type": "bytes"
        }
      ],
      "name": "safeTransferFrom",
      "outputs": [],
      "stateMutability": "nonpayable",
      "type": "function"
    },
    {
      "inputs": [
        {
          "internalType": "address",
          "name": "operator",
          "type": "address"
        },
        {
          "internalType": "bool",
          "name": "approved",
          "type": "bool"
        }
      ],
      "name": "setApprovalForAll",
      "outputs": [],
      "stateMutability": "nonpayable",
      "type": "function"
    },
    {
      "inputs": [
        {
          "internalType": "bytes4",
          "name": "interfaceId",
          "type": "bytes4"
        }
      ],
      "name": "supportsInterface",
      "outputs": [
        {
          "internalType": "bool",
          "name": "",
          "type": "bool"
        }
      ],
      "stateMutability": "view",
      "type": "function",
      "constant": true
    },
    {
      "inputs": [],
      "name": "symbol",
      "outputs": [
        {
          "internalType": "string",
          "name": "",
          "type": "string"
        }
      ],
      "stateMutability": "view",
      "type": "function",
      "constant": true
    },
    {
      "inputs": [
        {
          "internalType": "uint256",
          "name": "index",
          "type": "uint256"
        }
      ],
      "name": "tokenByIndex",
      "outputs": [
        {
          "internalType": "uint256",
          "name": "",
          "type": "uint256"
        }
      ],
      "stateMutability": "view",
      "type": "function",
      "constant": true
    },
    {
      "inputs": [
        {
          "internalType": "address",
          "name": "owner",
          "type": "address"
        },
        {
          "internalType": "uint256",
          "name": "index",
          "type": "uint256"
        }
      ],
      "name": "tokenOfOwnerByIndex",
      "outputs": [
        {
          "internalType": "uint256",
          "name": "",
          "type": "uint256"
        }
      ],
      "stateMutability": "view",
      "type": "function",
      "constant": true
    },
    {
      "inputs": [
        {
          "internalType": "uint256",
          "name": "tokenId",
          "type": "uint256"
        }
      ],
      "name": "tokenURI",
      "outputs": [
        {
          "internalType": "string",
          "name": "",
          "type": "string"
        }
      ],
      "stateMutability": "view",
      "type": "function",
      "constant": true
    },
    {
      "inputs": [],
      "name": "totalSupply",
      "outputs": [
        {
          "internalType": "uint256",
          "name": "",
          "type": "uint256"
        }
      ],
      "stateMutability": "view",
      "type": "function",
      "constant": true
    },
    {
      "inputs": [
        {
          "internalType": "address",
          "name": "from",
          "type": "address"
        },
        {
          "internalType": "address",
          "name": "to",
          "type": "address"
        },
        {
          "internalType": "uint256",
          "name": "tokenId",
          "type": "uint256"
        }
      ],
      "name": "transferFrom",
      "outputs": [],
      "stateMutability": "nonpayable",
      "type": "function"
    },
    {
      "inputs": [
        {
          "internalType": "string",
          "name": "_card",
          "type": "string"
        },
        {
          "internalType": "uint256",
          "name": "_price",
          "type": "uint256"
        }
      ],
      "name": "mint",
      "outputs": [],
      "stateMutability": "nonpayable",
      "type": "function"
    },
    {
      "inputs": [
        {
          "internalType": "uint256",
          "name": "_id",
          "type": "uint256"
        }
      ],
      "name": "buy",
      "outputs": [],
      "stateMutability": "payable",
      "type": "function",
      "payable": true
    },
    {
      "inputs": [
        {
          "internalType": "address",
          "name": "_from",
          "type": "address"
        },
        {
          "internalType": "address",
          "name": "_to",
          "type": "address"
        },
        {
          "internalType": "uint256",
          "name": "_id",
          "type": "uint256"
        }
      ],
      "name": "gift",
      "outputs": [],
      "stateMutability": "nonpayable",
      "type": "function"
    },
    {
      "inputs": [
        {
          "internalType": "uint256",
          "name": "_id",
          "type": "uint256"
        },
        {
          "internalType": "uint256",
          "name": "price",
          "type": "uint256"
        }
      ],
      "name": "list",
      "outputs": [],
      "stateMutability": "nonpayable",
      "type": "function"
    },
    {
      "inputs": [
        {
          "internalType": "uint256",
          "name": "_id",
          "type": "uint256"
        }
      ],
      "name": "delist",
      "outputs": [],
      "stateMutability": "nonpayable",
      "type": "function"
    }
  ],
  "bytecode": "0x60806040523480156200001157600080fd5b506040518060400160405280600481526020017f43617264000000000000000000000000000000000000000000000000000000008152506040518060400160405280600481526020017f4341524400000000000000000000000000000000000000000000000000000000815250816000908051906020019062000096929190620000b8565b508060019080519060200190620000af929190620000b8565b505050620001cd565b828054620000c69062000168565b90600052602060002090601f016020900481019282620000ea576000855562000136565b82601f106200010557805160ff191683800117855562000136565b8280016001018555821562000136579182015b828111156200013557825182559160200191906001019062000118565b5b50905062000145919062000149565b5090565b5b80821115620001645760008160009055506001016200014a565b5090565b600060028204905060018216806200018157607f821691505b602082108114156200019857620001976200019e565b5b50919050565b7f4e487b7100000000000000000000000000000000000000000000000000000000600052602260045260246000fd5b61397d80620001dd6000396000f3fe6080604052600436106101355760003560e01c80636352211e116100ab578063964bc33f1161006f578063964bc33f1461045f578063a22cb46514610488578063b88d4fde146104b1578063c87b56dd146104da578063d96a094a14610517578063e985e9c51461053357610135565b80636352211e1461035157806370a082311461038e5780638dc10768146103cb57806395d89b411461040b57806395dbee2d1461043657610135565b806318160ddd116100fd57806318160ddd1461023157806323b872dd1461025c5780632f745c591461028557806342842e0e146102c25780634f6ccce7146102eb57806350fd73671461032857610135565b806301ffc9a71461013a578063056b01ce1461017757806306fdde03146101a0578063081812fc146101cb578063095ea7b314610208575b600080fd5b34801561014657600080fd5b50610161600480360381019061015c9190612796565b610570565b60405161016e9190612c7f565b60405180910390f35b34801561018357600080fd5b5061019e600480360381019061019991906127e8565b6105ea565b005b3480156101ac57600080fd5b506101b561073e565b6040516101c29190612c9a565b60405180910390f35b3480156101d757600080fd5b506101f260048036038101906101ed919061283c565b6107d0565b6040516101ff9190612c18565b60405180910390f35b34801561021457600080fd5b5061022f600480360381019061022a919061275a565b610855565b005b34801561023d57600080fd5b5061024661096d565b6040516102539190612ebc565b60405180910390f35b34801561026857600080fd5b50610283600480360381019061027e9190612654565b61097a565b005b34801561029157600080fd5b506102ac60048036038101906102a7919061275a565b6109da565b6040516102b99190612ebc565b60405180910390f35b3480156102ce57600080fd5b506102e960048036038101906102e49190612654565b610a7f565b005b3480156102f757600080fd5b50610312600480360381019061030d919061283c565b610a9f565b60405161031f9190612ebc565b60405180910390f35b34801561033457600080fd5b5061034f600480360381019061034a9190612865565b610b36565b005b34801561035d57600080fd5b506103786004803603810190610373919061283c565b610bca565b6040516103859190612c18565b60405180910390f35b34801561039a57600080fd5b506103b560048036038101906103b091906125ef565b610c7c565b6040516103c29190612ebc565b60405180910390f35b3480156103d757600080fd5b506103f260048036038101906103ed919061283c565b610d34565b6040516104029493929190612fd0565b60405180910390f35b34801561041757600080fd5b50610420610df9565b60405161042d9190612c9a565b60405180910390f35b34801561044257600080fd5b5061045d60048036038101906104589190612654565b610e8b565b005b34801561046b57600080fd5b506104866004803603810190610481919061283c565b610edb565b005b34801561049457600080fd5b506104af60048036038101906104aa919061271e565b610f53565b005b3480156104bd57600080fd5b506104d860048036038101906104d391906126a3565b6110d4565b005b3480156104e657600080fd5b5061050160048036038101906104fc919061283c565b611136565b60405161050e9190612c9a565b60405180910390f35b610531600480360381019061052c919061283c565b6111dd565b005b34801561053f57600080fd5b5061055a60048036038101906105559190612618565b6113a3565b6040516105679190612c7f565b60405180910390f35b60007f780e9d63000000000000000000000000000000000000000000000000000000007bffffffffffffffffffffffffffffffffffffffffffffffffffffffff1916827bffffffffffffffffffffffffffffffffffffffffffffffffffffffff191614806105e357506105e282611437565b5b9050919050565b600b826040516105fa9190612bdd565b908152602001604051809103902060009054906101000a900460ff161561062057600080fd5b600061062a61096d565b9050604051806080016040528082815260200183815260200184815260200160011515815250600a600083815260200190815260200160002060008201518160000155602082015181600101556040820151816002019080519060200190610693929190612413565b5060608201518160030160006101000a81548160ff0219169083151502179055509050506106c13382611519565b7f9eb27331e4c5425126e7e41d53889ab5b3a2de949c8dac4e4339edf6c9c34d17816000334260006040516106fa959493929190612f2a565b60405180910390a16001600b846040516107149190612bdd565b908152602001604051809103902060006101000a81548160ff021916908315150217905550505050565b60606000805461074d906132c3565b80601f0160208091040260200160405190810160405280929190818152602001828054610779906132c3565b80156107c65780601f1061079b576101008083540402835291602001916107c6565b820191906000526020600020905b8154815290600101906020018083116107a957829003601f168201915b5050505050905090565b60006107db826116e7565b61081a576040517f08c379a000000000000000000000000000000000000000000000000000000000815260040161081190612dfc565b60405180910390fd5b6004600083815260200190815260200160002060009054906101000a900473ffffffffffffffffffffffffffffffffffffffff169050919050565b600061086082610bca565b90508073ffffffffffffffffffffffffffffffffffffffff168373ffffffffffffffffffffffffffffffffffffffff1614156108d1576040517f08c379a00000000000000000000000000000000000000000000000000000000081526004016108c890612e5c565b60405180910390fd5b8073ffffffffffffffffffffffffffffffffffffffff166108f0611753565b73ffffffffffffffffffffffffffffffffffffffff16148061091f575061091e81610919611753565b6113a3565b5b61095e576040517f08c379a000000000000000000000000000000000000000000000000000000000815260040161095590612d7c565b60405180910390fd5b610968838361175b565b505050565b6000600880549050905090565b61098b610985611753565b82611814565b6109ca576040517f08c379a00000000000000000000000000000000000000000000000000000000081526004016109c190612e7c565b60405180910390fd5b6109d58383836118f2565b505050565b60006109e583610c7c565b8210610a26576040517f08c379a0000000000000000000000000000000000000000000000000000000008152600401610a1d90612cbc565b60405180910390fd5b600660008473ffffffffffffffffffffffffffffffffffffffff1673ffffffffffffffffffffffffffffffffffffffff168152602001908152602001600020600083815260200190815260200160002054905092915050565b610a9a838383604051806020016040528060008152506110d4565b505050565b6000610aa961096d565b8210610aea576040517f08c379a0000000000000000000000000000000000000000000000000000000008152600401610ae190612e9c565b60405180910390fd5b60088281548110610b24577f4e487b7100000000000000000000000000000000000000000000000000000000600052603260045260246000fd5b90600052602060002001549050919050565b6000610b4183610bca565b90503373ffffffffffffffffffffffffffffffffffffffff168173ffffffffffffffffffffffffffffffffffffffff1614610b7b57600080fd5b6001600a600085815260200190815260200160002060030160006101000a81548160ff02191690831515021790555081600a600085815260200190815260200160002060010181905550505050565b6000806002600084815260200190815260200160002060009054906101000a900473ffffffffffffffffffffffffffffffffffffffff169050600073ffffffffffffffffffffffffffffffffffffffff168173ffffffffffffffffffffffffffffffffffffffff161415610c73576040517f08c379a0000000000000000000000000000000000000000000000000000000008152600401610c6a90612dbc565b60405180910390fd5b80915050919050565b60008073ffffffffffffffffffffffffffffffffffffffff168273ffffffffffffffffffffffffffffffffffffffff161415610ced576040517f08c379a0000000000000000000000000000000000000000000000000000000008152600401610ce490612d9c565b60405180910390fd5b600360008373ffffffffffffffffffffffffffffffffffffffff1673ffffffffffffffffffffffffffffffffffffffff168152602001908152602001600020549050919050565b600a602052806000526040600020600091509050806000015490806001015490806002018054610d63906132c3565b80601f0160208091040260200160405190810160405280929190818152602001828054610d8f906132c3565b8015610ddc5780601f10610db157610100808354040283529160200191610ddc565b820191906000526020600020905b815481529060010190602001808311610dbf57829003601f168201915b5050505050908060030160009054906101000a900460ff16905084565b606060018054610e08906132c3565b80601f0160208091040260200160405190810160405280929190818152602001828054610e34906132c3565b8015610e815780601f10610e5657610100808354040283529160200191610e81565b820191906000526020600020905b815481529060010190602001808311610e6457829003601f168201915b5050505050905090565b610e968383836118f2565b7f9eb27331e4c5425126e7e41d53889ab5b3a2de949c8dac4e4339edf6c9c34d17818484426002604051610ece959493929190612f7d565b60405180910390a1505050565b6000610ee682610bca565b90503373ffffffffffffffffffffffffffffffffffffffff168173ffffffffffffffffffffffffffffffffffffffff1614610f2057600080fd5b6000600a600084815260200190815260200160002060030160006101000a81548160ff0219169083151502179055505050565b610f5b611753565b73ffffffffffffffffffffffffffffffffffffffff168273ffffffffffffffffffffffffffffffffffffffff161415610fc9576040517f08c379a0000000000000000000000000000000000000000000000000000000008152600401610fc090612d3c565b60405180910390fd5b8060056000610fd6611753565b73ffffffffffffffffffffffffffffffffffffffff1673ffffffffffffffffffffffffffffffffffffffff16815260200190815260200160002060008473ffffffffffffffffffffffffffffffffffffffff1673ffffffffffffffffffffffffffffffffffffffff16815260200190815260200160002060006101000a81548160ff0219169083151502179055508173ffffffffffffffffffffffffffffffffffffffff16611083611753565b73ffffffffffffffffffffffffffffffffffffffff167f17307eab39ab6107e8899845ad3d59bd9653f200f220920489ca2b5937696c31836040516110c89190612c7f565b60405180910390a35050565b6110e56110df611753565b83611814565b611124576040517f08c379a000000000000000000000000000000000000000000000000000000000815260040161111b90612e7c565b60405180910390fd5b61113084848484611b4e565b50505050565b6060611141826116e7565b611180576040517f08c379a000000000000000000000000000000000000000000000000000000000815260040161117790612e3c565b60405180910390fd5b600061118a611baa565b905060008151116111aa57604051806020016040528060008152506111d5565b806111b484611bc1565b6040516020016111c5929190612bf4565b6040516020818303038152906040525b915050919050565b6000600a60008381526020019081526020016000206040518060800160405290816000820154815260200160018201548152602001600282018054611221906132c3565b80601f016020809104026020016040519081016040528092919081815260200182805461124d906132c3565b801561129a5780601f1061126f5761010080835404028352916020019161129a565b820191906000526020600020905b81548152906001019060200180831161127d57829003601f168201915b505050505081526020016003820160009054906101000a900460ff1615151515815250509050806020015134146112d057600080fd5b60006112db83610bca565b90508073ffffffffffffffffffffffffffffffffffffffff166108fc349081150290604051600060405180830381858888f19350505050158015611323573d6000803e3d6000fd5b506000600a600085815260200190815260200160002060030160006101000a81548160ff02191690831515021790555061135e8133856118f2565b7f9eb27331e4c5425126e7e41d53889ab5b3a2de949c8dac4e4339edf6c9c34d17838233426001604051611396959493929190612ed7565b60405180910390a1505050565b6000600560008473ffffffffffffffffffffffffffffffffffffffff1673ffffffffffffffffffffffffffffffffffffffff16815260200190815260200160002060008373ffffffffffffffffffffffffffffffffffffffff1673ffffffffffffffffffffffffffffffffffffffff16815260200190815260200160002060009054906101000a900460ff16905092915050565b60007f80ac58cd000000000000000000000000000000000000000000000000000000007bffffffffffffffffffffffffffffffffffffffffffffffffffffffff1916827bffffffffffffffffffffffffffffffffffffffffffffffffffffffff1916148061150257507f5b5e139f000000000000000000000000000000000000000000000000000000007bffffffffffffffffffffffffffffffffffffffffffffffffffffffff1916827bffffffffffffffffffffffffffffffffffffffffffffffffffffffff1916145b80611512575061151182611d6e565b5b9050919050565b600073ffffffffffffffffffffffffffffffffffffffff168273ffffffffffffffffffffffffffffffffffffffff161415611589576040517f08c379a000000000000000000000000000000000000000000000000000000000815260040161158090612ddc565b60405180910390fd5b611592816116e7565b156115d2576040517f08c379a00000000000000000000000000000000000000000000000000000000081526004016115c990612cfc565b60405180910390fd5b6115de60008383611dd8565b6001600360008473ffffffffffffffffffffffffffffffffffffffff1673ffffffffffffffffffffffffffffffffffffffff168152602001908152602001600020600082825461162e91906130e6565b92505081905550816002600083815260200190815260200160002060006101000a81548173ffffffffffffffffffffffffffffffffffffffff021916908373ffffffffffffffffffffffffffffffffffffffff160217905550808273ffffffffffffffffffffffffffffffffffffffff16600073ffffffffffffffffffffffffffffffffffffffff167fddf252ad1be2c89b69c2b068fc378daa952ba7f163c4a11628f55a4df523b3ef60405160405180910390a45050565b60008073ffffffffffffffffffffffffffffffffffffffff166002600084815260200190815260200160002060009054906101000a900473ffffffffffffffffffffffffffffffffffffffff1673ffffffffffffffffffffffffffffffffffffffff1614159050919050565b600033905090565b816004600083815260200190815260200160002060006101000a81548173ffffffffffffffffffffffffffffffffffffffff021916908373ffffffffffffffffffffffffffffffffffffffff160217905550808273ffffffffffffffffffffffffffffffffffffffff166117ce83610bca565b73ffffffffffffffffffffffffffffffffffffffff167f8c5be1e5ebec7d5bd14f71427d1e84f3dd0314c0f7b2291e5b200ac8c7c3b92560405160405180910390a45050565b600061181f826116e7565b61185e576040517f08c379a000000000000000000000000000000000000000000000000000000000815260040161185590612d5c565b60405180910390fd5b600061186983610bca565b90508073ffffffffffffffffffffffffffffffffffffffff168473ffffffffffffffffffffffffffffffffffffffff1614806118d857508373ffffffffffffffffffffffffffffffffffffffff166118c0846107d0565b73ffffffffffffffffffffffffffffffffffffffff16145b806118e957506118e881856113a3565b5b91505092915050565b8273ffffffffffffffffffffffffffffffffffffffff1661191282610bca565b73ffffffffffffffffffffffffffffffffffffffff1614611968576040517f08c379a000000000000000000000000000000000000000000000000000000000815260040161195f90612e1c565b60405180910390fd5b600073ffffffffffffffffffffffffffffffffffffffff168273ffffffffffffffffffffffffffffffffffffffff1614156119d8576040517f08c379a00000000000000000000000000000000000000000000000000000000081526004016119cf90612d1c565b60405180910390fd5b6119e3838383611dd8565b6119ee60008261175b565b6001600360008573ffffffffffffffffffffffffffffffffffffffff1673ffffffffffffffffffffffffffffffffffffffff1681526020019081526020016000206000828254611a3e919061316d565b925050819055506001600360008473ffffffffffffffffffffffffffffffffffffffff1673ffffffffffffffffffffffffffffffffffffffff1681526020019081526020016000206000828254611a9591906130e6565b92505081905550816002600083815260200190815260200160002060006101000a81548173ffffffffffffffffffffffffffffffffffffffff021916908373ffffffffffffffffffffffffffffffffffffffff160217905550808273ffffffffffffffffffffffffffffffffffffffff168473ffffffffffffffffffffffffffffffffffffffff167fddf252ad1be2c89b69c2b068fc378daa952ba7f163c4a11628f55a4df523b3ef60405160405180910390a4505050565b611b598484846118f2565b611b6584848484611eec565b611ba4576040517f08c379a0000000000000000000000000000000000000000000000000000000008152600401611b9b90612cdc565b60405180910390fd5b50505050565b606060405180602001604052806000815250905090565b60606000821415611c09576040518060400160405280600181526020017f30000000000000000000000000000000000000000000000000000000000000008152509050611d69565b600082905060005b60008214611c3b578080611c2490613326565b915050600a82611c34919061313c565b9150611c11565b60008167ffffffffffffffff811115611c7d577f4e487b7100000000000000000000000000000000000000000000000000000000600052604160045260246000fd5b6040519080825280601f01601f191660200182016040528015611caf5781602001600182028036833780820191505090505b5090505b60008514611d6257600182611cc8919061316d565b9150600a85611cd7919061336f565b6030611ce391906130e6565b60f81b818381518110611d1f577f4e487b7100000000000000000000000000000000000000000000000000000000600052603260045260246000fd5b60200101907effffffffffffffffffffffffffffffffffffffffffffffffffffffffffffff1916908160001a905350600a85611d5b919061313c565b9450611cb3565b8093505050505b919050565b60007f01ffc9a7000000000000000000000000000000000000000000000000000000007bffffffffffffffffffffffffffffffffffffffffffffffffffffffff1916827bffffffffffffffffffffffffffffffffffffffffffffffffffffffff1916149050919050565b611de3838383612083565b600073ffffffffffffffffffffffffffffffffffffffff168373ffffffffffffffffffffffffffffffffffffffff161415611e2657611e2181612088565b611e65565b8173ffffffffffffffffffffffffffffffffffffffff168373ffffffffffffffffffffffffffffffffffffffff1614611e6457611e6383826120d1565b5b5b600073ffffffffffffffffffffffffffffffffffffffff168273ffffffffffffffffffffffffffffffffffffffff161415611ea857611ea38161223e565b611ee7565b8273ffffffffffffffffffffffffffffffffffffffff168273ffffffffffffffffffffffffffffffffffffffff1614611ee657611ee58282612381565b5b5b505050565b6000611f0d8473ffffffffffffffffffffffffffffffffffffffff16612400565b15612076578373ffffffffffffffffffffffffffffffffffffffff1663150b7a02611f36611753565b8786866040518563ffffffff1660e01b8152600401611f589493929190612c33565b602060405180830381600087803b158015611f7257600080fd5b505af1925050508015611fa357506040513d601f19601f82011682018060405250810190611fa091906127bf565b60015b612026573d8060008114611fd3576040519150601f19603f3d011682016040523d82523d6000602084013e611fd8565b606091505b5060008151141561201e576040517f08c379a000000000000000000000000000000000000000000000000000000000815260040161201590612cdc565b60405180910390fd5b805181602001fd5b63150b7a0260e01b7bffffffffffffffffffffffffffffffffffffffffffffffffffffffff1916817bffffffffffffffffffffffffffffffffffffffffffffffffffffffff19161491505061207b565b600190505b949350505050565b505050565b6008805490506009600083815260200190815260200160002081905550600881908060018154018082558091505060019003906000526020600020016000909190919091505550565b600060016120de84610c7c565b6120e8919061316d565b90506000600760008481526020019081526020016000205490508181146121cd576000600660008673ffffffffffffffffffffffffffffffffffffffff1673ffffffffffffffffffffffffffffffffffffffff168152602001908152602001600020600084815260200190815260200160002054905080600660008773ffffffffffffffffffffffffffffffffffffffff1673ffffffffffffffffffffffffffffffffffffffff168152602001908152602001600020600084815260200190815260200160002081905550816007600083815260200190815260200160002081905550505b6007600084815260200190815260200160002060009055600660008573ffffffffffffffffffffffffffffffffffffffff1673ffffffffffffffffffffffffffffffffffffffff16815260200190815260200160002060008381526020019081526020016000206000905550505050565b60006001600880549050612252919061316d565b90506000600960008481526020019081526020016000205490506000600883815481106122a8577f4e487b7100000000000000000000000000000000000000000000000000000000600052603260045260246000fd5b9060005260206000200154905080600883815481106122f0577f4e487b7100000000000000000000000000000000000000000000000000000000600052603260045260246000fd5b906000526020600020018190555081600960008381526020019081526020016000208190555060096000858152602001908152602001600020600090556008805480612365577f4e487b7100000000000000000000000000000000000000000000000000000000600052603160045260246000fd5b6001900381819060005260206000200160009055905550505050565b600061238c83610c7c565b905081600660008573ffffffffffffffffffffffffffffffffffffffff1673ffffffffffffffffffffffffffffffffffffffff168152602001908152602001600020600083815260200190815260200160002081905550806007600084815260200190815260200160002081905550505050565b600080823b905060008111915050919050565b82805461241f906132c3565b90600052602060002090601f0160209004810192826124415760008555612488565b82601f1061245a57805160ff1916838001178555612488565b82800160010185558215612488579182015b8281111561248757825182559160200191906001019061246c565b5b5090506124959190612499565b5090565b5b808211156124b257600081600090555060010161249a565b5090565b60006124c96124c484613041565b61301c565b9050828152602081018484840111156124e157600080fd5b6124ec848285613281565b509392505050565b600061250761250284613072565b61301c565b90508281526020810184848401111561251f57600080fd5b61252a848285613281565b509392505050565b600081359050612541816138eb565b92915050565b60008135905061255681613902565b92915050565b60008135905061256b81613919565b92915050565b60008151905061258081613919565b92915050565b600082601f83011261259757600080fd5b81356125a78482602086016124b6565b91505092915050565b600082601f8301126125c157600080fd5b81356125d18482602086016124f4565b91505092915050565b6000813590506125e981613930565b92915050565b60006020828403121561260157600080fd5b600061260f84828501612532565b91505092915050565b6000806040838503121561262b57600080fd5b600061263985828601612532565b925050602061264a85828601612532565b9150509250929050565b60008060006060848603121561266957600080fd5b600061267786828701612532565b935050602061268886828701612532565b9250506040612699868287016125da565b9150509250925092565b600080600080608085870312156126b957600080fd5b60006126c787828801612532565b94505060206126d887828801612532565b93505060406126e9878288016125da565b925050606085013567ffffffffffffffff81111561270657600080fd5b61271287828801612586565b91505092959194509250565b6000806040838503121561273157600080fd5b600061273f85828601612532565b925050602061275085828601612547565b9150509250929050565b6000806040838503121561276d57600080fd5b600061277b85828601612532565b925050602061278c858286016125da565b9150509250929050565b6000602082840312156127a857600080fd5b60006127b68482850161255c565b91505092915050565b6000602082840312156127d157600080fd5b60006127df84828501612571565b91505092915050565b600080604083850312156127fb57600080fd5b600083013567ffffffffffffffff81111561281557600080fd5b612821858286016125b0565b9250506020612832858286016125da565b9150509250929050565b60006020828403121561284e57600080fd5b600061285c848285016125da565b91505092915050565b6000806040838503121561287857600080fd5b6000612886858286016125da565b9250506020612897858286016125da565b9150509250929050565b6128aa81613215565b82525050565b6128b9816131a1565b82525050565b6128c8816131b3565b82525050565b60006128d9826130a3565b6128e381856130b9565b93506128f3818560208601613290565b6128fc8161345c565b840191505092915050565b61291081613227565b82525050565b61291f81613239565b82525050565b61292e8161324b565b82525050565b600061293f826130ae565b61294981856130ca565b9350612959818560208601613290565b6129628161345c565b840191505092915050565b6000612978826130ae565b61298281856130db565b9350612992818560208601613290565b80840191505092915050565b60006129ab602b836130ca565b91506129b68261346d565b604082019050919050565b60006129ce6032836130ca565b91506129d9826134bc565b604082019050919050565b60006129f1601c836130ca565b91506129fc8261350b565b602082019050919050565b6000612a146024836130ca565b9150612a1f82613534565b604082019050919050565b6000612a376019836130ca565b9150612a4282613583565b602082019050919050565b6000612a5a602c836130ca565b9150612a65826135ac565b604082019050919050565b6000612a7d6038836130ca565b9150612a88826135fb565b604082019050919050565b6000612aa0602a836130ca565b9150612aab8261364a565b604082019050919050565b6000612ac36029836130ca565b9150612ace82613699565b604082019050919050565b6000612ae66020836130ca565b9150612af1826136e8565b602082019050919050565b6000612b09602c836130ca565b9150612b1482613711565b604082019050919050565b6000612b2c6029836130ca565b9150612b3782613760565b604082019050919050565b6000612b4f602f836130ca565b9150612b5a826137af565b604082019050919050565b6000612b726021836130ca565b9150612b7d826137fe565b604082019050919050565b6000612b956031836130ca565b9150612ba08261384d565b604082019050919050565b6000612bb8602c836130ca565b9150612bc38261389c565b604082019050919050565b612bd78161320b565b82525050565b6000612be9828461296d565b915081905092915050565b6000612c00828561296d565b9150612c0c828461296d565b91508190509392505050565b6000602082019050612c2d60008301846128b0565b92915050565b6000608082019050612c4860008301876128b0565b612c5560208301866128b0565b612c626040830185612bce565b8181036060830152612c7481846128ce565b905095945050505050565b6000602082019050612c9460008301846128bf565b92915050565b60006020820190508181036000830152612cb48184612934565b905092915050565b60006020820190508181036000830152612cd58161299e565b9050919050565b60006020820190508181036000830152612cf5816129c1565b9050919050565b60006020820190508181036000830152612d15816129e4565b9050919050565b60006020820190508181036000830152612d3581612a07565b9050919050565b60006020820190508181036000830152612d5581612a2a565b9050919050565b60006020820190508181036000830152612d7581612a4d565b9050919050565b60006020820190508181036000830152612d9581612a70565b9050919050565b60006020820190508181036000830152612db581612a93565b9050919050565b60006020820190508181036000830152612dd581612ab6565b9050919050565b60006020820190508181036000830152612df581612ad9565b9050919050565b60006020820190508181036000830152612e1581612afc565b9050919050565b60006020820190508181036000830152612e3581612b1f565b9050919050565b60006020820190508181036000830152612e5581612b42565b9050919050565b60006020820190508181036000830152612e7581612b65565b9050919050565b60006020820190508181036000830152612e9581612b88565b9050919050565b60006020820190508181036000830152612eb581612bab565b9050919050565b6000602082019050612ed16000830184612bce565b92915050565b600060a082019050612eec6000830188612bce565b612ef960208301876128a1565b612f0660408301866128b0565b612f136060830185612bce565b612f206080830184612916565b9695505050505050565b600060a082019050612f3f6000830188612bce565b612f4c60208301876128b0565b612f5960408301866128b0565b612f666060830185612bce565b612f736080830184612907565b9695505050505050565b600060a082019050612f926000830188612bce565b612f9f60208301876128b0565b612fac60408301866128b0565b612fb96060830185612bce565b612fc66080830184612925565b9695505050505050565b6000608082019050612fe56000830187612bce565b612ff26020830186612bce565b81810360408301526130048185612934565b905061301360608301846128bf565b95945050505050565b6000613026613037565b905061303282826132f5565b919050565b6000604051905090565b600067ffffffffffffffff82111561305c5761305b61342d565b5b6130658261345c565b9050602081019050919050565b600067ffffffffffffffff82111561308d5761308c61342d565b5b6130968261345c565b9050602081019050919050565b600081519050919050565b600081519050919050565b600082825260208201905092915050565b600082825260208201905092915050565b600081905092915050565b60006130f18261320b565b91506130fc8361320b565b9250827fffffffffffffffffffffffffffffffffffffffffffffffffffffffffffffffff03821115613131576131306133a0565b5b828201905092915050565b60006131478261320b565b91506131528361320b565b925082613162576131616133cf565b5b828204905092915050565b60006131788261320b565b91506131838361320b565b925082821015613196576131956133a0565b5b828203905092915050565b60006131ac826131eb565b9050919050565b60008115159050919050565b60007fffffffff0000000000000000000000000000000000000000000000000000000082169050919050565b600073ffffffffffffffffffffffffffffffffffffffff82169050919050565b6000819050919050565b60006132208261325d565b9050919050565b60006132328261320b565b9050919050565b60006132448261320b565b9050919050565b60006132568261320b565b9050919050565b60006132688261326f565b9050919050565b600061327a826131eb565b9050919050565b82818337600083830152505050565b60005b838110156132ae578082015181840152602081019050613293565b838111156132bd576000848401525b50505050565b600060028204905060018216806132db57607f821691505b602082108114156132ef576132ee6133fe565b5b50919050565b6132fe8261345c565b810181811067ffffffffffffffff8211171561331d5761331c61342d565b5b80604052505050565b60006133318261320b565b91507fffffffffffffffffffffffffffffffffffffffffffffffffffffffffffffffff821415613364576133636133a0565b5b600182019050919050565b600061337a8261320b565b91506133858361320b565b925082613395576133946133cf565b5b828206905092915050565b7f4e487b7100000000000000000000000000000000000000000000000000000000600052601160045260246000fd5b7f4e487b7100000000000000000000000000000000000000000000000000000000600052601260045260246000fd5b7f4e487b7100000000000000000000000000000000000000000000000000000000600052602260045260246000fd5b7f4e487b7100000000000000000000000000000000000000000000000000000000600052604160045260246000fd5b6000601f19601f8301169050919050565b7f455243373231456e756d657261626c653a206f776e657220696e646578206f7560008201527f74206f6620626f756e6473000000000000000000000000000000000000000000602082015250565b7f4552433732313a207472616e7366657220746f206e6f6e20455243373231526560008201527f63656976657220696d706c656d656e7465720000000000000000000000000000602082015250565b7f4552433732313a20746f6b656e20616c7265616479206d696e74656400000000600082015250565b7f4552433732313a207472616e7366657220746f20746865207a65726f2061646460008201527f7265737300000000000000000000000000000000000000000000000000000000602082015250565b7f4552433732313a20617070726f766520746f2063616c6c657200000000000000600082015250565b7f4552433732313a206f70657261746f7220717565727920666f72206e6f6e657860008201527f697374656e7420746f6b656e0000000000000000000000000000000000000000602082015250565b7f4552433732313a20617070726f76652063616c6c6572206973206e6f74206f7760008201527f6e6572206e6f7220617070726f76656420666f7220616c6c0000000000000000602082015250565b7f4552433732313a2062616c616e636520717565727920666f7220746865207a6560008201527f726f206164647265737300000000000000000000000000000000000000000000602082015250565b7f4552433732313a206f776e657220717565727920666f72206e6f6e657869737460008201527f656e7420746f6b656e0000000000000000000000000000000000000000000000602082015250565b7f4552433732313a206d696e7420746f20746865207a65726f2061646472657373600082015250565b7f4552433732313a20617070726f76656420717565727920666f72206e6f6e657860008201527f697374656e7420746f6b656e0000000000000000000000000000000000000000602082015250565b7f4552433732313a207472616e73666572206f6620746f6b656e2074686174206960008201527f73206e6f74206f776e0000000000000000000000000000000000000000000000602082015250565b7f4552433732314d657461646174613a2055524920717565727920666f72206e6f60008201527f6e6578697374656e7420746f6b656e0000000000000000000000000000000000602082015250565b7f4552433732313a20617070726f76616c20746f2063757272656e74206f776e6560008201527f7200000000000000000000000000000000000000000000000000000000000000602082015250565b7f4552433732313a207472616e736665722063616c6c6572206973206e6f74206f60008201527f776e6572206e6f7220617070726f766564000000000000000000000000000000602082015250565b7f455243373231456e756d657261626c653a20676c6f62616c20696e646578206f60008201527f7574206f6620626f756e64730000000000000000000000000000000000000000602082015250565b6138f4816131a1565b81146138ff57600080fd5b50565b61390b816131b3565b811461391657600080fd5b50565b613922816131bf565b811461392d57600080fd5b50565b6139398161320b565b811461394457600080fd5b5056fea2646970667358221220fe421d8e5a850b7e8cea2c1e5d426daceb01b32e2d3035233177626b6b469a9064736f6c63430008040033",
  "immutableReferences": {},
  "source": "pragma solidity ^0.8.0;\r\n\r\nimport \"@openzeppelin/contracts/token/ERC721/ERC721.sol\";\r\nimport \"@openzeppelin/contracts/token/ERC721/extensions/ERC721Enumerable.sol\";\r\n\r\ncontract Card is ERC721Enumerable{\r\n     //string[] public cards;\r\n     struct Token{\r\n          uint id;\r\n          uint price;\r\n          string card;\r\n          bool listed;\r\n     }\r\n     mapping(uint => Token) public cards;\r\n     mapping(string => bool) _cardExists;\r\n\r\n     constructor() ERC721(\"Card\",\"CARD\") {\r\n          \r\n     }\r\n\r\n     event transfer(uint id,address from,address to,uint time,uint eve);\r\n\r\n     function mint(string memory _card,uint _price) public{\r\n          require(!_cardExists[_card]);\r\n          uint _id = totalSupply();\r\n          cards[_id] = Token(_id,_price,_card,true);\r\n          _mint(msg.sender,_id);\r\n          emit transfer(_id,address(0),msg.sender,block.timestamp,0);\r\n          _cardExists[_card] = true;\r\n     }\r\n\r\n     function buy(uint _id) public payable{\r\n          Token memory _token = cards[_id];\r\n          require(msg.value == _token.price);\r\n          address payable _owner = payable(ownerOf(_id));\r\n          _owner.transfer(msg.value);\r\n          cards[_id].listed = false;\r\n          _transfer(_owner, msg.sender, _id);\r\n          emit transfer(_id,_owner,msg.sender,block.timestamp,1);\r\n     }\r\n\r\n     function gift(address _from,address _to, uint256 _id) public {\r\n          _transfer(_from, _to, _id);\r\n          emit transfer(_id,_from,_to,block.timestamp,2);\r\n     }\r\n\r\n     function list(uint _id,uint price) public{\r\n          address _owner = ownerOf(_id);\r\n          require(_owner == msg.sender);\r\n          cards[_id].listed = true;\r\n          cards[_id].price = price;\r\n     }\r\n\r\n     function delist(uint _id) public{\r\n          address _owner = ownerOf(_id);\r\n          require(_owner == msg.sender);\r\n          cards[_id].listed = false;\r\n     }\r\n}\r\n\r\n\r\n\r\n",
  "sourcePath": "C:/Users/Sachin/Desktop/nft/src/contracts/Card.sol",
  "compiler": {
    "name": "solc",
    "version": "0.8.4+commit.c7e474f2.Emscripten.clang"
  },
  "schemaVersion": "3.4.1",
  "updatedAt": "2021-06-29T13:58:17.225Z",
  "networkType": "ethereum",
  "devdoc": {
    "kind": "dev",
    "methods": {
      "approve(address,uint256)": {
        "details": "See {IERC721-approve}."
      },
      "balanceOf(address)": {
        "details": "See {IERC721-balanceOf}."
      },
      "getApproved(uint256)": {
        "details": "See {IERC721-getApproved}."
      },
      "isApprovedForAll(address,address)": {
        "details": "See {IERC721-isApprovedForAll}."
      },
      "name()": {
        "details": "See {IERC721Metadata-name}."
      },
      "ownerOf(uint256)": {
        "details": "See {IERC721-ownerOf}."
      },
      "safeTransferFrom(address,address,uint256)": {
        "details": "See {IERC721-safeTransferFrom}."
      },
      "safeTransferFrom(address,address,uint256,bytes)": {
        "details": "See {IERC721-safeTransferFrom}."
      },
      "setApprovalForAll(address,bool)": {
        "details": "See {IERC721-setApprovalForAll}."
      },
      "supportsInterface(bytes4)": {
        "details": "See {IERC165-supportsInterface}."
      },
      "symbol()": {
        "details": "See {IERC721Metadata-symbol}."
      },
      "tokenByIndex(uint256)": {
        "details": "See {IERC721Enumerable-tokenByIndex}."
      },
      "tokenOfOwnerByIndex(address,uint256)": {
        "details": "See {IERC721Enumerable-tokenOfOwnerByIndex}."
      },
      "tokenURI(uint256)": {
        "details": "See {IERC721Metadata-tokenURI}."
      },
      "totalSupply()": {
        "details": "See {IERC721Enumerable-totalSupply}."
      },
      "transferFrom(address,address,uint256)": {
        "details": "See {IERC721-transferFrom}."
      }
    },
    "version": 1
  },
  "userdoc": {
    "kind": "user",
    "methods": {},
    "version": 1
  }
}