{
  "contractName": "Card",
  "abi": [
    {
      "inputs": [],
      "stateMutability": "nonpayable",
      "type": "constructor"
    },
    {
      "anonymous": false,
      "inputs": [
        {
          "indexed": true,
          "internalType": "address",
          "name": "owner",
          "type": "address"
        },
        {
          "indexed": true,
          "internalType": "address",
          "name": "approved",
          "type": "address"
        },
        {
          "indexed": true,
          "internalType": "uint256",
          "name": "tokenId",
          "type": "uint256"
        }
      ],
      "name": "Approval",
      "type": "event"
    },
    {
      "anonymous": false,
      "inputs": [
        {
          "indexed": true,
          "internalType": "address",
          "name": "owner",
          "type": "address"
        },
        {
          "indexed": true,
          "internalType": "address",
          "name": "operator",
          "type": "address"
        },
        {
          "indexed": false,
          "internalType": "bool",
          "name": "approved",
          "type": "bool"
        }
      ],
      "name": "ApprovalForAll",
      "type": "event"
    },
    {
      "anonymous": false,
      "inputs": [
        {
          "indexed": true,
          "internalType": "address",
          "name": "from",
          "type": "address"
        },
        {
          "indexed": true,
          "internalType": "address",
          "name": "to",
          "type": "address"
        },
        {
          "indexed": true,
          "internalType": "uint256",
          "name": "tokenId",
          "type": "uint256"
        }
      ],
      "name": "Transfer",
      "type": "event"
    },
    {
      "inputs": [
        {
          "internalType": "address",
          "name": "to",
          "type": "address"
        },
        {
          "internalType": "uint256",
          "name": "tokenId",
          "type": "uint256"
        }
      ],
      "name": "approve",
      "outputs": [],
      "stateMutability": "nonpayable",
      "type": "function"
    },
    {
      "inputs": [
        {
          "internalType": "address",
          "name": "owner",
          "type": "address"
        }
      ],
      "name": "balanceOf",
      "outputs": [
        {
          "internalType": "uint256",
          "name": "",
          "type": "uint256"
        }
      ],
      "stateMutability": "view",
      "type": "function",
      "constant": true
    },
    {
      "inputs": [
        {
          "internalType": "uint256",
          "name": "",
          "type": "uint256"
        }
      ],
      "name": "cards",
      "outputs": [
        {
          "internalType": "uint256",
          "name": "id",
          "type": "uint256"
        },
        {
          "internalType": "uint256",
          "name": "price",
          "type": "uint256"
        },
        {
          "internalType": "string",
          "name": "card",
          "type": "string"
        },
        {
          "internalType": "bool",
          "name": "listed",
          "type": "bool"
        }
      ],
      "stateMutability": "view",
      "type": "function",
      "constant": true
    },
    {
      "inputs": [
        {
          "internalType": "uint256",
          "name": "tokenId",
          "type": "uint256"
        }
      ],
      "name": "getApproved",
      "outputs": [
        {
          "internalType": "address",
          "name": "",
          "type": "address"
        }
      ],
      "stateMutability": "view",
      "type": "function",
      "constant": true
    },
    {
      "inputs": [
        {
          "internalType": "address",
          "name": "owner",
          "type": "address"
        },
        {
          "internalType": "address",
          "name": "operator",
          "type": "address"
        }
      ],
      "name": "isApprovedForAll",
      "outputs": [
        {
          "internalType": "bool",
          "name": "",
          "type": "bool"
        }
      ],
      "stateMutability": "view",
      "type": "function",
      "constant": true
    },
    {
      "inputs": [],
      "name": "name",
      "outputs": [
        {
          "internalType": "string",
          "name": "",
          "type": "string"
        }
      ],
      "stateMutability": "view",
      "type": "function",
      "constant": true
    },
    {
      "inputs": [
        {
          "internalType": "uint256",
          "name": "tokenId",
          "type": "uint256"
        }
      ],
      "name": "ownerOf",
      "outputs": [
        {
          "internalType": "address",
          "name": "",
          "type": "address"
        }
      ],
      "stateMutability": "view",
      "type": "function",
      "constant": true
    },
    {
      "inputs": [
        {
          "internalType": "address",
          "name": "from",
          "type": "address"
        },
        {
          "internalType": "address",
          "name": "to",
          "type": "address"
        },
        {
          "internalType": "uint256",
          "name": "tokenId",
          "type": "uint256"
        }
      ],
      "name": "safeTransferFrom",
      "outputs": [],
      "stateMutability": "nonpayable",
      "type": "function"
    },
    {
      "inputs": [
        {
          "internalType": "address",
          "name": "from",
          "type": "address"
        },
        {
          "internalType": "address",
          "name": "to",
          "type": "address"
        },
        {
          "internalType": "uint256",
          "name": "tokenId",
          "type": "uint256"
        },
        {
          "internalType": "bytes",
          "name": "_data",
          "type": "bytes"
        }
      ],
      "name": "safeTransferFrom",
      "outputs": [],
      "stateMutability": "nonpayable",
      "type": "function"
    },
    {
      "inputs": [
        {
          "internalType": "address",
          "name": "operator",
          "type": "address"
        },
        {
          "internalType": "bool",
          "name": "approved",
          "type": "bool"
        }
      ],
      "name": "setApprovalForAll",
      "outputs": [],
      "stateMutability": "nonpayable",
      "type": "function"
    },
    {
      "inputs": [
        {
          "internalType": "bytes4",
          "name": "interfaceId",
          "type": "bytes4"
        }
      ],
      "name": "supportsInterface",
      "outputs": [
        {
          "internalType": "bool",
          "name": "",
          "type": "bool"
        }
      ],
      "stateMutability": "view",
      "type": "function",
      "constant": true
    },
    {
      "inputs": [],
      "name": "symbol",
      "outputs": [
        {
          "internalType": "string",
          "name": "",
          "type": "string"
        }
      ],
      "stateMutability": "view",
      "type": "function",
      "constant": true
    },
    {
      "inputs": [
        {
          "internalType": "uint256",
          "name": "index",
          "type": "uint256"
        }
      ],
      "name": "tokenByIndex",
      "outputs": [
        {
          "internalType": "uint256",
          "name": "",
          "type": "uint256"
        }
      ],
      "stateMutability": "view",
      "type": "function",
      "constant": true
    },
    {
      "inputs": [
        {
          "internalType": "address",
          "name": "owner",
          "type": "address"
        },
        {
          "internalType": "uint256",
          "name": "index",
          "type": "uint256"
        }
      ],
      "name": "tokenOfOwnerByIndex",
      "outputs": [
        {
          "internalType": "uint256",
          "name": "",
          "type": "uint256"
        }
      ],
      "stateMutability": "view",
      "type": "function",
      "constant": true
    },
    {
      "inputs": [
        {
          "internalType": "uint256",
          "name": "tokenId",
          "type": "uint256"
        }
      ],
      "name": "tokenURI",
      "outputs": [
        {
          "internalType": "string",
          "name": "",
          "type": "string"
        }
      ],
      "stateMutability": "view",
      "type": "function",
      "constant": true
    },
    {
      "inputs": [],
      "name": "totalSupply",
      "outputs": [
        {
          "internalType": "uint256",
          "name": "",
          "type": "uint256"
        }
      ],
      "stateMutability": "view",
      "type": "function",
      "constant": true
    },
    {
      "inputs": [
        {
          "internalType": "address",
          "name": "from",
          "type": "address"
        },
        {
          "internalType": "address",
          "name": "to",
          "type": "address"
        },
        {
          "internalType": "uint256",
          "name": "tokenId",
          "type": "uint256"
        }
      ],
      "name": "transferFrom",
      "outputs": [],
      "stateMutability": "nonpayable",
      "type": "function"
    },
    {
      "inputs": [
        {
          "internalType": "string",
          "name": "_card",
          "type": "string"
        },
        {
          "internalType": "uint256",
          "name": "_price",
          "type": "uint256"
        }
      ],
      "name": "mint",
      "outputs": [],
      "stateMutability": "nonpayable",
      "type": "function"
    },
    {
      "inputs": [
        {
          "internalType": "uint256",
          "name": "_id",
          "type": "uint256"
        }
      ],
      "name": "buy",
      "outputs": [],
      "stateMutability": "payable",
      "type": "function",
      "payable": true
    },
    {
      "inputs": [
        {
          "internalType": "uint256",
          "name": "_id",
          "type": "uint256"
        },
        {
          "internalType": "uint256",
          "name": "price",
          "type": "uint256"
        }
      ],
      "name": "list",
      "outputs": [],
      "stateMutability": "nonpayable",
      "type": "function"
    },
    {
      "inputs": [
        {
          "internalType": "uint256",
          "name": "_id",
          "type": "uint256"
        }
      ],
      "name": "delist",
      "outputs": [],
      "stateMutability": "nonpayable",
      "type": "function"
    }
  ],
  "bytecode": "0x60806040523480156200001157600080fd5b506040518060400160405280600481526020017f43617264000000000000000000000000000000000000000000000000000000008152506040518060400160405280600481526020017f4341524400000000000000000000000000000000000000000000000000000000815250816000908051906020019062000096929190620000b8565b508060019080519060200190620000af929190620000b8565b505050620001cd565b828054620000c69062000168565b90600052602060002090601f016020900481019282620000ea576000855562000136565b82601f106200010557805160ff191683800117855562000136565b8280016001018555821562000136579182015b828111156200013557825182559160200191906001019062000118565b5b50905062000145919062000149565b5090565b5b80821115620001645760008160009055506001016200014a565b5090565b600060028204905060018216806200018157607f821691505b602082108114156200019857620001976200019e565b5b50919050565b7f4e487b7100000000000000000000000000000000000000000000000000000000600052602260045260246000fd5b6136d780620001dd6000396000f3fe60806040526004361061012a5760003560e01c806350fd7367116100ab578063964bc33f1161006f578063964bc33f1461042b578063a22cb46514610454578063b88d4fde1461047d578063c87b56dd146104a6578063d96a094a146104e3578063e985e9c5146104ff5761012a565b806350fd73671461031d5780636352211e1461034657806370a08231146103835780638dc10768146103c057806395d89b41146104005761012a565b806318160ddd116100f257806318160ddd1461022657806323b872dd146102515780632f745c591461027a57806342842e0e146102b75780634f6ccce7146102e05761012a565b806301ffc9a71461012f578063056b01ce1461016c57806306fdde0314610195578063081812fc146101c0578063095ea7b3146101fd575b600080fd5b34801561013b57600080fd5b5061015660048036038101906101519190612691565b61053c565b6040516101639190612b3e565b60405180910390f35b34801561017857600080fd5b50610193600480360381019061018e91906126e3565b6105b6565b005b3480156101a157600080fd5b506101aa6106c9565b6040516101b79190612b59565b60405180910390f35b3480156101cc57600080fd5b506101e760048036038101906101e29190612737565b61075b565b6040516101f49190612ad7565b60405180910390f35b34801561020957600080fd5b50610224600480360381019061021f9190612655565b6107e0565b005b34801561023257600080fd5b5061023b6108f8565b6040516102489190612d7b565b60405180910390f35b34801561025d57600080fd5b506102786004803603810190610273919061254f565b610905565b005b34801561028657600080fd5b506102a1600480360381019061029c9190612655565b610965565b6040516102ae9190612d7b565b60405180910390f35b3480156102c357600080fd5b506102de60048036038101906102d9919061254f565b610a0a565b005b3480156102ec57600080fd5b5061030760048036038101906103029190612737565b610a2a565b6040516103149190612d7b565b60405180910390f35b34801561032957600080fd5b50610344600480360381019061033f9190612760565b610ac1565b005b34801561035257600080fd5b5061036d60048036038101906103689190612737565b610b55565b60405161037a9190612ad7565b60405180910390f35b34801561038f57600080fd5b506103aa60048036038101906103a591906124ea565b610c07565b6040516103b79190612d7b565b60405180910390f35b3480156103cc57600080fd5b506103e760048036038101906103e29190612737565b610cbf565b6040516103f79493929190612d96565b60405180910390f35b34801561040c57600080fd5b50610415610d84565b6040516104229190612b59565b60405180910390f35b34801561043757600080fd5b50610452600480360381019061044d9190612737565b610e16565b005b34801561046057600080fd5b5061047b60048036038101906104769190612619565b610e8e565b005b34801561048957600080fd5b506104a4600480360381019061049f919061259e565b61100f565b005b3480156104b257600080fd5b506104cd60048036038101906104c89190612737565b611071565b6040516104da9190612b59565b60405180910390f35b6104fd60048036038101906104f89190612737565b611118565b005b34801561050b57600080fd5b5061052660048036038101906105219190612513565b61129e565b6040516105339190612b3e565b60405180910390f35b60007f780e9d63000000000000000000000000000000000000000000000000000000007bffffffffffffffffffffffffffffffffffffffffffffffffffffffff1916827bffffffffffffffffffffffffffffffffffffffffffffffffffffffff191614806105af57506105ae82611332565b5b9050919050565b600b826040516105c69190612a9c565b908152602001604051809103902060009054906101000a900460ff16156105ec57600080fd5b60006105f66108f8565b9050604051806080016040528082815260200183815260200184815260200160011515815250600a60008381526020019081526020016000206000820151816000015560208201518160010155604082015181600201908051906020019061065f92919061230e565b5060608201518160030160006101000a81548160ff02191690831515021790555090505061068d3382611414565b6001600b8460405161069f9190612a9c565b908152602001604051809103902060006101000a81548160ff021916908315150217905550505050565b6060600080546106d89061301d565b80601f01602080910402602001604051908101604052809291908181526020018280546107049061301d565b80156107515780601f1061072657610100808354040283529160200191610751565b820191906000526020600020905b81548152906001019060200180831161073457829003601f168201915b5050505050905090565b6000610766826115e2565b6107a5576040517f08c379a000000000000000000000000000000000000000000000000000000000815260040161079c90612cbb565b60405180910390fd5b6004600083815260200190815260200160002060009054906101000a900473ffffffffffffffffffffffffffffffffffffffff169050919050565b60006107eb82610b55565b90508073ffffffffffffffffffffffffffffffffffffffff168373ffffffffffffffffffffffffffffffffffffffff16141561085c576040517f08c379a000000000000000000000000000000000000000000000000000000000815260040161085390612d1b565b60405180910390fd5b8073ffffffffffffffffffffffffffffffffffffffff1661087b61164e565b73ffffffffffffffffffffffffffffffffffffffff1614806108aa57506108a9816108a461164e565b61129e565b5b6108e9576040517f08c379a00000000000000000000000000000000000000000000000000000000081526004016108e090612c3b565b60405180910390fd5b6108f38383611656565b505050565b6000600880549050905090565b61091661091061164e565b8261170f565b610955576040517f08c379a000000000000000000000000000000000000000000000000000000000815260040161094c90612d3b565b60405180910390fd5b6109608383836117ed565b505050565b600061097083610c07565b82106109b1576040517f08c379a00000000000000000000000000000000000000000000000000000000081526004016109a890612b7b565b60405180910390fd5b600660008473ffffffffffffffffffffffffffffffffffffffff1673ffffffffffffffffffffffffffffffffffffffff168152602001908152602001600020600083815260200190815260200160002054905092915050565b610a258383836040518060200160405280600081525061100f565b505050565b6000610a346108f8565b8210610a75576040517f08c379a0000000000000000000000000000000000000000000000000000000008152600401610a6c90612d5b565b60405180910390fd5b60088281548110610aaf577f4e487b7100000000000000000000000000000000000000000000000000000000600052603260045260246000fd5b90600052602060002001549050919050565b6000610acc83610b55565b90503373ffffffffffffffffffffffffffffffffffffffff168173ffffffffffffffffffffffffffffffffffffffff1614610b0657600080fd5b6001600a600085815260200190815260200160002060030160006101000a81548160ff02191690831515021790555081600a600085815260200190815260200160002060010181905550505050565b6000806002600084815260200190815260200160002060009054906101000a900473ffffffffffffffffffffffffffffffffffffffff169050600073ffffffffffffffffffffffffffffffffffffffff168173ffffffffffffffffffffffffffffffffffffffff161415610bfe576040517f08c379a0000000000000000000000000000000000000000000000000000000008152600401610bf590612c7b565b60405180910390fd5b80915050919050565b60008073ffffffffffffffffffffffffffffffffffffffff168273ffffffffffffffffffffffffffffffffffffffff161415610c78576040517f08c379a0000000000000000000000000000000000000000000000000000000008152600401610c6f90612c5b565b60405180910390fd5b600360008373ffffffffffffffffffffffffffffffffffffffff1673ffffffffffffffffffffffffffffffffffffffff168152602001908152602001600020549050919050565b600a602052806000526040600020600091509050806000015490806001015490806002018054610cee9061301d565b80601f0160208091040260200160405190810160405280929190818152602001828054610d1a9061301d565b8015610d675780601f10610d3c57610100808354040283529160200191610d67565b820191906000526020600020905b815481529060010190602001808311610d4a57829003601f168201915b5050505050908060030160009054906101000a900460ff16905084565b606060018054610d939061301d565b80601f0160208091040260200160405190810160405280929190818152602001828054610dbf9061301d565b8015610e0c5780601f10610de157610100808354040283529160200191610e0c565b820191906000526020600020905b815481529060010190602001808311610def57829003601f168201915b5050505050905090565b6000610e2182610b55565b90503373ffffffffffffffffffffffffffffffffffffffff168173ffffffffffffffffffffffffffffffffffffffff1614610e5b57600080fd5b6000600a600084815260200190815260200160002060030160006101000a81548160ff0219169083151502179055505050565b610e9661164e565b73ffffffffffffffffffffffffffffffffffffffff168273ffffffffffffffffffffffffffffffffffffffff161415610f04576040517f08c379a0000000000000000000000000000000000000000000000000000000008152600401610efb90612bfb565b60405180910390fd5b8060056000610f1161164e565b73ffffffffffffffffffffffffffffffffffffffff1673ffffffffffffffffffffffffffffffffffffffff16815260200190815260200160002060008473ffffffffffffffffffffffffffffffffffffffff1673ffffffffffffffffffffffffffffffffffffffff16815260200190815260200160002060006101000a81548160ff0219169083151502179055508173ffffffffffffffffffffffffffffffffffffffff16610fbe61164e565b73ffffffffffffffffffffffffffffffffffffffff167f17307eab39ab6107e8899845ad3d59bd9653f200f220920489ca2b5937696c31836040516110039190612b3e565b60405180910390a35050565b61102061101a61164e565b8361170f565b61105f576040517f08c379a000000000000000000000000000000000000000000000000000000000815260040161105690612d3b565b60405180910390fd5b61106b84848484611a49565b50505050565b606061107c826115e2565b6110bb576040517f08c379a00000000000000000000000000000000000000000000000000000000081526004016110b290612cfb565b60405180910390fd5b60006110c5611aa5565b905060008151116110e55760405180602001604052806000815250611110565b806110ef84611abc565b604051602001611100929190612ab3565b6040516020818303038152906040525b915050919050565b6000600a6000838152602001908152602001600020604051806080016040529081600082015481526020016001820154815260200160028201805461115c9061301d565b80601f01602080910402602001604051908101604052809291908181526020018280546111889061301d565b80156111d55780601f106111aa576101008083540402835291602001916111d5565b820191906000526020600020905b8154815290600101906020018083116111b857829003601f168201915b505050505081526020016003820160009054906101000a900460ff16151515158152505090508060200151341461120b57600080fd5b600061121683610b55565b90508073ffffffffffffffffffffffffffffffffffffffff166108fc349081150290604051600060405180830381858888f1935050505015801561125e573d6000803e3d6000fd5b506000600a600085815260200190815260200160002060030160006101000a81548160ff0219169083151502179055506112998133856117ed565b505050565b6000600560008473ffffffffffffffffffffffffffffffffffffffff1673ffffffffffffffffffffffffffffffffffffffff16815260200190815260200160002060008373ffffffffffffffffffffffffffffffffffffffff1673ffffffffffffffffffffffffffffffffffffffff16815260200190815260200160002060009054906101000a900460ff16905092915050565b60007f80ac58cd000000000000000000000000000000000000000000000000000000007bffffffffffffffffffffffffffffffffffffffffffffffffffffffff1916827bffffffffffffffffffffffffffffffffffffffffffffffffffffffff191614806113fd57507f5b5e139f000000000000000000000000000000000000000000000000000000007bffffffffffffffffffffffffffffffffffffffffffffffffffffffff1916827bffffffffffffffffffffffffffffffffffffffffffffffffffffffff1916145b8061140d575061140c82611c69565b5b9050919050565b600073ffffffffffffffffffffffffffffffffffffffff168273ffffffffffffffffffffffffffffffffffffffff161415611484576040517f08c379a000000000000000000000000000000000000000000000000000000000815260040161147b90612c9b565b60405180910390fd5b61148d816115e2565b156114cd576040517f08c379a00000000000000000000000000000000000000000000000000000000081526004016114c490612bbb565b60405180910390fd5b6114d960008383611cd3565b6001600360008473ffffffffffffffffffffffffffffffffffffffff1673ffffffffffffffffffffffffffffffffffffffff16815260200190815260200160002060008282546115299190612eac565b92505081905550816002600083815260200190815260200160002060006101000a81548173ffffffffffffffffffffffffffffffffffffffff021916908373ffffffffffffffffffffffffffffffffffffffff160217905550808273ffffffffffffffffffffffffffffffffffffffff16600073ffffffffffffffffffffffffffffffffffffffff167fddf252ad1be2c89b69c2b068fc378daa952ba7f163c4a11628f55a4df523b3ef60405160405180910390a45050565b60008073ffffffffffffffffffffffffffffffffffffffff166002600084815260200190815260200160002060009054906101000a900473ffffffffffffffffffffffffffffffffffffffff1673ffffffffffffffffffffffffffffffffffffffff1614159050919050565b600033905090565b816004600083815260200190815260200160002060006101000a81548173ffffffffffffffffffffffffffffffffffffffff021916908373ffffffffffffffffffffffffffffffffffffffff160217905550808273ffffffffffffffffffffffffffffffffffffffff166116c983610b55565b73ffffffffffffffffffffffffffffffffffffffff167f8c5be1e5ebec7d5bd14f71427d1e84f3dd0314c0f7b2291e5b200ac8c7c3b92560405160405180910390a45050565b600061171a826115e2565b611759576040517f08c379a000000000000000000000000000000000000000000000000000000000815260040161175090612c1b565b60405180910390fd5b600061176483610b55565b90508073ffffffffffffffffffffffffffffffffffffffff168473ffffffffffffffffffffffffffffffffffffffff1614806117d357508373ffffffffffffffffffffffffffffffffffffffff166117bb8461075b565b73ffffffffffffffffffffffffffffffffffffffff16145b806117e457506117e3818561129e565b5b91505092915050565b8273ffffffffffffffffffffffffffffffffffffffff1661180d82610b55565b73ffffffffffffffffffffffffffffffffffffffff1614611863576040517f08c379a000000000000000000000000000000000000000000000000000000000815260040161185a90612cdb565b60405180910390fd5b600073ffffffffffffffffffffffffffffffffffffffff168273ffffffffffffffffffffffffffffffffffffffff1614156118d3576040517f08c379a00000000000000000000000000000000000000000000000000000000081526004016118ca90612bdb565b60405180910390fd5b6118de838383611cd3565b6118e9600082611656565b6001600360008573ffffffffffffffffffffffffffffffffffffffff1673ffffffffffffffffffffffffffffffffffffffff16815260200190815260200160002060008282546119399190612f33565b925050819055506001600360008473ffffffffffffffffffffffffffffffffffffffff1673ffffffffffffffffffffffffffffffffffffffff16815260200190815260200160002060008282546119909190612eac565b92505081905550816002600083815260200190815260200160002060006101000a81548173ffffffffffffffffffffffffffffffffffffffff021916908373ffffffffffffffffffffffffffffffffffffffff160217905550808273ffffffffffffffffffffffffffffffffffffffff168473ffffffffffffffffffffffffffffffffffffffff167fddf252ad1be2c89b69c2b068fc378daa952ba7f163c4a11628f55a4df523b3ef60405160405180910390a4505050565b611a548484846117ed565b611a6084848484611de7565b611a9f576040517f08c379a0000000000000000000000000000000000000000000000000000000008152600401611a9690612b9b565b60405180910390fd5b50505050565b606060405180602001604052806000815250905090565b60606000821415611b04576040518060400160405280600181526020017f30000000000000000000000000000000000000000000000000000000000000008152509050611c64565b600082905060005b60008214611b36578080611b1f90613080565b915050600a82611b2f9190612f02565b9150611b0c565b60008167ffffffffffffffff811115611b78577f4e487b7100000000000000000000000000000000000000000000000000000000600052604160045260246000fd5b6040519080825280601f01601f191660200182016040528015611baa5781602001600182028036833780820191505090505b5090505b60008514611c5d57600182611bc39190612f33565b9150600a85611bd291906130c9565b6030611bde9190612eac565b60f81b818381518110611c1a577f4e487b7100000000000000000000000000000000000000000000000000000000600052603260045260246000fd5b60200101907effffffffffffffffffffffffffffffffffffffffffffffffffffffffffffff1916908160001a905350600a85611c569190612f02565b9450611bae565b8093505050505b919050565b60007f01ffc9a7000000000000000000000000000000000000000000000000000000007bffffffffffffffffffffffffffffffffffffffffffffffffffffffff1916827bffffffffffffffffffffffffffffffffffffffffffffffffffffffff1916149050919050565b611cde838383611f7e565b600073ffffffffffffffffffffffffffffffffffffffff168373ffffffffffffffffffffffffffffffffffffffff161415611d2157611d1c81611f83565b611d60565b8173ffffffffffffffffffffffffffffffffffffffff168373ffffffffffffffffffffffffffffffffffffffff1614611d5f57611d5e8382611fcc565b5b5b600073ffffffffffffffffffffffffffffffffffffffff168273ffffffffffffffffffffffffffffffffffffffff161415611da357611d9e81612139565b611de2565b8273ffffffffffffffffffffffffffffffffffffffff168273ffffffffffffffffffffffffffffffffffffffff1614611de157611de0828261227c565b5b5b505050565b6000611e088473ffffffffffffffffffffffffffffffffffffffff166122fb565b15611f71578373ffffffffffffffffffffffffffffffffffffffff1663150b7a02611e3161164e565b8786866040518563ffffffff1660e01b8152600401611e539493929190612af2565b602060405180830381600087803b158015611e6d57600080fd5b505af1925050508015611e9e57506040513d601f19601f82011682018060405250810190611e9b91906126ba565b60015b611f21573d8060008114611ece576040519150601f19603f3d011682016040523d82523d6000602084013e611ed3565b606091505b50600081511415611f19576040517f08c379a0000000000000000000000000000000000000000000000000000000008152600401611f1090612b9b565b60405180910390fd5b805181602001fd5b63150b7a0260e01b7bffffffffffffffffffffffffffffffffffffffffffffffffffffffff1916817bffffffffffffffffffffffffffffffffffffffffffffffffffffffff191614915050611f76565b600190505b949350505050565b505050565b6008805490506009600083815260200190815260200160002081905550600881908060018154018082558091505060019003906000526020600020016000909190919091505550565b60006001611fd984610c07565b611fe39190612f33565b90506000600760008481526020019081526020016000205490508181146120c8576000600660008673ffffffffffffffffffffffffffffffffffffffff1673ffffffffffffffffffffffffffffffffffffffff168152602001908152602001600020600084815260200190815260200160002054905080600660008773ffffffffffffffffffffffffffffffffffffffff1673ffffffffffffffffffffffffffffffffffffffff168152602001908152602001600020600084815260200190815260200160002081905550816007600083815260200190815260200160002081905550505b6007600084815260200190815260200160002060009055600660008573ffffffffffffffffffffffffffffffffffffffff1673ffffffffffffffffffffffffffffffffffffffff16815260200190815260200160002060008381526020019081526020016000206000905550505050565b6000600160088054905061214d9190612f33565b90506000600960008481526020019081526020016000205490506000600883815481106121a3577f4e487b7100000000000000000000000000000000000000000000000000000000600052603260045260246000fd5b9060005260206000200154905080600883815481106121eb577f4e487b7100000000000000000000000000000000000000000000000000000000600052603260045260246000fd5b906000526020600020018190555081600960008381526020019081526020016000208190555060096000858152602001908152602001600020600090556008805480612260577f4e487b7100000000000000000000000000000000000000000000000000000000600052603160045260246000fd5b6001900381819060005260206000200160009055905550505050565b600061228783610c07565b905081600660008573ffffffffffffffffffffffffffffffffffffffff1673ffffffffffffffffffffffffffffffffffffffff168152602001908152602001600020600083815260200190815260200160002081905550806007600084815260200190815260200160002081905550505050565b600080823b905060008111915050919050565b82805461231a9061301d565b90600052602060002090601f01602090048101928261233c5760008555612383565b82601f1061235557805160ff1916838001178555612383565b82800160010185558215612383579182015b82811115612382578251825591602001919060010190612367565b5b5090506123909190612394565b5090565b5b808211156123ad576000816000905550600101612395565b5090565b60006123c46123bf84612e07565b612de2565b9050828152602081018484840111156123dc57600080fd5b6123e7848285612fdb565b509392505050565b60006124026123fd84612e38565b612de2565b90508281526020810184848401111561241a57600080fd5b612425848285612fdb565b509392505050565b60008135905061243c81613645565b92915050565b6000813590506124518161365c565b92915050565b60008135905061246681613673565b92915050565b60008151905061247b81613673565b92915050565b600082601f83011261249257600080fd5b81356124a28482602086016123b1565b91505092915050565b600082601f8301126124bc57600080fd5b81356124cc8482602086016123ef565b91505092915050565b6000813590506124e48161368a565b92915050565b6000602082840312156124fc57600080fd5b600061250a8482850161242d565b91505092915050565b6000806040838503121561252657600080fd5b60006125348582860161242d565b92505060206125458582860161242d565b9150509250929050565b60008060006060848603121561256457600080fd5b60006125728682870161242d565b93505060206125838682870161242d565b9250506040612594868287016124d5565b9150509250925092565b600080600080608085870312156125b457600080fd5b60006125c28782880161242d565b94505060206125d38782880161242d565b93505060406125e4878288016124d5565b925050606085013567ffffffffffffffff81111561260157600080fd5b61260d87828801612481565b91505092959194509250565b6000806040838503121561262c57600080fd5b600061263a8582860161242d565b925050602061264b85828601612442565b9150509250929050565b6000806040838503121561266857600080fd5b60006126768582860161242d565b9250506020612687858286016124d5565b9150509250929050565b6000602082840312156126a357600080fd5b60006126b184828501612457565b91505092915050565b6000602082840312156126cc57600080fd5b60006126da8482850161246c565b91505092915050565b600080604083850312156126f657600080fd5b600083013567ffffffffffffffff81111561271057600080fd5b61271c858286016124ab565b925050602061272d858286016124d5565b9150509250929050565b60006020828403121561274957600080fd5b6000612757848285016124d5565b91505092915050565b6000806040838503121561277357600080fd5b6000612781858286016124d5565b9250506020612792858286016124d5565b9150509250929050565b6127a581612f67565b82525050565b6127b481612f79565b82525050565b60006127c582612e69565b6127cf8185612e7f565b93506127df818560208601612fea565b6127e8816131b6565b840191505092915050565b60006127fe82612e74565b6128088185612e90565b9350612818818560208601612fea565b612821816131b6565b840191505092915050565b600061283782612e74565b6128418185612ea1565b9350612851818560208601612fea565b80840191505092915050565b600061286a602b83612e90565b9150612875826131c7565b604082019050919050565b600061288d603283612e90565b915061289882613216565b604082019050919050565b60006128b0601c83612e90565b91506128bb82613265565b602082019050919050565b60006128d3602483612e90565b91506128de8261328e565b604082019050919050565b60006128f6601983612e90565b9150612901826132dd565b602082019050919050565b6000612919602c83612e90565b915061292482613306565b604082019050919050565b600061293c603883612e90565b915061294782613355565b604082019050919050565b600061295f602a83612e90565b915061296a826133a4565b604082019050919050565b6000612982602983612e90565b915061298d826133f3565b604082019050919050565b60006129a5602083612e90565b91506129b082613442565b602082019050919050565b60006129c8602c83612e90565b91506129d38261346b565b604082019050919050565b60006129eb602983612e90565b91506129f6826134ba565b604082019050919050565b6000612a0e602f83612e90565b9150612a1982613509565b604082019050919050565b6000612a31602183612e90565b9150612a3c82613558565b604082019050919050565b6000612a54603183612e90565b9150612a5f826135a7565b604082019050919050565b6000612a77602c83612e90565b9150612a82826135f6565b604082019050919050565b612a9681612fd1565b82525050565b6000612aa8828461282c565b915081905092915050565b6000612abf828561282c565b9150612acb828461282c565b91508190509392505050565b6000602082019050612aec600083018461279c565b92915050565b6000608082019050612b07600083018761279c565b612b14602083018661279c565b612b216040830185612a8d565b8181036060830152612b3381846127ba565b905095945050505050565b6000602082019050612b5360008301846127ab565b92915050565b60006020820190508181036000830152612b7381846127f3565b905092915050565b60006020820190508181036000830152612b948161285d565b9050919050565b60006020820190508181036000830152612bb481612880565b9050919050565b60006020820190508181036000830152612bd4816128a3565b9050919050565b60006020820190508181036000830152612bf4816128c6565b9050919050565b60006020820190508181036000830152612c14816128e9565b9050919050565b60006020820190508181036000830152612c348161290c565b9050919050565b60006020820190508181036000830152612c548161292f565b9050919050565b60006020820190508181036000830152612c7481612952565b9050919050565b60006020820190508181036000830152612c9481612975565b9050919050565b60006020820190508181036000830152612cb481612998565b9050919050565b60006020820190508181036000830152612cd4816129bb565b9050919050565b60006020820190508181036000830152612cf4816129de565b9050919050565b60006020820190508181036000830152612d1481612a01565b9050919050565b60006020820190508181036000830152612d3481612a24565b9050919050565b60006020820190508181036000830152612d5481612a47565b9050919050565b60006020820190508181036000830152612d7481612a6a565b9050919050565b6000602082019050612d906000830184612a8d565b92915050565b6000608082019050612dab6000830187612a8d565b612db86020830186612a8d565b8181036040830152612dca81856127f3565b9050612dd960608301846127ab565b95945050505050565b6000612dec612dfd565b9050612df8828261304f565b919050565b6000604051905090565b600067ffffffffffffffff821115612e2257612e21613187565b5b612e2b826131b6565b9050602081019050919050565b600067ffffffffffffffff821115612e5357612e52613187565b5b612e5c826131b6565b9050602081019050919050565b600081519050919050565b600081519050919050565b600082825260208201905092915050565b600082825260208201905092915050565b600081905092915050565b6000612eb782612fd1565b9150612ec283612fd1565b9250827fffffffffffffffffffffffffffffffffffffffffffffffffffffffffffffffff03821115612ef757612ef66130fa565b5b828201905092915050565b6000612f0d82612fd1565b9150612f1883612fd1565b925082612f2857612f27613129565b5b828204905092915050565b6000612f3e82612fd1565b9150612f4983612fd1565b925082821015612f5c57612f5b6130fa565b5b828203905092915050565b6000612f7282612fb1565b9050919050565b60008115159050919050565b60007fffffffff0000000000000000000000000000000000000000000000000000000082169050919050565b600073ffffffffffffffffffffffffffffffffffffffff82169050919050565b6000819050919050565b82818337600083830152505050565b60005b83811015613008578082015181840152602081019050612fed565b83811115613017576000848401525b50505050565b6000600282049050600182168061303557607f821691505b6020821081141561304957613048613158565b5b50919050565b613058826131b6565b810181811067ffffffffffffffff8211171561307757613076613187565b5b80604052505050565b600061308b82612fd1565b91507fffffffffffffffffffffffffffffffffffffffffffffffffffffffffffffffff8214156130be576130bd6130fa565b5b600182019050919050565b60006130d482612fd1565b91506130df83612fd1565b9250826130ef576130ee613129565b5b828206905092915050565b7f4e487b7100000000000000000000000000000000000000000000000000000000600052601160045260246000fd5b7f4e487b7100000000000000000000000000000000000000000000000000000000600052601260045260246000fd5b7f4e487b7100000000000000000000000000000000000000000000000000000000600052602260045260246000fd5b7f4e487b7100000000000000000000000000000000000000000000000000000000600052604160045260246000fd5b6000601f19601f8301169050919050565b7f455243373231456e756d657261626c653a206f776e657220696e646578206f7560008201527f74206f6620626f756e6473000000000000000000000000000000000000000000602082015250565b7f4552433732313a207472616e7366657220746f206e6f6e20455243373231526560008201527f63656976657220696d706c656d656e7465720000000000000000000000000000602082015250565b7f4552433732313a20746f6b656e20616c7265616479206d696e74656400000000600082015250565b7f4552433732313a207472616e7366657220746f20746865207a65726f2061646460008201527f7265737300000000000000000000000000000000000000000000000000000000602082015250565b7f4552433732313a20617070726f766520746f2063616c6c657200000000000000600082015250565b7f4552433732313a206f70657261746f7220717565727920666f72206e6f6e657860008201527f697374656e7420746f6b656e0000000000000000000000000000000000000000602082015250565b7f4552433732313a20617070726f76652063616c6c6572206973206e6f74206f7760008201527f6e6572206e6f7220617070726f76656420666f7220616c6c0000000000000000602082015250565b7f4552433732313a2062616c616e636520717565727920666f7220746865207a6560008201527f726f206164647265737300000000000000000000000000000000000000000000602082015250565b7f4552433732313a206f776e657220717565727920666f72206e6f6e657869737460008201527f656e7420746f6b656e0000000000000000000000000000000000000000000000602082015250565b7f4552433732313a206d696e7420746f20746865207a65726f2061646472657373600082015250565b7f4552433732313a20617070726f76656420717565727920666f72206e6f6e657860008201527f697374656e7420746f6b656e0000000000000000000000000000000000000000602082015250565b7f4552433732313a207472616e73666572206f6620746f6b656e2074686174206960008201527f73206e6f74206f776e0000000000000000000000000000000000000000000000602082015250565b7f4552433732314d657461646174613a2055524920717565727920666f72206e6f60008201527f6e6578697374656e7420746f6b656e0000000000000000000000000000000000602082015250565b7f4552433732313a20617070726f76616c20746f2063757272656e74206f776e6560008201527f7200000000000000000000000000000000000000000000000000000000000000602082015250565b7f4552433732313a207472616e736665722063616c6c6572206973206e6f74206f60008201527f776e6572206e6f7220617070726f766564000000000000000000000000000000602082015250565b7f455243373231456e756d657261626c653a20676c6f62616c20696e646578206f60008201527f7574206f6620626f756e64730000000000000000000000000000000000000000602082015250565b61364e81612f67565b811461365957600080fd5b50565b61366581612f79565b811461367057600080fd5b50565b61367c81612f85565b811461368757600080fd5b50565b61369381612fd1565b811461369e57600080fd5b5056fea26469706673582212202d43a848793c8ad5037391085223e432b3aeb9f98fc4d7cb87161f2ad28ae01264736f6c63430008040033",
  "immutableReferences": {},
  "source": "pragma solidity ^0.8.0;\r\n\r\nimport \"@openzeppelin/contracts/token/ERC721/ERC721.sol\";\r\nimport \"@openzeppelin/contracts/token/ERC721/extensions/ERC721Enumerable.sol\";\r\n\r\ncontract Card is ERC721Enumerable{\r\n     //string[] public cards;\r\n     struct Token{\r\n          uint id;\r\n          uint price;\r\n          string card;\r\n          bool listed;\r\n     }\r\n     mapping(uint => Token) public cards;\r\n     mapping(string => bool) _cardExists;\r\n\r\n     constructor() ERC721(\"Card\",\"CARD\") {\r\n          \r\n     }\r\n\r\n     function mint(string memory _card,uint _price) public{\r\n          require(!_cardExists[_card]);\r\n          //cards.push(_card);\r\n          //uint _id = cards.length - 1;\r\n          uint _id = totalSupply();\r\n          cards[_id] = Token(_id,_price,_card,true);\r\n          _mint(msg.sender,_id);\r\n          _cardExists[_card] = true;\r\n     }\r\n\r\n     function buy(uint _id) public payable{\r\n          Token memory _token = cards[_id];\r\n          require(msg.value == _token.price);\r\n          address payable _owner = payable(ownerOf(_id));\r\n          _owner.transfer(msg.value);\r\n          cards[_id].listed = false;\r\n          _transfer(_owner, msg.sender, _id);\r\n     }\r\n\r\n     function list(uint _id,uint price) public{\r\n          address _owner = ownerOf(_id);\r\n          require(_owner == msg.sender);\r\n          cards[_id].listed = true;\r\n          cards[_id].price = price;\r\n     }\r\n\r\n     function delist(uint _id) public{\r\n          address _owner = ownerOf(_id);\r\n          require(_owner == msg.sender);\r\n          cards[_id].listed = false;\r\n     }\r\n}\r\n\r\n\r\n\r\n",
  "sourcePath": "C:/Users/Sachin/Desktop/nft/src/contracts/Card.sol",
  "compiler": {
    "name": "solc",
    "version": "0.8.4+commit.c7e474f2.Emscripten.clang"
  },
  "schemaVersion": "3.4.1",
  "updatedAt": "2021-06-07T14:12:17.760Z",
  "networkType": "ethereum",
  "devdoc": {
    "kind": "dev",
    "methods": {
      "approve(address,uint256)": {
        "details": "See {IERC721-approve}."
      },
      "balanceOf(address)": {
        "details": "See {IERC721-balanceOf}."
      },
      "getApproved(uint256)": {
        "details": "See {IERC721-getApproved}."
      },
      "isApprovedForAll(address,address)": {
        "details": "See {IERC721-isApprovedForAll}."
      },
      "name()": {
        "details": "See {IERC721Metadata-name}."
      },
      "ownerOf(uint256)": {
        "details": "See {IERC721-ownerOf}."
      },
      "safeTransferFrom(address,address,uint256)": {
        "details": "See {IERC721-safeTransferFrom}."
      },
      "safeTransferFrom(address,address,uint256,bytes)": {
        "details": "See {IERC721-safeTransferFrom}."
      },
      "setApprovalForAll(address,bool)": {
        "details": "See {IERC721-setApprovalForAll}."
      },
      "supportsInterface(bytes4)": {
        "details": "See {IERC165-supportsInterface}."
      },
      "symbol()": {
        "details": "See {IERC721Metadata-symbol}."
      },
      "tokenByIndex(uint256)": {
        "details": "See {IERC721Enumerable-tokenByIndex}."
      },
      "tokenOfOwnerByIndex(address,uint256)": {
        "details": "See {IERC721Enumerable-tokenOfOwnerByIndex}."
      },
      "tokenURI(uint256)": {
        "details": "See {IERC721Metadata-tokenURI}."
      },
      "totalSupply()": {
        "details": "See {IERC721Enumerable-totalSupply}."
      },
      "transferFrom(address,address,uint256)": {
        "details": "See {IERC721-transferFrom}."
      }
    },
    "version": 1
  },
  "userdoc": {
    "kind": "user",
    "methods": {},
    "version": 1
  }
}