{
  "contractName": "ERC777",
  "abi": [
    {
      "inputs": [
        {
          "internalType": "string",
          "name": "name_",
          "type": "string"
        },
        {
          "internalType": "string",
          "name": "symbol_",
          "type": "string"
        },
        {
          "internalType": "address[]",
          "name": "defaultOperators_",
          "type": "address[]"
        }
      ],
      "stateMutability": "nonpayable",
      "type": "constructor"
    },
    {
      "anonymous": false,
      "inputs": [
        {
          "indexed": true,
          "internalType": "address",
          "name": "owner",
          "type": "address"
        },
        {
          "indexed": true,
          "internalType": "address",
          "name": "spender",
          "type": "address"
        },
        {
          "indexed": false,
          "internalType": "uint256",
          "name": "value",
          "type": "uint256"
        }
      ],
      "name": "Approval",
      "type": "event"
    },
    {
      "anonymous": false,
      "inputs": [
        {
          "indexed": true,
          "internalType": "address",
          "name": "operator",
          "type": "address"
        },
        {
          "indexed": true,
          "internalType": "address",
          "name": "tokenHolder",
          "type": "address"
        }
      ],
      "name": "AuthorizedOperator",
      "type": "event"
    },
    {
      "anonymous": false,
      "inputs": [
        {
          "indexed": true,
          "internalType": "address",
          "name": "operator",
          "type": "address"
        },
        {
          "indexed": true,
          "internalType": "address",
          "name": "from",
          "type": "address"
        },
        {
          "indexed": false,
          "internalType": "uint256",
          "name": "amount",
          "type": "uint256"
        },
        {
          "indexed": false,
          "internalType": "bytes",
          "name": "data",
          "type": "bytes"
        },
        {
          "indexed": false,
          "internalType": "bytes",
          "name": "operatorData",
          "type": "bytes"
        }
      ],
      "name": "Burned",
      "type": "event"
    },
    {
      "anonymous": false,
      "inputs": [
        {
          "indexed": true,
          "internalType": "address",
          "name": "operator",
          "type": "address"
        },
        {
          "indexed": true,
          "internalType": "address",
          "name": "to",
          "type": "address"
        },
        {
          "indexed": false,
          "internalType": "uint256",
          "name": "amount",
          "type": "uint256"
        },
        {
          "indexed": false,
          "internalType": "bytes",
          "name": "data",
          "type": "bytes"
        },
        {
          "indexed": false,
          "internalType": "bytes",
          "name": "operatorData",
          "type": "bytes"
        }
      ],
      "name": "Minted",
      "type": "event"
    },
    {
      "anonymous": false,
      "inputs": [
        {
          "indexed": true,
          "internalType": "address",
          "name": "operator",
          "type": "address"
        },
        {
          "indexed": true,
          "internalType": "address",
          "name": "tokenHolder",
          "type": "address"
        }
      ],
      "name": "RevokedOperator",
      "type": "event"
    },
    {
      "anonymous": false,
      "inputs": [
        {
          "indexed": true,
          "internalType": "address",
          "name": "operator",
          "type": "address"
        },
        {
          "indexed": true,
          "internalType": "address",
          "name": "from",
          "type": "address"
        },
        {
          "indexed": true,
          "internalType": "address",
          "name": "to",
          "type": "address"
        },
        {
          "indexed": false,
          "internalType": "uint256",
          "name": "amount",
          "type": "uint256"
        },
        {
          "indexed": false,
          "internalType": "bytes",
          "name": "data",
          "type": "bytes"
        },
        {
          "indexed": false,
          "internalType": "bytes",
          "name": "operatorData",
          "type": "bytes"
        }
      ],
      "name": "Sent",
      "type": "event"
    },
    {
      "anonymous": false,
      "inputs": [
        {
          "indexed": true,
          "internalType": "address",
          "name": "from",
          "type": "address"
        },
        {
          "indexed": true,
          "internalType": "address",
          "name": "to",
          "type": "address"
        },
        {
          "indexed": false,
          "internalType": "uint256",
          "name": "value",
          "type": "uint256"
        }
      ],
      "name": "Transfer",
      "type": "event"
    },
    {
      "inputs": [],
      "name": "name",
      "outputs": [
        {
          "internalType": "string",
          "name": "",
          "type": "string"
        }
      ],
      "stateMutability": "view",
      "type": "function"
    },
    {
      "inputs": [],
      "name": "symbol",
      "outputs": [
        {
          "internalType": "string",
          "name": "",
          "type": "string"
        }
      ],
      "stateMutability": "view",
      "type": "function"
    },
    {
      "inputs": [],
      "name": "decimals",
      "outputs": [
        {
          "internalType": "uint8",
          "name": "",
          "type": "uint8"
        }
      ],
      "stateMutability": "pure",
      "type": "function"
    },
    {
      "inputs": [],
      "name": "granularity",
      "outputs": [
        {
          "internalType": "uint256",
          "name": "",
          "type": "uint256"
        }
      ],
      "stateMutability": "view",
      "type": "function"
    },
    {
      "inputs": [],
      "name": "totalSupply",
      "outputs": [
        {
          "internalType": "uint256",
          "name": "",
          "type": "uint256"
        }
      ],
      "stateMutability": "view",
      "type": "function"
    },
    {
      "inputs": [
        {
          "internalType": "address",
          "name": "tokenHolder",
          "type": "address"
        }
      ],
      "name": "balanceOf",
      "outputs": [
        {
          "internalType": "uint256",
          "name": "",
          "type": "uint256"
        }
      ],
      "stateMutability": "view",
      "type": "function"
    },
    {
      "inputs": [
        {
          "internalType": "address",
          "name": "recipient",
          "type": "address"
        },
        {
          "internalType": "uint256",
          "name": "amount",
          "type": "uint256"
        },
        {
          "internalType": "bytes",
          "name": "data",
          "type": "bytes"
        }
      ],
      "name": "send",
      "outputs": [],
      "stateMutability": "nonpayable",
      "type": "function"
    },
    {
      "inputs": [
        {
          "internalType": "address",
          "name": "recipient",
          "type": "address"
        },
        {
          "internalType": "uint256",
          "name": "amount",
          "type": "uint256"
        }
      ],
      "name": "transfer",
      "outputs": [
        {
          "internalType": "bool",
          "name": "",
          "type": "bool"
        }
      ],
      "stateMutability": "nonpayable",
      "type": "function"
    },
    {
      "inputs": [
        {
          "internalType": "uint256",
          "name": "amount",
          "type": "uint256"
        },
        {
          "internalType": "bytes",
          "name": "data",
          "type": "bytes"
        }
      ],
      "name": "burn",
      "outputs": [],
      "stateMutability": "nonpayable",
      "type": "function"
    },
    {
      "inputs": [
        {
          "internalType": "address",
          "name": "operator",
          "type": "address"
        },
        {
          "internalType": "address",
          "name": "tokenHolder",
          "type": "address"
        }
      ],
      "name": "isOperatorFor",
      "outputs": [
        {
          "internalType": "bool",
          "name": "",
          "type": "bool"
        }
      ],
      "stateMutability": "view",
      "type": "function"
    },
    {
      "inputs": [
        {
          "internalType": "address",
          "name": "operator",
          "type": "address"
        }
      ],
      "name": "authorizeOperator",
      "outputs": [],
      "stateMutability": "nonpayable",
      "type": "function"
    },
    {
      "inputs": [
        {
          "internalType": "address",
          "name": "operator",
          "type": "address"
        }
      ],
      "name": "revokeOperator",
      "outputs": [],
      "stateMutability": "nonpayable",
      "type": "function"
    },
    {
      "inputs": [],
      "name": "defaultOperators",
      "outputs": [
        {
          "internalType": "address[]",
          "name": "",
          "type": "address[]"
        }
      ],
      "stateMutability": "view",
      "type": "function"
    },
    {
      "inputs": [
        {
          "internalType": "address",
          "name": "sender",
          "type": "address"
        },
        {
          "internalType": "address",
          "name": "recipient",
          "type": "address"
        },
        {
          "internalType": "uint256",
          "name": "amount",
          "type": "uint256"
        },
        {
          "internalType": "bytes",
          "name": "data",
          "type": "bytes"
        },
        {
          "internalType": "bytes",
          "name": "operatorData",
          "type": "bytes"
        }
      ],
      "name": "operatorSend",
      "outputs": [],
      "stateMutability": "nonpayable",
      "type": "function"
    },
    {
      "inputs": [
        {
          "internalType": "address",
          "name": "account",
          "type": "address"
        },
        {
          "internalType": "uint256",
          "name": "amount",
          "type": "uint256"
        },
        {
          "internalType": "bytes",
          "name": "data",
          "type": "bytes"
        },
        {
          "internalType": "bytes",
          "name": "operatorData",
          "type": "bytes"
        }
      ],
      "name": "operatorBurn",
      "outputs": [],
      "stateMutability": "nonpayable",
      "type": "function"
    },
    {
      "inputs": [
        {
          "internalType": "address",
          "name": "holder",
          "type": "address"
        },
        {
          "internalType": "address",
          "name": "spender",
          "type": "address"
        }
      ],
      "name": "allowance",
      "outputs": [
        {
          "internalType": "uint256",
          "name": "",
          "type": "uint256"
        }
      ],
      "stateMutability": "view",
      "type": "function"
    },
    {
      "inputs": [
        {
          "internalType": "address",
          "name": "spender",
          "type": "address"
        },
        {
          "internalType": "uint256",
          "name": "value",
          "type": "uint256"
        }
      ],
      "name": "approve",
      "outputs": [
        {
          "internalType": "bool",
          "name": "",
          "type": "bool"
        }
      ],
      "stateMutability": "nonpayable",
      "type": "function"
    },
    {
      "inputs": [
        {
          "internalType": "address",
          "name": "holder",
          "type": "address"
        },
        {
          "internalType": "address",
          "name": "recipient",
          "type": "address"
        },
        {
          "internalType": "uint256",
          "name": "amount",
          "type": "uint256"
        }
      ],
      "name": "transferFrom",
      "outputs": [
        {
          "internalType": "bool",
          "name": "",
          "type": "bool"
        }
      ],
      "stateMutability": "nonpayable",
      "type": "function"
    }
  ],
  "bytecode": "0x60806040523480156200001157600080fd5b506040516200367638038062003676833981810160405281019062000037919062000500565b82600290805190602001906200004f92919062000296565b5081600390805190602001906200006892919062000296565b5080600490805190602001906200008192919062000327565b5060005b81518110156200013e57600160056000848481518110620000cf577f4e487b7100000000000000000000000000000000000000000000000000000000600052603260045260246000fd5b602002602001015173ffffffffffffffffffffffffffffffffffffffff1673ffffffffffffffffffffffffffffffffffffffff16815260200190815260200160002060006101000a81548160ff0219169083151502179055508080620001359062000778565b91505062000085565b50731820a4b7618bde71dce8cdc73aab6c95905fad2473ffffffffffffffffffffffffffffffffffffffff166329965a1d307fac7fbab5f54a3ca8194167523c6753bfeb96a445279294b6125b68cce2177054306040518463ffffffff1660e01b8152600401620001b293929190620005c3565b600060405180830381600087803b158015620001cd57600080fd5b505af1158015620001e2573d6000803e3d6000fd5b50505050731820a4b7618bde71dce8cdc73aab6c95905fad2473ffffffffffffffffffffffffffffffffffffffff166329965a1d307faea199e31a596269b42cdafd93407f14436db6e4cad65417994c2eb37381e05a306040518463ffffffff1660e01b81526004016200025993929190620005c3565b600060405180830381600087803b1580156200027457600080fd5b505af115801562000289573d6000803e3d6000fd5b505050505050506200087e565b828054620002a4906200070c565b90600052602060002090601f016020900481019282620002c8576000855562000314565b82601f10620002e357805160ff191683800117855562000314565b8280016001018555821562000314579182015b8281111562000313578251825591602001919060010190620002f6565b5b509050620003239190620003b6565b5090565b828054828255906000526020600020908101928215620003a3579160200282015b82811115620003a25782518260006101000a81548173ffffffffffffffffffffffffffffffffffffffff021916908373ffffffffffffffffffffffffffffffffffffffff1602179055509160200191906001019062000348565b5b509050620003b29190620003b6565b5090565b5b80821115620003d1576000816000905550600101620003b7565b5090565b6000620003ec620003e68462000629565b62000600565b905080838252602082019050828560208602820111156200040c57600080fd5b60005b858110156200044057816200042588826200048f565b8452602084019350602083019250506001810190506200040f565b5050509392505050565b6000620004616200045b8462000658565b62000600565b9050828152602081018484840111156200047a57600080fd5b62000487848285620006d6565b509392505050565b600081519050620004a08162000864565b92915050565b600082601f830112620004b857600080fd5b8151620004ca848260208601620003d5565b91505092915050565b600082601f830112620004e557600080fd5b8151620004f78482602086016200044a565b91505092915050565b6000806000606084860312156200051657600080fd5b600084015167ffffffffffffffff8111156200053157600080fd5b6200053f86828701620004d3565b935050602084015167ffffffffffffffff8111156200055d57600080fd5b6200056b86828701620004d3565b925050604084015167ffffffffffffffff8111156200058957600080fd5b6200059786828701620004a6565b9150509250925092565b620005ac816200068e565b82525050565b620005bd81620006a2565b82525050565b6000606082019050620005da6000830186620005a1565b620005e96020830185620005b2565b620005f86040830184620005a1565b949350505050565b60006200060c6200061f565b90506200061a828262000742565b919050565b6000604051905090565b600067ffffffffffffffff82111562000647576200064662000824565b5b602082029050602081019050919050565b600067ffffffffffffffff82111562000676576200067562000824565b5b620006818262000853565b9050602081019050919050565b60006200069b82620006ac565b9050919050565b6000819050919050565b600073ffffffffffffffffffffffffffffffffffffffff82169050919050565b6000819050919050565b60005b83811015620006f6578082015181840152602081019050620006d9565b8381111562000706576000848401525b50505050565b600060028204905060018216806200072557607f821691505b602082108114156200073c576200073b620007f5565b5b50919050565b6200074d8262000853565b810181811067ffffffffffffffff821117156200076f576200076e62000824565b5b80604052505050565b60006200078582620006cc565b91507fffffffffffffffffffffffffffffffffffffffffffffffffffffffffffffffff821415620007bb57620007ba620007c6565b5b600182019050919050565b7f4e487b7100000000000000000000000000000000000000000000000000000000600052601160045260246000fd5b7f4e487b7100000000000000000000000000000000000000000000000000000000600052602260045260246000fd5b7f4e487b7100000000000000000000000000000000000000000000000000000000600052604160045260246000fd5b6000601f19601f8301169050919050565b6200086f816200068e565b81146200087b57600080fd5b50565b612de8806200088e6000396000f3fe608060405234801561001057600080fd5b50600436106101165760003560e01c8063959b8c3f116100a2578063d95b637111610071578063d95b6371146102e3578063dd62ed3e14610313578063fad8b32a14610343578063fc673c4f1461035f578063fe9d93031461037b57610116565b8063959b8c3f1461025d57806395d89b41146102795780639bd9bbc614610297578063a9059cbb146102b357610116565b806323b872dd116100e957806323b872dd146101a5578063313ce567146101d5578063556f0dc7146101f357806362ad1b831461021157806370a082311461022d57610116565b806306e485381461011b57806306fdde0314610139578063095ea7b31461015757806318160ddd14610187575b600080fd5b610123610397565b60405161013091906123a5565b60405180910390f35b610141610425565b60405161014e91906123e2565b60405180910390f35b610171600480360381019061016c9190611e57565b6104b7565b60405161017e91906123c7565b60405180910390f35b61018f6104da565b60405161019c91906125c4565b60405180910390f35b6101bf60048036038101906101ba9190611d61565b6104e4565b6040516101cc91906123c7565b60405180910390f35b6101dd61073e565b6040516101ea9190612624565b60405180910390f35b6101fb610747565b60405161020891906125c4565b60405180910390f35b61022b60048036038101906102269190611db0565b610750565b005b61024760048036038101906102429190611cd3565b6107b6565b60405161025491906125c4565b60405180910390f35b61027760048036038101906102729190611cd3565b6107fe565b005b610281610a5f565b60405161028e91906123e2565b60405180910390f35b6102b160048036038101906102ac9190611e93565b610af1565b005b6102cd60048036038101906102c89190611e57565b610b1b565b6040516102da91906123c7565b60405180910390f35b6102fd60048036038101906102f89190611d25565b610c29565b60405161030a91906123c7565b60405180910390f35b61032d60048036038101906103289190611d25565b610dda565b60405161033a91906125c4565b60405180910390f35b61035d60048036038101906103589190611cd3565b610e61565b005b61037960048036038101906103749190611efa565b6110c2565b005b61039560048036038101906103909190611f8d565b611124565b005b6060600480548060200260200160405190810160405280929190818152602001828054801561041b57602002820191906000526020600020905b8160009054906101000a900473ffffffffffffffffffffffffffffffffffffffff1673ffffffffffffffffffffffffffffffffffffffff16815260200190600101908083116103d1575b5050505050905090565b60606002805461043490612831565b80601f016020809104026020016040519081016040528092919081815260200182805461046090612831565b80156104ad5780601f10610482576101008083540402835291602001916104ad565b820191906000526020600020905b81548152906001019060200180831161049057829003601f168201915b5050505050905090565b6000806104c261114a565b90506104cf818585611152565b600191505092915050565b6000600154905090565b60008073ffffffffffffffffffffffffffffffffffffffff168373ffffffffffffffffffffffffffffffffffffffff161415610555576040517f08c379a000000000000000000000000000000000000000000000000000000000815260040161054c906124e4565b60405180910390fd5b600073ffffffffffffffffffffffffffffffffffffffff168473ffffffffffffffffffffffffffffffffffffffff1614156105c5576040517f08c379a00000000000000000000000000000000000000000000000000000000081526004016105bc90612544565b60405180910390fd5b60006105cf61114a565b90506105fd81868686604051806020016040528060008152506040518060200160405280600081525061131d565b610629818686866040518060200160405280600081525060405180602001604052806000815250611493565b6000600860008773ffffffffffffffffffffffffffffffffffffffff1673ffffffffffffffffffffffffffffffffffffffff16815260200190815260200160002060008373ffffffffffffffffffffffffffffffffffffffff1673ffffffffffffffffffffffffffffffffffffffff168152602001908152602001600020549050838110156106ed576040517f08c379a00000000000000000000000000000000000000000000000000000000081526004016106e490612524565b60405180910390fd5b610703868386846106fe919061275c565b611152565b61073182878787604051806020016040528060008152506040518060200160405280600081525060006116b6565b6001925050509392505050565b60006012905090565b60006001905090565b61076161075b61114a565b86610c29565b6107a0576040517f08c379a000000000000000000000000000000000000000000000000000000000815260040161079790612504565b60405180910390fd5b6107af85858585856001611897565b5050505050565b60008060008373ffffffffffffffffffffffffffffffffffffffff1673ffffffffffffffffffffffffffffffffffffffff168152602001908152602001600020549050919050565b8073ffffffffffffffffffffffffffffffffffffffff1661081d61114a565b73ffffffffffffffffffffffffffffffffffffffff161415610874576040517f08c379a000000000000000000000000000000000000000000000000000000000815260040161086b90612484565b60405180910390fd5b600560008273ffffffffffffffffffffffffffffffffffffffff1673ffffffffffffffffffffffffffffffffffffffff16815260200190815260200160002060009054906101000a900460ff161561095e57600760006108d261114a565b73ffffffffffffffffffffffffffffffffffffffff1673ffffffffffffffffffffffffffffffffffffffff16815260200190815260200160002060008273ffffffffffffffffffffffffffffffffffffffff1673ffffffffffffffffffffffffffffffffffffffff16815260200190815260200160002060006101000a81549060ff02191690556109fb565b60016006600061096c61114a565b73ffffffffffffffffffffffffffffffffffffffff1673ffffffffffffffffffffffffffffffffffffffff16815260200190815260200160002060008373ffffffffffffffffffffffffffffffffffffffff1673ffffffffffffffffffffffffffffffffffffffff16815260200190815260200160002060006101000a81548160ff0219169083151502179055505b610a0361114a565b73ffffffffffffffffffffffffffffffffffffffff168173ffffffffffffffffffffffffffffffffffffffff167ff4caeb2d6ca8932a215a353d0703c326ec2d81fc68170f320eb2ab49e9df61f960405160405180910390a350565b606060038054610a6e90612831565b80601f0160208091040260200160405190810160405280929190818152602001828054610a9a90612831565b8015610ae75780601f10610abc57610100808354040283529160200191610ae7565b820191906000526020600020905b815481529060010190602001808311610aca57829003601f168201915b5050505050905090565b610b16610afc61114a565b848484604051806020016040528060008152506001611897565b505050565b60008073ffffffffffffffffffffffffffffffffffffffff168373ffffffffffffffffffffffffffffffffffffffff161415610b8c576040517f08c379a0000000000000000000000000000000000000000000000000000000008152600401610b83906124e4565b60405180910390fd5b6000610b9661114a565b9050610bc481828686604051806020016040528060008152506040518060200160405280600081525061131d565b610bf0818286866040518060200160405280600081525060405180602001604052806000815250611493565b610c1e81828686604051806020016040528060008152506040518060200160405280600081525060006116b6565b600191505092915050565b60008173ffffffffffffffffffffffffffffffffffffffff168373ffffffffffffffffffffffffffffffffffffffff161480610d415750600560008473ffffffffffffffffffffffffffffffffffffffff1673ffffffffffffffffffffffffffffffffffffffff16815260200190815260200160002060009054906101000a900460ff168015610d405750600760008373ffffffffffffffffffffffffffffffffffffffff1673ffffffffffffffffffffffffffffffffffffffff16815260200190815260200160002060008473ffffffffffffffffffffffffffffffffffffffff1673ffffffffffffffffffffffffffffffffffffffff16815260200190815260200160002060009054906101000a900460ff16155b5b80610dd25750600660008373ffffffffffffffffffffffffffffffffffffffff1673ffffffffffffffffffffffffffffffffffffffff16815260200190815260200160002060008473ffffffffffffffffffffffffffffffffffffffff1673ffffffffffffffffffffffffffffffffffffffff16815260200190815260200160002060009054906101000a900460ff165b905092915050565b6000600860008473ffffffffffffffffffffffffffffffffffffffff1673ffffffffffffffffffffffffffffffffffffffff16815260200190815260200160002060008373ffffffffffffffffffffffffffffffffffffffff1673ffffffffffffffffffffffffffffffffffffffff16815260200190815260200160002054905092915050565b610e6961114a565b73ffffffffffffffffffffffffffffffffffffffff168173ffffffffffffffffffffffffffffffffffffffff161415610ed7576040517f08c379a0000000000000000000000000000000000000000000000000000000008152600401610ece906124a4565b60405180910390fd5b600560008273ffffffffffffffffffffffffffffffffffffffff1673ffffffffffffffffffffffffffffffffffffffff16815260200190815260200160002060009054906101000a900460ff1615610fca57600160076000610f3761114a565b73ffffffffffffffffffffffffffffffffffffffff1673ffffffffffffffffffffffffffffffffffffffff16815260200190815260200160002060008373ffffffffffffffffffffffffffffffffffffffff1673ffffffffffffffffffffffffffffffffffffffff16815260200190815260200160002060006101000a81548160ff02191690831515021790555061105e565b60066000610fd661114a565b73ffffffffffffffffffffffffffffffffffffffff1673ffffffffffffffffffffffffffffffffffffffff16815260200190815260200160002060008273ffffffffffffffffffffffffffffffffffffffff1673ffffffffffffffffffffffffffffffffffffffff16815260200190815260200160002060006101000a81549060ff02191690555b61106661114a565b73ffffffffffffffffffffffffffffffffffffffff168173ffffffffffffffffffffffffffffffffffffffff167f50546e66e5f44d728365dc3908c63bc5cfeeab470722c1677e3073a6ac294aa160405160405180910390a350565b6110d36110cd61114a565b85610c29565b611112576040517f08c379a000000000000000000000000000000000000000000000000000000000815260040161110990612504565b60405180910390fd5b61111e848484846119b7565b50505050565b61114661112f61114a565b8383604051806020016040528060008152506119b7565b5050565b600033905090565b600073ffffffffffffffffffffffffffffffffffffffff168373ffffffffffffffffffffffffffffffffffffffff1614156111c2576040517f08c379a00000000000000000000000000000000000000000000000000000000081526004016111b990612404565b60405180910390fd5b600073ffffffffffffffffffffffffffffffffffffffff168273ffffffffffffffffffffffffffffffffffffffff161415611232576040517f08c379a0000000000000000000000000000000000000000000000000000000008152600401611229906125a4565b60405180910390fd5b80600860008573ffffffffffffffffffffffffffffffffffffffff1673ffffffffffffffffffffffffffffffffffffffff16815260200190815260200160002060008473ffffffffffffffffffffffffffffffffffffffff1673ffffffffffffffffffffffffffffffffffffffff168152602001908152602001600020819055508173ffffffffffffffffffffffffffffffffffffffff168373ffffffffffffffffffffffffffffffffffffffff167f8c5be1e5ebec7d5bd14f71427d1e84f3dd0314c0f7b2291e5b200ac8c7c3b9258360405161131091906125c4565b60405180910390a3505050565b6000731820a4b7618bde71dce8cdc73aab6c95905fad2473ffffffffffffffffffffffffffffffffffffffff1663aabbb8ca877f29ddb589b1fb5fc7cf394961c1adf5f8c6454761adf795e67fe149f658abe8956040518363ffffffff1660e01b815260040161138e92919061237c565b60206040518083038186803b1580156113a657600080fd5b505afa1580156113ba573d6000803e3d6000fd5b505050506040513d601f19601f820116820180604052508101906113de9190611cfc565b9050600073ffffffffffffffffffffffffffffffffffffffff168173ffffffffffffffffffffffffffffffffffffffff161461148a578073ffffffffffffffffffffffffffffffffffffffff166375ab97828888888888886040518763ffffffff1660e01b81526004016114579695949392919061230d565b600060405180830381600087803b15801561147157600080fd5b505af1158015611485573d6000803e3d6000fd5b505050505b50505050505050565b61149f86868686611c13565b60008060008773ffffffffffffffffffffffffffffffffffffffff1673ffffffffffffffffffffffffffffffffffffffff16815260200190815260200160002054905083811015611525576040517f08c379a000000000000000000000000000000000000000000000000000000000815260040161151c90612444565b60405180910390fd5b8381611531919061275c565b6000808873ffffffffffffffffffffffffffffffffffffffff1673ffffffffffffffffffffffffffffffffffffffff16815260200190815260200160002081905550836000808773ffffffffffffffffffffffffffffffffffffffff1673ffffffffffffffffffffffffffffffffffffffff16815260200190815260200160002060008282546115c19190612706565b925050819055508473ffffffffffffffffffffffffffffffffffffffff168673ffffffffffffffffffffffffffffffffffffffff168873ffffffffffffffffffffffffffffffffffffffff167f06b541ddaa720db2b10a4d0cdac39b8d360425fc073085fac19bc82614677987878787604051611640939291906125df565b60405180910390a48473ffffffffffffffffffffffffffffffffffffffff168673ffffffffffffffffffffffffffffffffffffffff167fddf252ad1be2c89b69c2b068fc378daa952ba7f163c4a11628f55a4df523b3ef866040516116a591906125c4565b60405180910390a350505050505050565b6000731820a4b7618bde71dce8cdc73aab6c95905fad2473ffffffffffffffffffffffffffffffffffffffff1663aabbb8ca877fb281fc8c12954d22544db45de3159a39272895b169a852b314f9cc762e44c53b6040518363ffffffff1660e01b815260040161172792919061237c565b60206040518083038186803b15801561173f57600080fd5b505afa158015611753573d6000803e3d6000fd5b505050506040513d601f19601f820116820180604052508101906117779190611cfc565b9050600073ffffffffffffffffffffffffffffffffffffffff168173ffffffffffffffffffffffffffffffffffffffff1614611826578073ffffffffffffffffffffffffffffffffffffffff166223de298989898989896040518763ffffffff1660e01b81526004016117ef9695949392919061230d565b600060405180830381600087803b15801561180957600080fd5b505af115801561181d573d6000803e3d6000fd5b5050505061188d565b811561188c5761184b8673ffffffffffffffffffffffffffffffffffffffff16611c19565b1561188b576040517f08c379a0000000000000000000000000000000000000000000000000000000008152600401611882906124c4565b60405180910390fd5b5b5b5050505050505050565b600073ffffffffffffffffffffffffffffffffffffffff168673ffffffffffffffffffffffffffffffffffffffff161415611907576040517f08c379a00000000000000000000000000000000000000000000000000000000081526004016118fe90612424565b60405180910390fd5b600073ffffffffffffffffffffffffffffffffffffffff168573ffffffffffffffffffffffffffffffffffffffff161415611977576040517f08c379a000000000000000000000000000000000000000000000000000000000815260040161196e90612584565b60405180910390fd5b600061198161114a565b905061199181888888888861131d565b61199f818888888888611493565b6119ae818888888888886116b6565b50505050505050565b600073ffffffffffffffffffffffffffffffffffffffff168473ffffffffffffffffffffffffffffffffffffffff161415611a27576040517f08c379a0000000000000000000000000000000000000000000000000000000008152600401611a1e90612464565b60405180910390fd5b6000611a3161114a565b9050611a428186600087878761131d565b611a4f8186600087611c13565b60008060008773ffffffffffffffffffffffffffffffffffffffff1673ffffffffffffffffffffffffffffffffffffffff16815260200190815260200160002054905084811015611ad5576040517f08c379a0000000000000000000000000000000000000000000000000000000008152600401611acc90612564565b60405180910390fd5b8481611ae1919061275c565b6000808873ffffffffffffffffffffffffffffffffffffffff1673ffffffffffffffffffffffffffffffffffffffff168152602001908152602001600020819055508460016000828254611b35919061275c565b925050819055508573ffffffffffffffffffffffffffffffffffffffff168273ffffffffffffffffffffffffffffffffffffffff167fa78a9be3a7b862d26933ad85fb11d80ef66b8f972d7cbba06621d583943a4098878787604051611b9d939291906125df565b60405180910390a3600073ffffffffffffffffffffffffffffffffffffffff168673ffffffffffffffffffffffffffffffffffffffff167fddf252ad1be2c89b69c2b068fc378daa952ba7f163c4a11628f55a4df523b3ef87604051611c0391906125c4565b60405180910390a3505050505050565b50505050565b600080823b905060008111915050919050565b6000611c3f611c3a84612664565b61263f565b905082815260208101848484011115611c5757600080fd5b611c628482856127ef565b509392505050565b600081359050611c7981612d84565b92915050565b600081519050611c8e81612d84565b92915050565b600082601f830112611ca557600080fd5b8135611cb5848260208601611c2c565b91505092915050565b600081359050611ccd81612d9b565b92915050565b600060208284031215611ce557600080fd5b6000611cf384828501611c6a565b91505092915050565b600060208284031215611d0e57600080fd5b6000611d1c84828501611c7f565b91505092915050565b60008060408385031215611d3857600080fd5b6000611d4685828601611c6a565b9250506020611d5785828601611c6a565b9150509250929050565b600080600060608486031215611d7657600080fd5b6000611d8486828701611c6a565b9350506020611d9586828701611c6a565b9250506040611da686828701611cbe565b9150509250925092565b600080600080600060a08688031215611dc857600080fd5b6000611dd688828901611c6a565b9550506020611de788828901611c6a565b9450506040611df888828901611cbe565b935050606086013567ffffffffffffffff811115611e1557600080fd5b611e2188828901611c94565b925050608086013567ffffffffffffffff811115611e3e57600080fd5b611e4a88828901611c94565b9150509295509295909350565b60008060408385031215611e6a57600080fd5b6000611e7885828601611c6a565b9250506020611e8985828601611cbe565b9150509250929050565b600080600060608486031215611ea857600080fd5b6000611eb686828701611c6a565b9350506020611ec786828701611cbe565b925050604084013567ffffffffffffffff811115611ee457600080fd5b611ef086828701611c94565b9150509250925092565b60008060008060808587031215611f1057600080fd5b6000611f1e87828801611c6a565b9450506020611f2f87828801611cbe565b935050604085013567ffffffffffffffff811115611f4c57600080fd5b611f5887828801611c94565b925050606085013567ffffffffffffffff811115611f7557600080fd5b611f8187828801611c94565b91505092959194509250565b60008060408385031215611fa057600080fd5b6000611fae85828601611cbe565b925050602083013567ffffffffffffffff811115611fcb57600080fd5b611fd785828601611c94565b9150509250929050565b6000611fed8383611ff9565b60208301905092915050565b61200281612790565b82525050565b61201181612790565b82525050565b6000612022826126a5565b61202c81856126d3565b935061203783612695565b8060005b8381101561206857815161204f8882611fe1565b975061205a836126c6565b92505060018101905061203b565b5085935050505092915050565b61207e816127a2565b82525050565b61208d816127ae565b82525050565b600061209e826126b0565b6120a881856126e4565b93506120b88185602086016127fe565b6120c181612921565b840191505092915050565b60006120d7826126bb565b6120e181856126f5565b93506120f18185602086016127fe565b6120fa81612921565b840191505092915050565b60006121126025836126f5565b915061211d82612932565b604082019050919050565b60006121356022836126f5565b915061214082612981565b604082019050919050565b60006121586027836126f5565b9150612163826129d0565b604082019050919050565b600061217b6022836126f5565b915061218682612a1f565b604082019050919050565b600061219e6024836126f5565b91506121a982612a6e565b604082019050919050565b60006121c16021836126f5565b91506121cc82612abd565b604082019050919050565b60006121e4604d836126f5565b91506121ef82612b0c565b606082019050919050565b60006122076024836126f5565b915061221282612b81565b604082019050919050565b600061222a602c836126f5565b915061223582612bd0565b604082019050919050565b600061224d6029836126f5565b915061225882612c1f565b604082019050919050565b60006122706026836126f5565b915061227b82612c6e565b604082019050919050565b60006122936023836126f5565b915061229e82612cbd565b604082019050919050565b60006122b66020836126f5565b91506122c182612d0c565b602082019050919050565b60006122d96023836126f5565b91506122e482612d35565b604082019050919050565b6122f8816127d8565b82525050565b612307816127e2565b82525050565b600060c0820190506123226000830189612008565b61232f6020830188612008565b61233c6040830187612008565b61234960608301866122ef565b818103608083015261235b8185612093565b905081810360a083015261236f8184612093565b9050979650505050505050565b60006040820190506123916000830185612008565b61239e6020830184612084565b9392505050565b600060208201905081810360008301526123bf8184612017565b905092915050565b60006020820190506123dc6000830184612075565b92915050565b600060208201905081810360008301526123fc81846120cc565b905092915050565b6000602082019050818103600083015261241d81612105565b9050919050565b6000602082019050818103600083015261243d81612128565b9050919050565b6000602082019050818103600083015261245d8161214b565b9050919050565b6000602082019050818103600083015261247d8161216e565b9050919050565b6000602082019050818103600083015261249d81612191565b9050919050565b600060208201905081810360008301526124bd816121b4565b9050919050565b600060208201905081810360008301526124dd816121d7565b9050919050565b600060208201905081810360008301526124fd816121fa565b9050919050565b6000602082019050818103600083015261251d8161221d565b9050919050565b6000602082019050818103600083015261253d81612240565b9050919050565b6000602082019050818103600083015261255d81612263565b9050919050565b6000602082019050818103600083015261257d81612286565b9050919050565b6000602082019050818103600083015261259d816122a9565b9050919050565b600060208201905081810360008301526125bd816122cc565b9050919050565b60006020820190506125d960008301846122ef565b92915050565b60006060820190506125f460008301866122ef565b81810360208301526126068185612093565b9050818103604083015261261a8184612093565b9050949350505050565b600060208201905061263960008301846122fe565b92915050565b600061264961265a565b90506126558282612863565b919050565b6000604051905090565b600067ffffffffffffffff82111561267f5761267e6128f2565b5b61268882612921565b9050602081019050919050565b6000819050602082019050919050565b600081519050919050565b600081519050919050565b600081519050919050565b6000602082019050919050565b600082825260208201905092915050565b600082825260208201905092915050565b600082825260208201905092915050565b6000612711826127d8565b915061271c836127d8565b9250827fffffffffffffffffffffffffffffffffffffffffffffffffffffffffffffffff0382111561275157612750612894565b5b828201905092915050565b6000612767826127d8565b9150612772836127d8565b92508282101561278557612784612894565b5b828203905092915050565b600061279b826127b8565b9050919050565b60008115159050919050565b6000819050919050565b600073ffffffffffffffffffffffffffffffffffffffff82169050919050565b6000819050919050565b600060ff82169050919050565b82818337600083830152505050565b60005b8381101561281c578082015181840152602081019050612801565b8381111561282b576000848401525b50505050565b6000600282049050600182168061284957607f821691505b6020821081141561285d5761285c6128c3565b5b50919050565b61286c82612921565b810181811067ffffffffffffffff8211171561288b5761288a6128f2565b5b80604052505050565b7f4e487b7100000000000000000000000000000000000000000000000000000000600052601160045260246000fd5b7f4e487b7100000000000000000000000000000000000000000000000000000000600052602260045260246000fd5b7f4e487b7100000000000000000000000000000000000000000000000000000000600052604160045260246000fd5b6000601f19601f8301169050919050565b7f4552433737373a20617070726f76652066726f6d20746865207a65726f20616460008201527f6472657373000000000000000000000000000000000000000000000000000000602082015250565b7f4552433737373a2073656e642066726f6d20746865207a65726f20616464726560008201527f7373000000000000000000000000000000000000000000000000000000000000602082015250565b7f4552433737373a207472616e7366657220616d6f756e7420657863656564732060008201527f62616c616e636500000000000000000000000000000000000000000000000000602082015250565b7f4552433737373a206275726e2066726f6d20746865207a65726f20616464726560008201527f7373000000000000000000000000000000000000000000000000000000000000602082015250565b7f4552433737373a20617574686f72697a696e672073656c66206173206f70657260008201527f61746f7200000000000000000000000000000000000000000000000000000000602082015250565b7f4552433737373a207265766f6b696e672073656c66206173206f70657261746f60008201527f7200000000000000000000000000000000000000000000000000000000000000602082015250565b7f4552433737373a20746f6b656e20726563697069656e7420636f6e747261637460008201527f20686173206e6f20696d706c656d656e74657220666f7220455243373737546f60208201527f6b656e73526563697069656e7400000000000000000000000000000000000000604082015250565b7f4552433737373a207472616e7366657220746f20746865207a65726f2061646460008201527f7265737300000000000000000000000000000000000000000000000000000000602082015250565b7f4552433737373a2063616c6c6572206973206e6f7420616e206f70657261746f60008201527f7220666f7220686f6c6465720000000000000000000000000000000000000000602082015250565b7f4552433737373a207472616e7366657220616d6f756e7420657863656564732060008201527f616c6c6f77616e63650000000000000000000000000000000000000000000000602082015250565b7f4552433737373a207472616e736665722066726f6d20746865207a65726f206160008201527f6464726573730000000000000000000000000000000000000000000000000000602082015250565b7f4552433737373a206275726e20616d6f756e7420657863656564732062616c6160008201527f6e63650000000000000000000000000000000000000000000000000000000000602082015250565b7f4552433737373a2073656e6420746f20746865207a65726f2061646472657373600082015250565b7f4552433737373a20617070726f766520746f20746865207a65726f206164647260008201527f6573730000000000000000000000000000000000000000000000000000000000602082015250565b612d8d81612790565b8114612d9857600080fd5b50565b612da4816127d8565b8114612daf57600080fd5b5056fea2646970667358221220fe53f93e530ca252afc987676fcf7998f634d7b2cc59e79cd42cef844812975a64736f6c63430008040033",
  "immutableReferences": {},
  "source": "// SPDX-License-Identifier: MIT\n\npragma solidity ^0.8.0;\n\nimport \"./IERC777.sol\";\nimport \"./IERC777Recipient.sol\";\nimport \"./IERC777Sender.sol\";\nimport \"../ERC20/IERC20.sol\";\nimport \"../../utils/Address.sol\";\nimport \"../../utils/Context.sol\";\nimport \"../../utils/introspection/IERC1820Registry.sol\";\n\n/**\n * @dev Implementation of the {IERC777} interface.\n *\n * This implementation is agnostic to the way tokens are created. This means\n * that a supply mechanism has to be added in a derived contract using {_mint}.\n *\n * Support for ERC20 is included in this contract, as specified by the EIP: both\n * the ERC777 and ERC20 interfaces can be safely used when interacting with it.\n * Both {IERC777-Sent} and {IERC20-Transfer} events are emitted on token\n * movements.\n *\n * Additionally, the {IERC777-granularity} value is hard-coded to `1`, meaning that there\n * are no special restrictions in the amount of tokens that created, moved, or\n * destroyed. This makes integration with ERC20 applications seamless.\n */\ncontract ERC777 is Context, IERC777, IERC20 {\n    using Address for address;\n\n    IERC1820Registry constant internal _ERC1820_REGISTRY = IERC1820Registry(0x1820a4B7618BdE71Dce8cdc73aAB6C95905faD24);\n\n    mapping(address => uint256) private _balances;\n\n    uint256 private _totalSupply;\n\n    string private _name;\n    string private _symbol;\n\n    bytes32 private constant _TOKENS_SENDER_INTERFACE_HASH = keccak256(\"ERC777TokensSender\");\n    bytes32 private constant _TOKENS_RECIPIENT_INTERFACE_HASH = keccak256(\"ERC777TokensRecipient\");\n\n    // This isn't ever read from - it's only used to respond to the defaultOperators query.\n    address[] private _defaultOperatorsArray;\n\n    // Immutable, but accounts may revoke them (tracked in __revokedDefaultOperators).\n    mapping(address => bool) private _defaultOperators;\n\n    // For each account, a mapping of its operators and revoked default operators.\n    mapping(address => mapping(address => bool)) private _operators;\n    mapping(address => mapping(address => bool)) private _revokedDefaultOperators;\n\n    // ERC20-allowances\n    mapping (address => mapping (address => uint256)) private _allowances;\n\n    /**\n     * @dev `defaultOperators` may be an empty array.\n     */\n    constructor(\n        string memory name_,\n        string memory symbol_,\n        address[] memory defaultOperators_\n    ) {\n        _name = name_;\n        _symbol = symbol_;\n\n        _defaultOperatorsArray = defaultOperators_;\n        for (uint256 i = 0; i < defaultOperators_.length; i++) {\n            _defaultOperators[defaultOperators_[i]] = true;\n        }\n\n        // register interfaces\n        _ERC1820_REGISTRY.setInterfaceImplementer(address(this), keccak256(\"ERC777Token\"), address(this));\n        _ERC1820_REGISTRY.setInterfaceImplementer(address(this), keccak256(\"ERC20Token\"), address(this));\n    }\n\n    /**\n     * @dev See {IERC777-name}.\n     */\n    function name() public view virtual override returns (string memory) {\n        return _name;\n    }\n\n    /**\n     * @dev See {IERC777-symbol}.\n     */\n    function symbol() public view virtual override returns (string memory) {\n        return _symbol;\n    }\n\n    /**\n     * @dev See {ERC20-decimals}.\n     *\n     * Always returns 18, as per the\n     * [ERC777 EIP](https://eips.ethereum.org/EIPS/eip-777#backward-compatibility).\n     */\n    function decimals() public pure virtual returns (uint8) {\n        return 18;\n    }\n\n    /**\n     * @dev See {IERC777-granularity}.\n     *\n     * This implementation always returns `1`.\n     */\n    function granularity() public view virtual override returns (uint256) {\n        return 1;\n    }\n\n    /**\n     * @dev See {IERC777-totalSupply}.\n     */\n    function totalSupply() public view virtual override(IERC20, IERC777) returns (uint256) {\n        return _totalSupply;\n    }\n\n    /**\n     * @dev Returns the amount of tokens owned by an account (`tokenHolder`).\n     */\n    function balanceOf(address tokenHolder) public view virtual override(IERC20, IERC777) returns (uint256) {\n        return _balances[tokenHolder];\n    }\n\n    /**\n     * @dev See {IERC777-send}.\n     *\n     * Also emits a {IERC20-Transfer} event for ERC20 compatibility.\n     */\n    function send(address recipient, uint256 amount, bytes memory data) public virtual override  {\n        _send(_msgSender(), recipient, amount, data, \"\", true);\n    }\n\n    /**\n     * @dev See {IERC20-transfer}.\n     *\n     * Unlike `send`, `recipient` is _not_ required to implement the {IERC777Recipient}\n     * interface if it is a contract.\n     *\n     * Also emits a {Sent} event.\n     */\n    function transfer(address recipient, uint256 amount) public virtual override returns (bool) {\n        require(recipient != address(0), \"ERC777: transfer to the zero address\");\n\n        address from = _msgSender();\n\n        _callTokensToSend(from, from, recipient, amount, \"\", \"\");\n\n        _move(from, from, recipient, amount, \"\", \"\");\n\n        _callTokensReceived(from, from, recipient, amount, \"\", \"\", false);\n\n        return true;\n    }\n\n    /**\n     * @dev See {IERC777-burn}.\n     *\n     * Also emits a {IERC20-Transfer} event for ERC20 compatibility.\n     */\n    function burn(uint256 amount, bytes memory data) public virtual override  {\n        _burn(_msgSender(), amount, data, \"\");\n    }\n\n    /**\n     * @dev See {IERC777-isOperatorFor}.\n     */\n    function isOperatorFor(address operator, address tokenHolder) public view virtual override returns (bool) {\n        return operator == tokenHolder ||\n            (_defaultOperators[operator] && !_revokedDefaultOperators[tokenHolder][operator]) ||\n            _operators[tokenHolder][operator];\n    }\n\n    /**\n     * @dev See {IERC777-authorizeOperator}.\n     */\n    function authorizeOperator(address operator) public virtual override  {\n        require(_msgSender() != operator, \"ERC777: authorizing self as operator\");\n\n        if (_defaultOperators[operator]) {\n            delete _revokedDefaultOperators[_msgSender()][operator];\n        } else {\n            _operators[_msgSender()][operator] = true;\n        }\n\n        emit AuthorizedOperator(operator, _msgSender());\n    }\n\n    /**\n     * @dev See {IERC777-revokeOperator}.\n     */\n    function revokeOperator(address operator) public virtual override  {\n        require(operator != _msgSender(), \"ERC777: revoking self as operator\");\n\n        if (_defaultOperators[operator]) {\n            _revokedDefaultOperators[_msgSender()][operator] = true;\n        } else {\n            delete _operators[_msgSender()][operator];\n        }\n\n        emit RevokedOperator(operator, _msgSender());\n    }\n\n    /**\n     * @dev See {IERC777-defaultOperators}.\n     */\n    function defaultOperators() public view virtual override returns (address[] memory) {\n        return _defaultOperatorsArray;\n    }\n\n    /**\n     * @dev See {IERC777-operatorSend}.\n     *\n     * Emits {Sent} and {IERC20-Transfer} events.\n     */\n    function operatorSend(\n        address sender,\n        address recipient,\n        uint256 amount,\n        bytes memory data,\n        bytes memory operatorData\n    )\n        public\n        virtual\n        override\n    {\n        require(isOperatorFor(_msgSender(), sender), \"ERC777: caller is not an operator for holder\");\n        _send(sender, recipient, amount, data, operatorData, true);\n    }\n\n    /**\n     * @dev See {IERC777-operatorBurn}.\n     *\n     * Emits {Burned} and {IERC20-Transfer} events.\n     */\n    function operatorBurn(address account, uint256 amount, bytes memory data, bytes memory operatorData) public virtual override {\n        require(isOperatorFor(_msgSender(), account), \"ERC777: caller is not an operator for holder\");\n        _burn(account, amount, data, operatorData);\n    }\n\n    /**\n     * @dev See {IERC20-allowance}.\n     *\n     * Note that operator and allowance concepts are orthogonal: operators may\n     * not have allowance, and accounts with allowance may not be operators\n     * themselves.\n     */\n    function allowance(address holder, address spender) public view virtual override returns (uint256) {\n        return _allowances[holder][spender];\n    }\n\n    /**\n     * @dev See {IERC20-approve}.\n     *\n     * Note that accounts cannot have allowance issued by their operators.\n     */\n    function approve(address spender, uint256 value) public virtual override returns (bool) {\n        address holder = _msgSender();\n        _approve(holder, spender, value);\n        return true;\n    }\n\n   /**\n    * @dev See {IERC20-transferFrom}.\n    *\n    * Note that operator and allowance concepts are orthogonal: operators cannot\n    * call `transferFrom` (unless they have allowance), and accounts with\n    * allowance cannot call `operatorSend` (unless they are operators).\n    *\n    * Emits {Sent}, {IERC20-Transfer} and {IERC20-Approval} events.\n    */\n    function transferFrom(address holder, address recipient, uint256 amount) public virtual override returns (bool) {\n        require(recipient != address(0), \"ERC777: transfer to the zero address\");\n        require(holder != address(0), \"ERC777: transfer from the zero address\");\n\n        address spender = _msgSender();\n\n        _callTokensToSend(spender, holder, recipient, amount, \"\", \"\");\n\n        _move(spender, holder, recipient, amount, \"\", \"\");\n\n        uint256 currentAllowance = _allowances[holder][spender];\n        require(currentAllowance >= amount, \"ERC777: transfer amount exceeds allowance\");\n        _approve(holder, spender, currentAllowance - amount);\n\n        _callTokensReceived(spender, holder, recipient, amount, \"\", \"\", false);\n\n        return true;\n    }\n\n    /**\n     * @dev Creates `amount` tokens and assigns them to `account`, increasing\n     * the total supply.\n     *\n     * If a send hook is registered for `account`, the corresponding function\n     * will be called with `operator`, `data` and `operatorData`.\n     *\n     * See {IERC777Sender} and {IERC777Recipient}.\n     *\n     * Emits {Minted} and {IERC20-Transfer} events.\n     *\n     * Requirements\n     *\n     * - `account` cannot be the zero address.\n     * - if `account` is a contract, it must implement the {IERC777Recipient}\n     * interface.\n     */\n    function _mint(\n        address account,\n        uint256 amount,\n        bytes memory userData,\n        bytes memory operatorData\n    )\n        internal\n        virtual\n    {\n        _mint(account, amount, userData, operatorData, true);\n    }\n\n    /**\n     * @dev Creates `amount` tokens and assigns them to `account`, increasing\n     * the total supply.\n     *\n     * If `requireReceptionAck` is set to true, and if a send hook is\n     * registered for `account`, the corresponding function will be called with\n     * `operator`, `data` and `operatorData`.\n     *\n     * See {IERC777Sender} and {IERC777Recipient}.\n     *\n     * Emits {Minted} and {IERC20-Transfer} events.\n     *\n     * Requirements\n     *\n     * - `account` cannot be the zero address.\n     * - if `account` is a contract, it must implement the {IERC777Recipient}\n     * interface.\n     */\n    function _mint(\n        address account,\n        uint256 amount,\n        bytes memory userData,\n        bytes memory operatorData,\n        bool requireReceptionAck\n    )\n        internal\n        virtual\n    {\n        require(account != address(0), \"ERC777: mint to the zero address\");\n\n        address operator = _msgSender();\n\n        _beforeTokenTransfer(operator, address(0), account, amount);\n\n        // Update state variables\n        _totalSupply += amount;\n        _balances[account] += amount;\n\n        _callTokensReceived(operator, address(0), account, amount, userData, operatorData, requireReceptionAck);\n\n        emit Minted(operator, account, amount, userData, operatorData);\n        emit Transfer(address(0), account, amount);\n    }\n\n    /**\n     * @dev Send tokens\n     * @param from address token holder address\n     * @param to address recipient address\n     * @param amount uint256 amount of tokens to transfer\n     * @param userData bytes extra information provided by the token holder (if any)\n     * @param operatorData bytes extra information provided by the operator (if any)\n     * @param requireReceptionAck if true, contract recipients are required to implement ERC777TokensRecipient\n     */\n    function _send(\n        address from,\n        address to,\n        uint256 amount,\n        bytes memory userData,\n        bytes memory operatorData,\n        bool requireReceptionAck\n    )\n        internal\n        virtual\n    {\n        require(from != address(0), \"ERC777: send from the zero address\");\n        require(to != address(0), \"ERC777: send to the zero address\");\n\n        address operator = _msgSender();\n\n        _callTokensToSend(operator, from, to, amount, userData, operatorData);\n\n        _move(operator, from, to, amount, userData, operatorData);\n\n        _callTokensReceived(operator, from, to, amount, userData, operatorData, requireReceptionAck);\n    }\n\n    /**\n     * @dev Burn tokens\n     * @param from address token holder address\n     * @param amount uint256 amount of tokens to burn\n     * @param data bytes extra information provided by the token holder\n     * @param operatorData bytes extra information provided by the operator (if any)\n     */\n    function _burn(\n        address from,\n        uint256 amount,\n        bytes memory data,\n        bytes memory operatorData\n    )\n        internal\n        virtual\n    {\n        require(from != address(0), \"ERC777: burn from the zero address\");\n\n        address operator = _msgSender();\n\n        _callTokensToSend(operator, from, address(0), amount, data, operatorData);\n\n        _beforeTokenTransfer(operator, from, address(0), amount);\n\n        // Update state variables\n        uint256 fromBalance = _balances[from];\n        require(fromBalance >= amount, \"ERC777: burn amount exceeds balance\");\n        _balances[from] = fromBalance - amount;\n        _totalSupply -= amount;\n\n        emit Burned(operator, from, amount, data, operatorData);\n        emit Transfer(from, address(0), amount);\n    }\n\n    function _move(\n        address operator,\n        address from,\n        address to,\n        uint256 amount,\n        bytes memory userData,\n        bytes memory operatorData\n    )\n        private\n    {\n        _beforeTokenTransfer(operator, from, to, amount);\n\n        uint256 fromBalance = _balances[from];\n        require(fromBalance >= amount, \"ERC777: transfer amount exceeds balance\");\n        _balances[from] = fromBalance - amount;\n        _balances[to] += amount;\n\n        emit Sent(operator, from, to, amount, userData, operatorData);\n        emit Transfer(from, to, amount);\n    }\n\n    /**\n     * @dev See {ERC20-_approve}.\n     *\n     * Note that accounts cannot have allowance issued by their operators.\n     */\n    function _approve(address holder, address spender, uint256 value) internal {\n        require(holder != address(0), \"ERC777: approve from the zero address\");\n        require(spender != address(0), \"ERC777: approve to the zero address\");\n\n        _allowances[holder][spender] = value;\n        emit Approval(holder, spender, value);\n    }\n\n    /**\n     * @dev Call from.tokensToSend() if the interface is registered\n     * @param operator address operator requesting the transfer\n     * @param from address token holder address\n     * @param to address recipient address\n     * @param amount uint256 amount of tokens to transfer\n     * @param userData bytes extra information provided by the token holder (if any)\n     * @param operatorData bytes extra information provided by the operator (if any)\n     */\n    function _callTokensToSend(\n        address operator,\n        address from,\n        address to,\n        uint256 amount,\n        bytes memory userData,\n        bytes memory operatorData\n    )\n        private\n    {\n        address implementer = _ERC1820_REGISTRY.getInterfaceImplementer(from, _TOKENS_SENDER_INTERFACE_HASH);\n        if (implementer != address(0)) {\n            IERC777Sender(implementer).tokensToSend(operator, from, to, amount, userData, operatorData);\n        }\n    }\n\n    /**\n     * @dev Call to.tokensReceived() if the interface is registered. Reverts if the recipient is a contract but\n     * tokensReceived() was not registered for the recipient\n     * @param operator address operator requesting the transfer\n     * @param from address token holder address\n     * @param to address recipient address\n     * @param amount uint256 amount of tokens to transfer\n     * @param userData bytes extra information provided by the token holder (if any)\n     * @param operatorData bytes extra information provided by the operator (if any)\n     * @param requireReceptionAck if true, contract recipients are required to implement ERC777TokensRecipient\n     */\n    function _callTokensReceived(\n        address operator,\n        address from,\n        address to,\n        uint256 amount,\n        bytes memory userData,\n        bytes memory operatorData,\n        bool requireReceptionAck\n    )\n        private\n    {\n        address implementer = _ERC1820_REGISTRY.getInterfaceImplementer(to, _TOKENS_RECIPIENT_INTERFACE_HASH);\n        if (implementer != address(0)) {\n            IERC777Recipient(implementer).tokensReceived(operator, from, to, amount, userData, operatorData);\n        } else if (requireReceptionAck) {\n            require(!to.isContract(), \"ERC777: token recipient contract has no implementer for ERC777TokensRecipient\");\n        }\n    }\n\n    /**\n     * @dev Hook that is called before any token transfer. This includes\n     * calls to {send}, {transfer}, {operatorSend}, minting and burning.\n     *\n     * Calling conditions:\n     *\n     * - when `from` and `to` are both non-zero, `amount` of ``from``'s tokens\n     * will be to transferred to `to`.\n     * - when `from` is zero, `amount` tokens will be minted for `to`.\n     * - when `to` is zero, `amount` of ``from``'s tokens will be burned.\n     * - `from` and `to` are never both zero.\n     *\n     * To learn more about hooks, head to xref:ROOT:extending-contracts.adoc#using-hooks[Using Hooks].\n     */\n    function _beforeTokenTransfer(address operator, address from, address to, uint256 amount) internal virtual { }\n}\n",
  "sourcePath": "C:/Users/Sachin/Desktop/nft/src/contracts/@openzeppelin/contracts/token/ERC777/ERC777.sol",
  "compiler": {
    "name": "solc",
    "version": "0.8.4+commit.c7e474f2.Emscripten.clang"
  },
  "schemaVersion": "3.4.1",
  "updatedAt": "2021-07-04T08:32:32.975Z",
  "devdoc": {
    "details": "Implementation of the {IERC777} interface. This implementation is agnostic to the way tokens are created. This means that a supply mechanism has to be added in a derived contract using {_mint}. Support for ERC20 is included in this contract, as specified by the EIP: both the ERC777 and ERC20 interfaces can be safely used when interacting with it. Both {IERC777-Sent} and {IERC20-Transfer} events are emitted on token movements. Additionally, the {IERC777-granularity} value is hard-coded to `1`, meaning that there are no special restrictions in the amount of tokens that created, moved, or destroyed. This makes integration with ERC20 applications seamless.",
    "kind": "dev",
    "methods": {
      "allowance(address,address)": {
        "details": "See {IERC20-allowance}. Note that operator and allowance concepts are orthogonal: operators may not have allowance, and accounts with allowance may not be operators themselves."
      },
      "approve(address,uint256)": {
        "details": "See {IERC20-approve}. Note that accounts cannot have allowance issued by their operators."
      },
      "authorizeOperator(address)": {
        "details": "See {IERC777-authorizeOperator}."
      },
      "balanceOf(address)": {
        "details": "Returns the amount of tokens owned by an account (`tokenHolder`)."
      },
      "burn(uint256,bytes)": {
        "details": "See {IERC777-burn}. Also emits a {IERC20-Transfer} event for ERC20 compatibility."
      },
      "constructor": {
        "details": "`defaultOperators` may be an empty array."
      },
      "decimals()": {
        "details": "See {ERC20-decimals}. Always returns 18, as per the [ERC777 EIP](https://eips.ethereum.org/EIPS/eip-777#backward-compatibility)."
      },
      "defaultOperators()": {
        "details": "See {IERC777-defaultOperators}."
      },
      "granularity()": {
        "details": "See {IERC777-granularity}. This implementation always returns `1`."
      },
      "isOperatorFor(address,address)": {
        "details": "See {IERC777-isOperatorFor}."
      },
      "name()": {
        "details": "See {IERC777-name}."
      },
      "operatorBurn(address,uint256,bytes,bytes)": {
        "details": "See {IERC777-operatorBurn}. Emits {Burned} and {IERC20-Transfer} events."
      },
      "operatorSend(address,address,uint256,bytes,bytes)": {
        "details": "See {IERC777-operatorSend}. Emits {Sent} and {IERC20-Transfer} events."
      },
      "revokeOperator(address)": {
        "details": "See {IERC777-revokeOperator}."
      },
      "send(address,uint256,bytes)": {
        "details": "See {IERC777-send}. Also emits a {IERC20-Transfer} event for ERC20 compatibility."
      },
      "symbol()": {
        "details": "See {IERC777-symbol}."
      },
      "totalSupply()": {
        "details": "See {IERC777-totalSupply}."
      },
      "transfer(address,uint256)": {
        "details": "See {IERC20-transfer}. Unlike `send`, `recipient` is _not_ required to implement the {IERC777Recipient} interface if it is a contract. Also emits a {Sent} event."
      },
      "transferFrom(address,address,uint256)": {
        "details": "See {IERC20-transferFrom}. Note that operator and allowance concepts are orthogonal: operators cannot call `transferFrom` (unless they have allowance), and accounts with allowance cannot call `operatorSend` (unless they are operators). Emits {Sent}, {IERC20-Transfer} and {IERC20-Approval} events."
      }
    },
    "version": 1
  },
  "userdoc": {
    "kind": "user",
    "methods": {},
    "version": 1
  }
}